Component: ARM Compiler 5.05 update 1 (build 106) Tool: armlink [4d0efa]

==============================================================================

Section Cross References

    startup_stm32l031xx.o(RESET) refers to startup_stm32l031xx.o(STACK) for __initial_sp
    startup_stm32l031xx.o(RESET) refers to startup_stm32l031xx.o(.text) for Reset_Handler
    startup_stm32l031xx.o(RESET) refers to stm32l0xx_it.o(i.NMI_Handler) for NMI_Handler
    startup_stm32l031xx.o(RESET) refers to stm32l0xx_it.o(i.HardFault_Handler) for HardFault_Handler
    startup_stm32l031xx.o(RESET) refers to stm32l0xx_it.o(i.SVC_Handler) for SVC_Handler
    startup_stm32l031xx.o(RESET) refers to stm32l0xx_it.o(i.PendSV_Handler) for PendSV_Handler
    startup_stm32l031xx.o(RESET) refers to stm32l0xx_it.o(i.SysTick_Handler) for SysTick_Handler
    startup_stm32l031xx.o(RESET) refers to tim1.o(i.LPTIM1_IRQHandler) for LPTIM1_IRQHandler
    startup_stm32l031xx.o(RESET) refers to tim.o(i.TIM2_IRQHandler) for TIM2_IRQHandler
    startup_stm32l031xx.o(RESET) refers to usart.o(i.USART2_IRQHandler) for USART2_IRQHandler
    startup_stm32l031xx.o(RESET) refers to usart.o(i.LPUART1_IRQHandler) for LPUART1_IRQHandler
    startup_stm32l031xx.o(.text) refers to system_stm32l0xx.o(i.SystemInit) for SystemInit
    startup_stm32l031xx.o(.text) refers to entry.o(.ARM.Collect$$$$00000000) for __main
    main.o(i.main) refers to sys.o(.emb_text) for INTX_ENABLE
    main.o(i.main) refers to sys.o(i.SystemClock_Config) for SystemClock_Config
    main.o(i.main) refers to delay.o(i.delay_ms) for delay_ms
    main.o(i.main) refers to bat.o(i.Bat_Config) for Bat_Config
    main.o(i.main) refers to bat.o(i.Get_Adc_Average) for Get_Adc_Average
==============================================================================

Removing Unused input sections from the image.

    Removing startup_stm32l031xx.o(HEAP), (512 bytes).
    Removing main.o(.rev16_text), (4 bytes).
    Removing main.o(.revsh_text), (4 bytes).
    Removing main.o(.data), (4 bytes).
    Removing stm32l0xx_it.o(.rev16_text), (4 bytes).
    Removing stm32l0xx_it.o(.revsh_text), (4 bytes).
    Removing stm32l0xx_hal_msp.o(.rev16_text), (4 bytes).
    Removing stm32l0xx_hal_msp.o(.revsh_text), (4 bytes).
    Removing stm32l0xx_hal_msp.o(i.HAL_MspDeInit), (2 bytes).
    Removing stm32l0xx_hal_msp.o(i.HAL_MspInit), (24 bytes).
    Removing stm32l0xx_hal_uart.o(.rev16_text), (4 bytes).
    Removing stm32l0xx_hal_uart.o(.revsh_text), (4 bytes).
    Removing stm32l0xx_hal_uart.o(i.HAL_HalfDuplex_EnableReceiver), (54 bytes).
    Removing stm32l0xx_hal_uart.o(i.HAL_HalfDuplex_EnableTransmitter), (54 bytes).
    Removing stm32l0xx_hal_uart.o(i.HAL_HalfDuplex_Init), (116 bytes).
    Removing stm32l0xx_hal_uart.o(i.HAL_LIN_Init), (146 bytes).
    Removing stm32l0xx_hal_uart.o(i.HAL_LIN_SendBreak), (44 bytes).
    Removing stm32l0xx_hal_uart.o(i.HAL_MultiProcessor_DisableMuteMode), (46 bytes).
==============================================================================

Image Symbol Table

    Local Symbols

    Symbol Name                              Value     Ov Type        Size  Object(Section)

    ../Drivers/STM32L0xx_HAL_Driver/Src/stm32l0xx_hal.c 0x00000000   Number         0  stm32l0xx_hal.o ABSOLUTE
    ../Drivers/STM32L0xx_HAL_Driver/Src/stm32l0xx_hal_cortex.c 0x00000000   Number         0  stm32l0xx_hal_cortex.o ABSOLUTE
    ../Drivers/STM32L0xx_HAL_Driver/Src/stm32l0xx_hal_flash.c 0x00000000   Number         0  stm32l0xx_hal_flash.o ABSOLUTE
    ../Drivers/STM32L0xx_HAL_Driver/Src/stm32l0xx_hal_flash_ex.c 0x00000000   Number         0  stm32l0xx_hal_flash_ex.o ABSOLUTE
    ../Drivers/STM32L0xx_HAL_Driver/Src/stm32l0xx_hal_flash_ramfunc.c 0x00000000   Number         0  stm32l0xx_hal_flash_ramfunc.o ABSOLUTE
    ../Drivers/STM32L0xx_HAL_Driver/Src/stm32l0xx_hal_gpio.c 0x00000000   Number         0  stm32l0xx_hal_gpio.o ABSOLUTE
    ../Drivers/STM32L0xx_HAL_Driver/Src/stm32l0xx_hal_i2c.c 0x00000000   Number         0  stm32l0xx_hal_i2c.o ABSOLUTE
    ../Drivers/STM32L0xx_HAL_Driver/Src/stm32l0xx_hal_i2c_ex.c 0x00000000   Number         0  stm32l0xx_hal_i2c_ex.o ABSOLUTE
    ../Drivers/STM32L0xx_HAL_Driver/Src/stm32l0xx_hal_pwr.c 0x00000000   Number         0  stm32l0xx_hal_pwr.o ABSOLUTE
    ../Drivers/STM32L0xx_HAL_Driver/Src/stm32l0xx_hal_pwr_ex.c 0x00000000   Number         0  stm32l0xx_hal_pwr_ex.o ABSOLUTE
    ../Drivers/STM32L0xx_HAL_Driver/Src/stm32l0xx_hal_rcc.c 0x00000000   Number         0  stm32l0xx_hal_rcc.o ABSOLUTE
    ../Drivers/STM32L0xx_HAL_Driver/Src/stm32l0xx_hal_rcc_ex.c 0x00000000   Number         0  stm32l0xx_hal_rcc_ex.o ABSOLUTE
    ../Drivers/STM32L0xx_HAL_Driver/Src/stm32l0xx_hal_tim.c 0x00000000   Number         0  stm32l0xx_hal_tim.o ABSOLUTE
    ../Drivers/STM32L0xx_HAL_Driver/Src/stm32l0xx_hal_tim_ex.c 0x00000000   Number         0  stm32l0xx_hal_tim_ex.o ABSOLUTE
    ../Drivers/STM32L0xx_HAL_Driver/Src/stm32l0xx_hal_uart.c 0x00000000   Number         0  stm32l0xx_hal_uart.o ABSOLUTE
    ../Drivers/STM32L0xx_HAL_Driver/Src/stm32l0xx_hal_uart_ex.c 0x00000000   Number         0  stm32l0xx_hal_uart_ex.o ABSOLUTE
    ../Src/main.c                            0x00000000   Number         0  main.o ABSOLUTE
    ../Src/stm32l0xx_hal_msp.c               0x00000000   Number         0  stm32l0xx_hal_msp.o ABSOLUTE
    ../Src/stm32l0xx_it.c                    0x00000000   Number         0  stm32l0xx_it.o ABSOLUTE
    ../Src/system_stm32l0xx.c                0x00000000   Number         0  system_stm32l0xx.o ABSOLUTE
    ../clib/microlib/ctype/ctype.c           0x00000000   Number         0  ctype_c.o ABSOLUTE
    ../clib/microlib/ctype/ctype.c           0x00000000   Number         0  isspace_c.o ABSOLUTE
    ../clib/microlib/division.c              0x00000000   Number         0  uidiv.o ABSOLUTE
    ../clib/microlib/division.c              0x00000000   Number         0  uldiv.o ABSOLUTE
    ../clib/microlib/init/entry.s            0x00000000   Number         0  entry11a.o ABSOLUTE
    ../clib/microlib/init/entry.s            0x00000000   Number         0  entry11b.o ABSOLUTE
    ../clib/microlib/init/entry.s            0x00000000   Number         0  entry8a.o ABSOLUTE
    ../clib/microlib/init/entry.s            0x00000000   Number         0  entry2.o ABSOLUTE
    ../clib/microlib/init/entry.s            0x00000000   Number         0  entry5.o ABSOLUTE
    ../clib/microlib/init/entry.s            0x00000000   Number         0  entry7a.o ABSOLUTE
    ../clib/microlib/init/entry.s            0x00000000   Number         0  entry7b.o ABSOLUTE
    ../clib/microlib/init/entry.s            0x00000000   Number         0  entry8b.o ABSOLUTE
    ../clib/microlib/init/entry.s            0x00000000   Number         0  entry.o ABSOLUTE
    ../clib/microlib/init/entry.s            0x00000000   Number         0  entry9a.o ABSOLUTE
    ../clib/microlib/init/entry.s            0x00000000   Number         0  entry9b.o ABSOLUTE
    ../clib/microlib/init/entry.s            0x00000000   Number         0  entry10a.o ABSOLUTE
    ../clib/microlib/init/entry.s            0x00000000   Number         0  entry10b.o ABSOLUTE
    ../clib/microlib/longlong.c              0x00000000   Number         0  llshl.o ABSOLUTE
    ../clib/microlib/longlong.c              0x00000000   Number         0  llsshr.o ABSOLUTE
    ../clib/microlib/longlong.c              0x00000000   Number         0  llushr.o ABSOLUTE
    ../clib/microlib/longlong.c              0x00000000   Number         0  llmul.o ABSOLUTE
    ../clib/microlib/printf/printf.c         0x00000000   Number         0  printf7.o ABSOLUTE
    ../clib/microlib/printf/printf.c         0x00000000   Number         0  printfa.o ABSOLUTE
    ../clib/microlib/printf/printf.c         0x00000000   Number         0  printf8.o ABSOLUTE
    ../clib/microlib/printf/printf.c         0x00000000   Number         0  printf0.o ABSOLUTE
    ../clib/microlib/printf/printf.c         0x00000000   Number         0  printf5.o ABSOLUTE
    ../clib/microlib/printf/printf.c         0x00000000   Number         0  printf4.o ABSOLUTE
    ../clib/microlib/printf/printf.c         0x00000000   Number         0  printfb.o ABSOLUTE
    ../clib/microlib/printf/printf.c         0x00000000   Number         0  printf1.o ABSOLUTE
    ../clib/microlib/printf/printf.c         0x00000000   Number         0  printf2.o ABSOLUTE
    ../clib/microlib/printf/printf.c         0x00000000   Number         0  printf3.o ABSOLUTE
    ../clib/microlib/printf/printf.c         0x00000000   Number         0  printf6.o ABSOLUTE
    ../clib/microlib/printf/stubs.s          0x00000000   Number         0  stubs.o ABSOLUTE
    ../clib/microlib/stdio/streams.c         0x00000000   Number         0  stdout.o ABSOLUTE
    ../clib/microlib/string/memset.c         0x00000000   Number         0  memseta.o ABSOLUTE
    ../clib/microlib/string/strlen.c         0x00000000   Number         0  strlen.o ABSOLUTE
    ../clib/microlib/string/strstr.c         0x00000000   Number         0  strstr.o ABSOLUTE
    ../clib/microlib/stubs.s                 0x00000000   Number         0  iusefp.o ABSOLUTE
    ../clib/scanf.c                          0x00000000   Number         0  scanf_fp.o ABSOLUTE
    ../clib/scanf.c                          0x00000000   Number         0  strtod.o ABSOLUTE
    ../clib/scanf.c                          0x00000000   Number         0  _sgetc.o ABSOLUTE
    ../fplib/microlib/d2f.c                  0x00000000   Number         0  d2f.o ABSOLUTE
    ../fplib/microlib/f2d.c                  0x00000000   Number         0  f2d.o ABSOLUTE
    ../fplib/microlib/fpadd.c                0x00000000   Number         0  dadd.o ABSOLUTE
    ../fplib/microlib/fpdiv.c                0x00000000   Number         0  ddiv.o ABSOLUTE
    ../fplib/microlib/fpepilogue.c           0x00000000   Number         0  depilogue.o ABSOLUTE
    ../fplib/microlib/fpepilogue.c           0x00000000   Number         0  fepilogue.o ABSOLUTE
    ../fplib/microlib/fpfix.c                0x00000000   Number         0  dfixui.o ABSOLUTE
    ../fplib/microlib/fpfix.c                0x00000000   Number         0  dfixul.o ABSOLUTE
    ../fplib/microlib/fpflt.c                0x00000000   Number         0  ffltui.o ABSOLUTE
    ../fplib/microlib/fpflt.c                0x00000000   Number         0  dfltul.o ABSOLUTE
    ../fplib/microlib/fpmul.c                0x00000000   Number         0  dmul.o ABSOLUTE
    ../mathlib/strtod.c                      0x00000000   Number         0  strtod.o ABSOLUTE
    ..\App\ape_mqtt.c                        0x00000000   Number         0  ape_mqtt.o ABSOLUTE
    ..\App\app.c                             0x00000000   Number         0  app.o ABSOLUTE
    ..\App\location.c                        0x00000000   Number         0  location.o ABSOLUTE
    ..\App\update.c                          0x00000000   Number         0  update.o ABSOLUTE
    ..\Drivers\STM32L0xx_HAL_Driver\Src\stm32l0xx_hal.c 0x00000000   Number         0  stm32l0xx_hal.o ABSOLUTE
    ..\Drivers\STM32L0xx_HAL_Driver\Src\stm32l0xx_hal_adc.c 0x00000000   Number         0  stm32l0xx_hal_adc.o ABSOLUTE
    ..\Drivers\STM32L0xx_HAL_Driver\Src\stm32l0xx_hal_adc_ex.c 0x00000000   Number         0  stm32l0xx_hal_adc_ex.o ABSOLUTE
    ..\Drivers\STM32L0xx_HAL_Driver\Src\stm32l0xx_hal_cortex.c 0x00000000   Number         0  stm32l0xx_hal_cortex.o ABSOLUTE
    ..\Drivers\STM32L0xx_HAL_Driver\Src\stm32l0xx_hal_dma.c 0x00000000   Number         0  stm32l0xx_hal_dma.o ABSOLUTE
    ..\Drivers\STM32L0xx_HAL_Driver\Src\stm32l0xx_hal_flash.c 0x00000000   Number         0  stm32l0xx_hal_flash.o ABSOLUTE
    ..\Drivers\STM32L0xx_HAL_Driver\Src\stm32l0xx_hal_flash_ex.c 0x00000000   Number         0  stm32l0xx_hal_flash_ex.o ABSOLUTE
    ..\Drivers\STM32L0xx_HAL_Driver\Src\stm32l0xx_hal_flash_ramfunc.c 0x00000000   Number         0  stm32l0xx_hal_flash_ramfunc.o ABSOLUTE
    ..\Drivers\STM32L0xx_HAL_Driver\Src\stm32l0xx_hal_gpio.c 0x00000000   Number         0  stm32l0xx_hal_gpio.o ABSOLUTE
    ..\Drivers\STM32L0xx_HAL_Driver\Src\stm32l0xx_hal_i2c.c 0x00000000   Number         0  stm32l0xx_hal_i2c.o ABSOLUTE
    ..\Drivers\STM32L0xx_HAL_Driver\Src\stm32l0xx_hal_i2c_ex.c 0x00000000   Number         0  stm32l0xx_hal_i2c_ex.o ABSOLUTE
    ..\Drivers\STM32L0xx_HAL_Driver\Src\stm32l0xx_hal_iwdg.c 0x00000000   Number         0  stm32l0xx_hal_iwdg.o ABSOLUTE
    ..\Drivers\STM32L0xx_HAL_Driver\Src\stm32l0xx_hal_lptim.c 0x00000000   Number         0  stm32l0xx_hal_lptim.o ABSOLUTE
    ..\Drivers\STM32L0xx_HAL_Driver\Src\stm32l0xx_hal_pwr.c 0x00000000   Number         0  stm32l0xx_hal_pwr.o ABSOLUTE
    ..\Drivers\STM32L0xx_HAL_Driver\Src\stm32l0xx_hal_pwr_ex.c 0x00000000   Number         0  stm32l0xx_hal_pwr_ex.o ABSOLUTE
    ..\Drivers\STM32L0xx_HAL_Driver\Src\stm32l0xx_hal_rcc.c 0x00000000   Number         0  stm32l0xx_hal_rcc.o ABSOLUTE
    ..\Drivers\STM32L0xx_HAL_Driver\Src\stm32l0xx_hal_rcc_ex.c 0x00000000   Number         0  stm32l0xx_hal_rcc_ex.o ABSOLUTE
    ..\Drivers\STM32L0xx_HAL_Driver\Src\stm32l0xx_hal_rtc.c 0x00000000   Number         0  stm32l0xx_hal_rtc.o ABSOLUTE
    ..\Drivers\STM32L0xx_HAL_Driver\Src\stm32l0xx_hal_rtc_ex.c 0x00000000   Number         0  stm32l0xx_hal_rtc_ex.o ABSOLUTE
    ..\Drivers\STM32L0xx_HAL_Driver\Src\stm32l0xx_hal_spi.c 0x00000000   Number         0  stm32l0xx_hal_spi.o ABSOLUTE
    ..\Drivers\STM32L0xx_HAL_Driver\Src\stm32l0xx_hal_tim.c 0x00000000   Number         0  stm32l0xx_hal_tim.o ABSOLUTE
    ..\Drivers\STM32L0xx_HAL_Driver\Src\stm32l0xx_hal_tim_ex.c 0x00000000   Number         0  stm32l0xx_hal_tim_ex.o ABSOLUTE
    ..\Drivers\STM32L0xx_HAL_Driver\Src\stm32l0xx_hal_uart.c 0x00000000   Number         0  stm32l0xx_hal_uart.o ABSOLUTE
    ..\Drivers\STM32L0xx_HAL_Driver\Src\stm32l0xx_hal_uart_ex.c 0x00000000   Number         0  stm32l0xx_hal_uart_ex.o ABSOLUTE
    ..\Hardware\Bat.c                        0x00000000   Number         0  bat.o ABSOLUTE
    ..\Hardware\EC800.c                      0x00000000   Number         0  ec800.o ABSOLUTE
    ..\Hardware\L76K.c                       0x00000000   Number         0  l76k.o ABSOLUTE
    ..\Hardware\LIS3DH_SPI.c                 0x00000000   Number         0  lis3dh_spi.o ABSOLUTE
    ..\Hardware\M_sw.c                       0x00000000   Number         0  m_sw.o ABSOLUTE
    ..\Src\main.c                            0x00000000   Number         0  main.o ABSOLUTE
    ..\Src\stm32l0xx_hal_msp.c               0x00000000   Number         0  stm32l0xx_hal_msp.o ABSOLUTE
    ..\Src\stm32l0xx_it.c                    0x00000000   Number         0  stm32l0xx_it.o ABSOLUTE
    ..\Src\system_stm32l0xx.c                0x00000000   Number         0  system_stm32l0xx.o ABSOLUTE
    ..\System\delay\delay.c                  0x00000000   Number         0  delay.o ABSOLUTE
    ..\System\stm_flash.c                    0x00000000   Number         0  stm_flash.o ABSOLUTE
    ..\System\sys\sys.c                      0x00000000   Number         0  sys.o ABSOLUTE
    ..\System\tim.c                          0x00000000   Number         0  tim.o ABSOLUTE
    ..\System\tim1.c                         0x00000000   Number         0  tim1.o ABSOLUTE
    ..\System\usart\usart.c                  0x00000000   Number         0  usart.o ABSOLUTE
    ..\\App\\ape_mqtt.c                      0x00000000   Number         0  ape_mqtt.o ABSOLUTE
    ..\\App\\app.c                           0x00000000   Number         0  app.o ABSOLUTE
    ..\\App\\location.c                      0x00000000   Number         0  location.o ABSOLUTE
    ..\\App\\update.c                        0x00000000   Number         0  update.o ABSOLUTE
    ..\\Drivers\\STM32L0xx_HAL_Driver\\Src\\stm32l0xx_hal_adc.c 0x00000000   Number         0  stm32l0xx_hal_adc.o ABSOLUTE
    ..\\Drivers\\STM32L0xx_HAL_Driver\\Src\\stm32l0xx_hal_adc_ex.c 0x00000000   Number         0  stm32l0xx_hal_adc_ex.o ABSOLUTE
    ..\\Drivers\\STM32L0xx_HAL_Driver\\Src\\stm32l0xx_hal_dma.c 0x00000000   Number         0  stm32l0xx_hal_dma.o ABSOLUTE
    ..\\Drivers\\STM32L0xx_HAL_Driver\\Src\\stm32l0xx_hal_iwdg.c 0x00000000   Number         0  stm32l0xx_hal_iwdg.o ABSOLUTE
    ..\\Drivers\\STM32L0xx_HAL_Driver\\Src\\stm32l0xx_hal_lptim.c 0x00000000   Number         0  stm32l0xx_hal_lptim.o ABSOLUTE
    ..\\Drivers\\STM32L0xx_HAL_Driver\\Src\\stm32l0xx_hal_rtc.c 0x00000000   Number         0  stm32l0xx_hal_rtc.o ABSOLUTE
    ..\\Drivers\\STM32L0xx_HAL_Driver\\Src\\stm32l0xx_hal_rtc_ex.c 0x00000000   Number         0  stm32l0xx_hal_rtc_ex.o ABSOLUTE
    ..\\Drivers\\STM32L0xx_HAL_Driver\\Src\\stm32l0xx_hal_spi.c 0x00000000   Number         0  stm32l0xx_hal_spi.o ABSOLUTE
    ..\\Hardware\\Bat.c                      0x00000000   Number         0  bat.o ABSOLUTE
    ..\\Hardware\\EC800.c                    0x00000000   Number         0  ec800.o ABSOLUTE
    ..\\Hardware\\L76K.c                     0x00000000   Number         0  l76k.o ABSOLUTE
    ..\\Hardware\\LIS3DH_SPI.c               0x00000000   Number         0  lis3dh_spi.o ABSOLUTE
    ..\\Hardware\\M_sw.c                     0x00000000   Number         0  m_sw.o ABSOLUTE
    ..\\System\\delay\\delay.c               0x00000000   Number         0  delay.o ABSOLUTE
    ..\\System\\stm_flash.c                  0x00000000   Number         0  stm_flash.o ABSOLUTE
    ..\\System\\sys\\sys.c                   0x00000000   Number         0  sys.o ABSOLUTE
    ..\\System\\tim.c                        0x00000000   Number         0  tim.o ABSOLUTE
    ..\\System\\tim1.c                       0x00000000   Number         0  tim1.o ABSOLUTE
    ..\\System\\usart\\usart.c               0x00000000   Number         0  usart.o ABSOLUTE
    cdrcmple.s                               0x00000000   Number         0  cdrcmple.o ABSOLUTE
    dc.s                                     0x00000000   Number         0  dc.o ABSOLUTE
    handlers.s                               0x00000000   Number         0  handlers.o ABSOLUTE
    init.s                                   0x00000000   Number         0  init.o ABSOLUTE
    startup_stm32l031xx.s                    0x00000000   Number         0  startup_stm32l031xx.o ABSOLUTE
    RESET                                    0x08002000   Section      192  startup_stm32l031xx.o(RESET)
    .ARM.Collect$$$$00000000                 0x080020c0   Section        0  entry.o(.ARM.Collect$$$$00000000)
    .ARM.Collect$$$$00000001                 0x080020c0   Section        4  entry2.o(.ARM.Collect$$$$00000001)
    .ARM.Collect$$$$00000004                 0x080020c4   Section        4  entry5.o(.ARM.Collect$$$$00000004)
    .ARM.Collect$$$$00000008                 0x080020c8   Section        0  entry7b.o(.ARM.Collect$$$$00000008)
    .ARM.Collect$$$$0000000A                 0x080020c8   Section        0  entry8b.o(.ARM.Collect$$$$0000000A)
    .ARM.Collect$$$$0000000B                 0x080020c8   Section        8  entry9a.o(.ARM.Collect$$$$0000000B)
    .ARM.Collect$$$$0000000D                 0x080020d0   Section        0  entry10a.o(.ARM.Collect$$$$0000000D)
    .ARM.Collect$$$$0000000F                 0x080020d0   Section        0  entry11a.o(.ARM.Collect$$$$0000000F)
    .ARM.Collect$$$$00002712                 0x080020d0   Section        4  entry2.o(.ARM.Collect$$$$00002712)
    __lit__00000000                          0x080020d0   Data           4  entry2.o(.ARM.Collect$$$$00002712)
    .emb_text                                0x080020d4   Section       16  sys.o(.emb_text)
    .text                                    0x080020e4   Section       28  startup_stm32l031xx.o(.text)
    .text                                    0x08002100   Section        0  uidiv.o(.text)
    .text                                    0x0800212c   Section        0  uldiv.o(.text)
    .text                                    0x0800218c   Section        0  memseta.o(.text)
    .text                                    0x080021b0   Section        0  strstr.o(.text)
    .text                                    0x080021d8   Section        0  strlen.o(.text)
    .text                                    0x080021e8   Section        0  dadd.o(.text)
    .text                                    0x0800234c   Section        0  dmul.o(.text)
    .text                                    0x0800241c   Section        0  ffltui.o(.text)
    .text                                    0x0800242c   Section        0  dfixui.o(.text)
    .text                                    0x08002468   Section        0  f2d.o(.text)
    .text                                    0x08002490   Section       40  cdrcmple.o(.text)
    .text                                    0x080024b8   Section        0  d2f.o(.text)
    .text                                    0x080024f0   Section        0  llshl.o(.text)
    .text                                    0x08002510   Section        0  llushr.o(.text)
    .text                                    0x08002532   Section        0  llsshr.o(.text)
    .text                                    0x08002558   Section        0  strtod.o(.text)
    _local_sscanf                            0x08002559   Thumb Code    54  strtod.o(.text)
    .text                                    0x080025fc   Section        0  iusefp.o(.text)
    .text                                    0x080025fc   Section        0  fepilogue.o(.text)
    .text                                    0x0800267e   Section        0  depilogue.o(.text)
    .text                                    0x0800273c   Section        0  ddiv.o(.text)
    .text                                    0x0800282c   Section        0  dfixul.o(.text)
    .text                                    0x0800286c   Section       36  init.o(.text)
    .text                                    0x08002890   Section        0  isspace_c.o(.text)
    .text                                    0x080028a0   Section        0  scanf_fp.o(.text)
    _fp_value                                0x080028a1   Thumb Code   246  scanf_fp.o(.text)
    .text                                    0x08002bec   Section        0  _sgetc.o(.text)
    .text                                    0x08002c30   Section        0  llmul.o(.text)
    .text                                    0x08002cac   Section        0  ctype_c.o(.text)
    .text                                    0x08002cd0   Section        0  dfltul.o(.text)
    i.A0_Cmd_Handle                          0x08002cec   Section        0  app.o(i.A0_Cmd_Handle)
    i.A1_Cmd_hander                          0x08002d74   Section        0  app.o(i.A1_Cmd_hander)
    i.A9_Cmd_Hander                          0x08002d98   Section        0  app.o(i.A9_Cmd_Hander)
    i.ADC_ConversionStop                     0x08002dc4   Section        0  stm32l0xx_hal_adc.o(i.ADC_ConversionStop)
    ADC_ConversionStop                       0x08002dc5   Thumb Code    82  stm32l0xx_hal_adc.o(i.ADC_ConversionStop)
    i.ADC_DelayMicroSecond                   0x08002e18   Section        0  stm32l0xx_hal_adc.o(i.ADC_DelayMicroSecond)
    ADC_DelayMicroSecond                     0x08002e19   Thumb Code    28  stm32l0xx_hal_adc.o(i.ADC_DelayMicroSecond)
    i.ADC_Disable                            0x08002e3c   Section        0  stm32l0xx_hal_adc.o(i.ADC_Disable)
    ADC_Disable                              0x08002e3d   Thumb Code    96  stm32l0xx_hal_adc.o(i.ADC_Disable)
    i.ADC_Enable                             0x08002e9c   Section        0  stm32l0xx_hal_adc.o(i.ADC_Enable)
    ADC_Enable                               0x08002e9d   Thumb Code    96  stm32l0xx_hal_adc.o(i.ADC_Enable)
    i.APE_Mqtt_Connect                       0x08002f00   Section        0  ape_mqtt.o(i.APE_Mqtt_Connect)
    i.APE_Pub_Queue_handler                  0x08002ff4   Section        0  ape_mqtt.o(i.APE_Pub_Queue_handler)
    i.APE_Queue_Pub                          0x08003070   Section        0  ape_mqtt.o(i.APE_Queue_Pub)
    i.Adc_To_Bq                              0x080030d8   Section        0  bat.o(i.Adc_To_Bq)
    i.Ape_Hander                             0x08003124   Section        0  app.o(i.Ape_Hander)
    i.Ape_Send                               0x080031f4   Section        0  ape_mqtt.o(i.Ape_Send)
    i.App_Info_Save                          0x0800325c   Section        0  update.o(i.App_Info_Save)
    i.App_Start                              0x08003290   Section        0  app.o(i.App_Start)
    i.BDS_Dev_Handle                         0x080032b4   Section        0  app.o(i.BDS_Dev_Handle)
    i.Bat_Config                             0x080033b4   Section        0  bat.o(i.Bat_Config)
    i.Bat_Meausure                           0x0800344c   Section        0  app.o(i.Bat_Meausure)
    i.C0_Cmd_Hander                          0x080034c4   Section        0  app.o(i.C0_Cmd_Hander)
    i.C1_Hander                              0x0800354c   Section        0  app.o(i.C1_Hander)
    i.C2_Hander                              0x0800363c   Section        0  app.o(i.C2_Hander)
    i.C5_C7_Hander                           0x080036cc   Section        0  app.o(i.C5_C7_Hander)
    i.C6_Hander                              0x08003794   Section        0  app.o(i.C6_Hander)
    i.Cal_Acc                                0x080037fc   Section        0  lis3dh_spi.o(i.Cal_Acc)
    i.Cat1_AT_CGSN                           0x08003810   Section        0  ec800.o(i.Cat1_AT_CGSN)
    i.Cat1_AT_CSQ                            0x08003864   Section        0  ec800.o(i.Cat1_AT_CSQ)
    i.Cat1_AT_QCCID                          0x080038c0   Section        0  ec800.o(i.Cat1_AT_QCCID)
    i.Cat1_AT_QLTS                           0x08003928   Section        0  ec800.o(i.Cat1_AT_QLTS)
    i.Cat1_AT_QNWINFO                        0x080039ac   Section        0  ec800.o(i.Cat1_AT_QNWINFO)
    i.Cat1_AT_QSCLK                          0x08003a0c   Section        0  ec800.o(i.Cat1_AT_QSCLK)
    i.Cat1_PWR_Off                           0x08003a40   Section        0  ec800.o(i.Cat1_PWR_Off)
    i.Cat1_PWR_On                            0x08003a60   Section        0  ec800.o(i.Cat1_PWR_On)
    i.Cat1_Power_Off                         0x08003a84   Section        0  ec800.o(i.Cat1_Power_Off)
    i.Cat1_Power_On                          0x08003b24   Section        0  ec800.o(i.Cat1_Power_On)
    i.Cat1_Send                              0x08003bf8   Section        0  ec800.o(i.Cat1_Send)
    i.EC800_Config                           0x08003cfc   Section        0  ec800.o(i.EC800_Config)
    i.FLASH_PageErase                        0x08003d8c   Section        0  stm32l0xx_hal_flash_ex.o(i.FLASH_PageErase)
    i.FLASH_SetErrorCode                     0x08003db8   Section        0  stm32l0xx_hal_flash.o(i.FLASH_SetErrorCode)
    FLASH_SetErrorCode                       0x08003db9   Thumb Code   134  stm32l0xx_hal_flash.o(i.FLASH_SetErrorCode)
    i.FLASH_WaitForLastOperation             0x08003e48   Section        0  stm32l0xx_hal_flash.o(i.FLASH_WaitForLastOperation)
    i.Flash_Page_Read                        0x08003eb8   Section        0  stm_flash.o(i.Flash_Page_Read)
    i.Flash_Write                            0x08003ed2   Section        0  stm_flash.o(i.Flash_Write)
    i.Get_Adc_Average                        0x08003f50   Section        0  bat.o(i.Get_Adc_Average)
    i.HAL_ADCEx_Calibration_Start            0x08003fb0   Section        0  stm32l0xx_hal_adc_ex.o(i.HAL_ADCEx_Calibration_Start)
    i.HAL_ADC_ConfigChannel                  0x0800405c   Section        0  stm32l0xx_hal_adc.o(i.HAL_ADC_ConfigChannel)
    i.HAL_ADC_GetValue                       0x080040f0   Section        0  stm32l0xx_hal_adc.o(i.HAL_ADC_GetValue)
    i.HAL_ADC_Init                           0x080040f8   Section        0  stm32l0xx_hal_adc.o(i.HAL_ADC_Init)
    i.HAL_ADC_MspInit                        0x080042c0   Section        0  stm32l0xx_hal_adc.o(i.HAL_ADC_MspInit)
    i.HAL_ADC_PollForConversion              0x080042c2   Section        0  stm32l0xx_hal_adc.o(i.HAL_ADC_PollForConversion)
    i.HAL_ADC_Start                          0x08004384   Section        0  stm32l0xx_hal_adc.o(i.HAL_ADC_Start)
    i.HAL_ADC_Stop                           0x080043e0   Section        0  stm32l0xx_hal_adc.o(i.HAL_ADC_Stop)
    i.HAL_DMA_Abort_IT                       0x0800441e   Section        0  stm32l0xx_hal_dma.o(i.HAL_DMA_Abort_IT)
    i.HAL_FLASHEx_Erase                      0x0800446c   Section        0  stm32l0xx_hal_flash_ex.o(i.HAL_FLASHEx_Erase)
    i.HAL_FLASH_Lock                         0x080044e0   Section        0  stm32l0xx_hal_flash.o(i.HAL_FLASH_Lock)
    i.HAL_FLASH_Program                      0x080044fc   Section        0  stm32l0xx_hal_flash.o(i.HAL_FLASH_Program)
    i.HAL_FLASH_Unlock                       0x08004538   Section        0  stm32l0xx_hal_flash.o(i.HAL_FLASH_Unlock)
    i.HAL_GPIO_Init                          0x08004594   Section        0  stm32l0xx_hal_gpio.o(i.HAL_GPIO_Init)
    i.HAL_GPIO_WritePin                      0x080046e0   Section        0  stm32l0xx_hal_gpio.o(i.HAL_GPIO_WritePin)
    i.HAL_GetTick                            0x080046ec   Section        0  stm32l0xx_hal.o(i.HAL_GetTick)
    i.HAL_IncTick                            0x080046f8   Section        0  stm32l0xx_hal.o(i.HAL_IncTick)
    i.HAL_InitTick                           0x08004708   Section        0  stm32l0xx_hal.o(i.HAL_InitTick)
    i.HAL_LPTIM_AutoReloadMatchCallback      0x0800474c   Section        0  stm32l0xx_hal_lptim.o(i.HAL_LPTIM_AutoReloadMatchCallback)
    i.HAL_LPTIM_AutoReloadWriteCallback      0x0800474e   Section        0  stm32l0xx_hal_lptim.o(i.HAL_LPTIM_AutoReloadWriteCallback)
    i.HAL_LPTIM_CompareMatchCallback         0x08004750   Section        0  tim1.o(i.HAL_LPTIM_CompareMatchCallback)
    i.HAL_LPTIM_CompareWriteCallback         0x08004768   Section        0  stm32l0xx_hal_lptim.o(i.HAL_LPTIM_CompareWriteCallback)
    i.HAL_LPTIM_DirectionDownCallback        0x0800476a   Section        0  stm32l0xx_hal_lptim.o(i.HAL_LPTIM_DirectionDownCallback)
    i.HAL_LPTIM_DirectionUpCallback          0x0800476c   Section        0  stm32l0xx_hal_lptim.o(i.HAL_LPTIM_DirectionUpCallback)
    i.HAL_LPTIM_IRQHandler                   0x0800476e   Section        0  stm32l0xx_hal_lptim.o(i.HAL_LPTIM_IRQHandler)
    i.HAL_LPTIM_Init                         0x08004838   Section        0  stm32l0xx_hal_lptim.o(i.HAL_LPTIM_Init)
    i.HAL_LPTIM_MspInit                      0x080048d8   Section        0  tim1.o(i.HAL_LPTIM_MspInit)
    i.HAL_LPTIM_TimeOut_Start_IT             0x08004908   Section        0  stm32l0xx_hal_lptim.o(i.HAL_LPTIM_TimeOut_Start_IT)
    i.HAL_LPTIM_TimeOut_Stop_IT              0x08004958   Section        0  stm32l0xx_hal_lptim.o(i.HAL_LPTIM_TimeOut_Stop_IT)
    i.HAL_LPTIM_TriggerCallback              0x08004998   Section        0  stm32l0xx_hal_lptim.o(i.HAL_LPTIM_TriggerCallback)
    i.HAL_NVIC_EnableIRQ                     0x0800499c   Section        0  stm32l0xx_hal_cortex.o(i.HAL_NVIC_EnableIRQ)
    i.HAL_NVIC_SetPriority                   0x080049b0   Section        0  stm32l0xx_hal_cortex.o(i.HAL_NVIC_SetPriority)
    i.HAL_NVIC_SystemReset                   0x080049b8   Section        0  stm32l0xx_hal_cortex.o(i.HAL_NVIC_SystemReset)
    i.HAL_PWR_EnterSTOPMode                  0x080049d4   Section        0  stm32l0xx_hal_pwr.o(i.HAL_PWR_EnterSTOPMode)
    i.HAL_RCCEx_PeriphCLKConfig              0x08004a08   Section        0  stm32l0xx_hal_rcc_ex.o(i.HAL_RCCEx_PeriphCLKConfig)
    i.HAL_RCC_ClockConfig                    0x08004b68   Section        0  stm32l0xx_hal_rcc.o(i.HAL_RCC_ClockConfig)
    i.HAL_RCC_GetPCLK1Freq                   0x08004cd4   Section        0  stm32l0xx_hal_rcc.o(i.HAL_RCC_GetPCLK1Freq)
    i.HAL_RCC_GetPCLK2Freq                   0x08004cf4   Section        0  stm32l0xx_hal_rcc.o(i.HAL_RCC_GetPCLK2Freq)
    i.HAL_RCC_GetSysClockFreq                0x08004d14   Section        0  stm32l0xx_hal_rcc.o(i.HAL_RCC_GetSysClockFreq)
    i.HAL_RCC_OscConfig                      0x08004d90   Section        0  stm32l0xx_hal_rcc.o(i.HAL_RCC_OscConfig)
    i.HAL_SPI_Init                           0x080051b8   Section        0  stm32l0xx_hal_spi.o(i.HAL_SPI_Init)
    i.HAL_SPI_MspInit                        0x0800522e   Section        0  stm32l0xx_hal_spi.o(i.HAL_SPI_MspInit)
    i.HAL_SPI_Receive                        0x08005230   Section        0  stm32l0xx_hal_spi.o(i.HAL_SPI_Receive)
    i.HAL_SPI_Transmit                       0x08005376   Section        0  stm32l0xx_hal_spi.o(i.HAL_SPI_Transmit)
    i.HAL_SPI_TransmitReceive                0x080054d2   Section        0  stm32l0xx_hal_spi.o(i.HAL_SPI_TransmitReceive)
    i.HAL_SYSTICK_Config                     0x080056bc   Section        0  stm32l0xx_hal_cortex.o(i.HAL_SYSTICK_Config)
    i.HAL_TIM_Base_Init                      0x080056ec   Section        0  stm32l0xx_hal_tim.o(i.HAL_TIM_Base_Init)
    i.HAL_TIM_Base_MspInit                   0x08005720   Section        0  tim.o(i.HAL_TIM_Base_MspInit)
    i.HAL_TIM_Base_Start_IT                  0x0800574c   Section        0  stm32l0xx_hal_tim.o(i.HAL_TIM_Base_Start_IT)
    i.HAL_TIM_Base_Stop_IT                   0x0800576c   Section        0  stm32l0xx_hal_tim.o(i.HAL_TIM_Base_Stop_IT)
    i.HAL_TIM_IC_CaptureCallback             0x08005790   Section        0  stm32l0xx_hal_tim.o(i.HAL_TIM_IC_CaptureCallback)
    i.HAL_TIM_IRQHandler                     0x08005792   Section        0  stm32l0xx_hal_tim.o(i.HAL_TIM_IRQHandler)
    i.HAL_TIM_OC_DelayElapsedCallback        0x080058b8   Section        0  stm32l0xx_hal_tim.o(i.HAL_TIM_OC_DelayElapsedCallback)
    i.HAL_TIM_PWM_PulseFinishedCallback      0x080058ba   Section        0  stm32l0xx_hal_tim.o(i.HAL_TIM_PWM_PulseFinishedCallback)
    i.HAL_TIM_PeriodElapsedCallback          0x080058bc   Section        0  tim.o(i.HAL_TIM_PeriodElapsedCallback)
    i.HAL_TIM_TriggerCallback                0x08005938   Section        0  stm32l0xx_hal_tim.o(i.HAL_TIM_TriggerCallback)
    i.HAL_UARTEx_WakeupCallback              0x0800593a   Section        0  stm32l0xx_hal_uart_ex.o(i.HAL_UARTEx_WakeupCallback)
    i.HAL_UART_ErrorCallback                 0x0800593c   Section        0  stm32l0xx_hal_uart.o(i.HAL_UART_ErrorCallback)
    i.HAL_UART_IRQHandler                    0x08005940   Section        0  stm32l0xx_hal_uart.o(i.HAL_UART_IRQHandler)
    i.HAL_UART_Init                          0x08005a7c   Section        0  stm32l0xx_hal_uart.o(i.HAL_UART_Init)
    i.HAL_UART_MspInit                       0x08005ae6   Section        0  stm32l0xx_hal_uart.o(i.HAL_UART_MspInit)
    i.HAL_UART_TxCpltCallback                0x08005ae8   Section        0  stm32l0xx_hal_uart.o(i.HAL_UART_TxCpltCallback)
    i.HardFault_Handler                      0x08005aea   Section        0  stm32l0xx_it.o(i.HardFault_Handler)
    i.L76K_Config                            0x08005af0   Section        0  l76k.o(i.L76K_Config)
    i.L76K_Data_Decode                       0x08005b18   Section        0  l76k.o(i.L76K_Data_Decode)
    i.LPTIM1_IRQHandler                      0x08005c14   Section        0  tim1.o(i.LPTIM1_IRQHandler)
    i.LPTIM1_Init                            0x08005c24   Section        0  tim1.o(i.LPTIM1_Init)
    i.LPTIM1_Start                           0x08005c64   Section        0  tim1.o(i.LPTIM1_Start)
    i.LPTIM1_Stop                            0x08005c7c   Section        0  tim1.o(i.LPTIM1_Stop)
    i.LPTIM_Disable                          0x08005c8c   Section        0  stm32l0xx_hal_lptim.o(i.LPTIM_Disable)
    i.LPUART1_DeInit                         0x08005d84   Section        0  usart.o(i.LPUART1_DeInit)
    i.LPUART1_IRQHandler                     0x08005dbc   Section        0  usart.o(i.LPUART1_IRQHandler)
    i.LPUART1_Init                           0x08005e54   Section        0  usart.o(i.LPUART1_Init)
    i.Lis3dh_Init                            0x08005ed8   Section        0  lis3dh_spi.o(i.Lis3dh_Init)
    i.Lis3dh_Read_WhoAmI                     0x08005f7c   Section        0  lis3dh_spi.o(i.Lis3dh_Read_WhoAmI)
    i.Lis3dh_SPI_Read                        0x08005f88   Section        0  lis3dh_spi.o(i.Lis3dh_SPI_Read)
    i.Lis3dh_SPI_Write                       0x08005fdc   Section        0  lis3dh_spi.o(i.Lis3dh_SPI_Write)
    i.Loc_AT_Set_Token                       0x08006030   Section        0  location.o(i.Loc_AT_Set_Token)
    i.Loc_Get_Data                           0x0800607c   Section        0  location.o(i.Loc_Get_Data)
    i.Low_Power_Hander                       0x08006110   Section        0  app.o(i.Low_Power_Hander)
    i.M_Sw_Config                            0x080061e0   Section        0  m_sw.o(i.M_Sw_Config)
    i.Mpu_Samle                              0x08006240   Section        0  app.o(i.Mpu_Samle)
    i.Mqtt_QMTCONN                           0x08006470   Section        0  ape_mqtt.o(i.Mqtt_QMTCONN)
    i.Mqtt_QMTOPEN                           0x080064f0   Section        0  ape_mqtt.o(i.Mqtt_QMTOPEN)
    i.Mqtt_QMTPUBEX                          0x0800657c   Section        0  ape_mqtt.o(i.Mqtt_QMTPUBEX)
    i.NMI_Handler                            0x0800665c   Section        0  stm32l0xx_it.o(i.NMI_Handler)
    i.NVIC_SetPriority                       0x08006660   Section        0  stm32l0xx_hal_cortex.o(i.NVIC_SetPriority)
    NVIC_SetPriority                         0x08006661   Thumb Code    60  stm32l0xx_hal_cortex.o(i.NVIC_SetPriority)
    i.PendSV_Handler                         0x080066a4   Section        0  stm32l0xx_it.o(i.PendSV_Handler)
    i.Power_On_Loc_Hander                    0x080066a8   Section        0  location.o(i.Power_On_Loc_Hander)
    i.Read_CTRL_REG1                         0x080067c4   Section        0  lis3dh_spi.o(i.Read_CTRL_REG1)
    i.Read_OUT_X                             0x080067ce   Section        0  lis3dh_spi.o(i.Read_OUT_X)
    i.Read_OUT_Y                             0x080067e2   Section        0  lis3dh_spi.o(i.Read_OUT_Y)
    i.Read_OUT_Z                             0x080067f6   Section        0  lis3dh_spi.o(i.Read_OUT_Z)
    i.SPI_EndRxTransaction                   0x0800680a   Section        0  stm32l0xx_hal_spi.o(i.SPI_EndRxTransaction)
    SPI_EndRxTransaction                     0x0800680b   Thumb Code    92  stm32l0xx_hal_spi.o(i.SPI_EndRxTransaction)
    i.SPI_EndRxTxTransaction                 0x08006866   Section        0  stm32l0xx_hal_spi.o(i.SPI_EndRxTxTransaction)
    SPI_EndRxTxTransaction                   0x08006867   Thumb Code    66  stm32l0xx_hal_spi.o(i.SPI_EndRxTxTransaction)
    i.SPI_WaitFlagStateUntilTimeout          0x080068a8   Section        0  stm32l0xx_hal_spi.o(i.SPI_WaitFlagStateUntilTimeout)
    SPI_WaitFlagStateUntilTimeout            0x080068a9   Thumb Code   140  stm32l0xx_hal_spi.o(i.SPI_WaitFlagStateUntilTimeout)
    i.SVC_Handler                            0x08006934   Section        0  stm32l0xx_it.o(i.SVC_Handler)
    i.Sub_Cmd_Get                            0x08006938   Section        0  app.o(i.Sub_Cmd_Get)
    i.Sub_Cmd_Handle                         0x080069d8   Section        0  app.o(i.Sub_Cmd_Handle)
    i.Sub_Powen_On                           0x08006b6c   Section        0  app.o(i.Sub_Powen_On)
    i.SysTick_Handler                        0x08006bc4   Section        0  stm32l0xx_it.o(i.SysTick_Handler)
    i.SystemClock_Config                     0x08006bcc   Section        0  sys.o(i.SystemClock_Config)
    i.SystemInit                             0x08006c58   Section        0  system_stm32l0xx.o(i.SystemInit)
    i.TIM2_IRQHandler                        0x08006cac   Section        0  tim.o(i.TIM2_IRQHandler)
    i.TIM2_Init                              0x08006cbc   Section        0  tim.o(i.TIM2_Init)
    i.TIM_Base_SetConfig                     0x08006ce4   Section        0  stm32l0xx_hal_tim.o(i.TIM_Base_SetConfig)
    TIM_Base_SetConfig                       0x08006ce5   Thumb Code    78  stm32l0xx_hal_tim.o(i.TIM_Base_SetConfig)
    i.UART_AdvFeatureConfig                  0x08006d3c   Section        0  stm32l0xx_hal_uart.o(i.UART_AdvFeatureConfig)
    i.UART_CheckIdleState                    0x08006e08   Section        0  stm32l0xx_hal_uart.o(i.UART_CheckIdleState)
    i.UART_DMAAbortOnError                   0x08006e68   Section        0  stm32l0xx_hal_uart.o(i.UART_DMAAbortOnError)
    UART_DMAAbortOnError                     0x08006e69   Thumb Code    20  stm32l0xx_hal_uart.o(i.UART_DMAAbortOnError)
    i.UART_EndRxTransfer                     0x08006e7c   Section        0  stm32l0xx_hal_uart.o(i.UART_EndRxTransfer)
    UART_EndRxTransfer                       0x08006e7d   Thumb Code    32  stm32l0xx_hal_uart.o(i.UART_EndRxTransfer)
    i.UART_SetConfig                         0x08006e9c   Section        0  stm32l0xx_hal_uart.o(i.UART_SetConfig)
    i.UART_WaitOnFlagUntilTimeout            0x080070a4   Section        0  stm32l0xx_hal_uart.o(i.UART_WaitOnFlagUntilTimeout)
    i.USART2_DeInit                          0x08007104   Section        0  usart.o(i.USART2_DeInit)
    i.USART2_IRQHandler                      0x0800713c   Section        0  usart.o(i.USART2_IRQHandler)
    i.USART2_Init                            0x08007190   Section        0  usart.o(i.USART2_Init)
    i.Update_Init                            0x08007218   Section        0  update.o(i.Update_Init)
    i.Usart2Send                             0x080072ac   Section        0  usart.o(i.Usart2Send)
    i.Write_CTRL_REG1                        0x080072cc   Section        0  lis3dh_spi.o(i.Write_CTRL_REG1)
    i.__0printf                              0x080072dc   Section        0  printfa.o(i.__0printf)
    i.__0sprintf                             0x080072fc   Section        0  printfa.o(i.__0sprintf)
    i.__ARM_clz                              0x08007324   Section        0  depilogue.o(i.__ARM_clz)
    i.__ARM_common_switch8                   0x08007352   Section        0  stm32l0xx_hal_uart.o(i.__ARM_common_switch8)
    i.__scatterload_copy                     0x0800736c   Section       14  handlers.o(i.__scatterload_copy)
    i.__scatterload_null                     0x0800737a   Section        2  handlers.o(i.__scatterload_null)
    i.__scatterload_zeroinit                 0x0800737c   Section       14  handlers.o(i.__scatterload_zeroinit)
    i._fp_digits                             0x0800738c   Section        0  printfa.o(i._fp_digits)
    _fp_digits                               0x0800738d   Thumb Code   316  printfa.o(i._fp_digits)
    i._is_digit                              0x080074e4   Section        0  scanf_fp.o(i._is_digit)
    i._printf_core                           0x080074f4   Section        0  printfa.o(i._printf_core)
    _printf_core                             0x080074f5   Thumb Code  1754  printfa.o(i._printf_core)
    i._printf_post_padding                   0x08007be0   Section        0  printfa.o(i._printf_post_padding)
    _printf_post_padding                     0x08007be1   Thumb Code    32  printfa.o(i._printf_post_padding)
    i._printf_pre_padding                    0x08007c00   Section        0  printfa.o(i._printf_pre_padding)
    _printf_pre_padding                      0x08007c01   Thumb Code    44  printfa.o(i._printf_pre_padding)
    i._sputc                                 0x08007c2c   Section        0  printfa.o(i._sputc)
    _sputc                                   0x08007c2d   Thumb Code    10  printfa.o(i._sputc)
    i.delay_ms                               0x08007c36   Section        0  delay.o(i.delay_ms)
    i.delay_us                               0x08007c46   Section        0  delay.o(i.delay_us)
    i.fputc                                  0x08007c50   Section        0  usart.o(i.fputc)
    i.main                                   0x08007c64   Section        0  main.o(i.main)
    i.strtod                                 0x08007d44   Section        0  strtod.o(i.strtod)
    .constdata                               0x08007d60   Section       25  system_stm32l0xx.o(.constdata)
    .constdata                               0x08007d79   Section        8  system_stm32l0xx.o(.constdata)
    .constdata                               0x08007d81   Section       64  ctype_c.o(.constdata)
    .conststring                             0x08007dc4   Section       87  app.o(.conststring)
    .data                                    0x20000000   Section       12  stm32l0xx_hal.o(.data)
    .data                                    0x2000000c   Section        4  system_stm32l0xx.o(.data)
    .data                                    0x20000010   Section        8  usart.o(.data)
    .data                                    0x20000018   Section        2  tim.o(.data)
    .data                                    0x2000001a   Section        2  tim1.o(.data)
    .data                                    0x2000001c   Section        4  m_sw.o(.data)
    .data                                    0x20000020   Section        2  m_sw.o(.data)
    .data                                    0x20000024   Section        4  ec800.o(.data)
    .data                                    0x20000028   Section        4  l76k.o(.data)
    .data                                    0x2000002c   Section       16  ape_mqtt.o(.data)
    idx                                      0x2000002d   Data           1  ape_mqtt.o(.data)
    msg_id                                   0x2000002e   Data           2  ape_mqtt.o(.data)
    wait_start_time                          0x20000034   Data           4  ape_mqtt.o(.data)
    need_wait_time                           0x20000038   Data           4  ape_mqtt.o(.data)
    .data                                    0x2000003c   Section      120  app.o(.data)
    gps_pwr_state                            0x20000045   Data           1  app.o(.data)
    sample_count                             0x20000046   Data           1  app.o(.data)
    have_send_flag                           0x20000047   Data           1  app.o(.data)
    send_c1_flag                             0x20000048   Data           1  app.o(.data)
    send_c1_bds_date_flag                    0x20000049   Data           1  app.o(.data)
    c2_motion_flag                           0x2000004a   Data           1  app.o(.data)
    exit_sleep_flag                          0x2000004b   Data           1  app.o(.data)
    bds_time                                 0x2000006c   Data           4  app.o(.data)
    bds_get_start_time                       0x20000070   Data           4  app.o(.data)
    last_sample_time                         0x20000074   Data           4  app.o(.data)
    send_success_time                        0x20000078   Data           4  app.o(.data)
    send_success_time                        0x2000007c   Data           4  app.o(.data)
    last_upload_time                         0x20000080   Data           4  app.o(.data)
    heart_interval                           0x20000084   Data           4  app.o(.data)
    previous_heart_time                      0x20000088   Data           4  app.o(.data)
    exit_sleep_time                          0x2000008c   Data           4  app.o(.data)
    enter_sleep_time                         0x20000090   Data           4  app.o(.data)
    .data                                    0x200000b4   Section        4  update.o(.data)
    .data                                    0x200000b8   Section        4  location.o(.data)
    .data                                    0x200000bc   Section        4  stdout.o(.data)
    .bss                                     0x200000c0   Section       24  stm32l0xx_hal_flash.o(.bss)
    .bss                                     0x200000d8   Section      256  usart.o(.bss)
    .bss                                     0x200001d8   Section      132  usart.o(.bss)
    .bss                                     0x2000025c   Section      258  usart.o(.bss)
    .bss                                     0x20000360   Section       60  tim.o(.bss)
    .bss                                     0x2000039c   Section       48  tim1.o(.bss)
    .bss                                     0x200003cc   Section       92  bat.o(.bss)
    .bss                                     0x20000428   Section       88  lis3dh_spi.o(.bss)
    .bss                                     0x20000480   Section       38  ec800.o(.bss)
    .bss                                     0x200004a6   Section       48  l76k.o(.bss)
    .bss                                     0x200004d8   Section     4712  ape_mqtt.o(.bss)
    .bss                                     0x20001740   Section      149  app.o(.bss)
    bat_volt                                 0x20001740   Data          10  app.o(.bss)
    .bss                                     0x200017d8   Section      176  app.o(.bss)
    .bss                                     0x20001888   Section       21  update.o(.bss)
    .bss                                     0x2000189d   Section      128  update.o(.bss)
    .bss                                     0x20001920   Section       24  location.o(.bss)
    STACK                                    0x20001938   Section     1024  startup_stm32l031xx.o(STACK)

    Global Symbols

    Symbol Name                              Value     Ov Type        Size  Object(Section)

    BuildAttributes$$THM_ISAv3M$S$PE$A:L22$X:L11$S22$IEEE1$IW$USESV6$~STKCKD$USESV7$~SHL$OTIME$ROPI$IEEEJ$EBA8$MICROLIB$REQ8$PRES8$EABIv2 0x00000000   Number         0  anon$$obj.o ABSOLUTE
    __ARM_use_no_argv                        0x00000000   Number         0  main.o ABSOLUTE
    _printf_a                                0x00000000   Number         0  stubs.o ABSOLUTE
    _printf_c                                0x00000000   Number         0  stubs.o ABSOLUTE
    _printf_charcount                        0x00000000   Number         0  stubs.o ABSOLUTE
    _printf_d                                0x00000000   Number         0  stubs.o ABSOLUTE
    _printf_e                                0x00000000   Number         0  stubs.o ABSOLUTE
    _printf_f                                0x00000000   Number         0  stubs.o ABSOLUTE
    _printf_flags                            0x00000000   Number         0  stubs.o ABSOLUTE
    _printf_fp_dec                           0x00000000   Number         0  stubs.o ABSOLUTE
    _printf_fp_hex                           0x00000000   Number         0  stubs.o ABSOLUTE
    _printf_g                                0x00000000   Number         0  stubs.o ABSOLUTE
    _printf_i                                0x00000000   Number         0  stubs.o ABSOLUTE
    _printf_int_dec                          0x00000000   Number         0  stubs.o ABSOLUTE
    _printf_l                                0x00000000   Number         0  stubs.o ABSOLUTE
    _printf_lc                               0x00000000   Number         0  stubs.o ABSOLUTE
    _printf_ll                               0x00000000   Number         0  stubs.o ABSOLUTE
    _printf_lld                              0x00000000   Number         0  stubs.o ABSOLUTE
    _printf_lli                              0x00000000   Number         0  stubs.o ABSOLUTE
    _printf_llo                              0x00000000   Number         0  stubs.o ABSOLUTE
    _printf_llu                              0x00000000   Number         0  stubs.o ABSOLUTE
    _printf_llx                              0x00000000   Number         0  stubs.o ABSOLUTE
    _printf_longlong_dec                     0x00000000   Number         0  stubs.o ABSOLUTE
    _printf_longlong_hex                     0x00000000   Number         0  stubs.o ABSOLUTE
    _printf_longlong_oct                     0x00000000   Number         0  stubs.o ABSOLUTE
    _printf_ls                               0x00000000   Number         0  stubs.o ABSOLUTE
    _printf_mbtowc                           0x00000000   Number         0  stubs.o ABSOLUTE
    _printf_n                                0x00000000   Number         0  stubs.o ABSOLUTE
    _printf_o                                0x00000000   Number         0  stubs.o ABSOLUTE
    _printf_p                                0x00000000   Number         0  stubs.o ABSOLUTE
    _printf_percent                          0x00000000   Number         0  stubs.o ABSOLUTE
    _printf_pre_padding                      0x00000000   Number         0  stubs.o ABSOLUTE
    _printf_return_value                     0x00000000   Number         0  stubs.o ABSOLUTE
    _printf_s                                0x00000000   Number         0  stubs.o ABSOLUTE
    _printf_sizespec                         0x00000000   Number         0  stubs.o ABSOLUTE
    _printf_str                              0x00000000   Number         0  stubs.o ABSOLUTE
    _printf_truncate_signed                  0x00000000   Number         0  stubs.o ABSOLUTE
    _printf_truncate_unsigned                0x00000000   Number         0  stubs.o ABSOLUTE
    _printf_u                                0x00000000   Number         0  stubs.o ABSOLUTE
    _printf_wc                               0x00000000   Number         0  stubs.o ABSOLUTE
    _printf_wctomb                           0x00000000   Number         0  stubs.o ABSOLUTE
    _printf_widthprec                        0x00000000   Number         0  stubs.o ABSOLUTE
    _printf_x                                0x00000000   Number         0  stubs.o ABSOLUTE
    __cpp_initialize__aeabi_                  - Undefined Weak Reference
    __cxa_finalize                            - Undefined Weak Reference
    __decompress                              - Undefined Weak Reference
    _clock_init                               - Undefined Weak Reference
    _microlib_exit                            - Undefined Weak Reference
    __Vectors_Size                           0x000000c0   Number         0  startup_stm32l031xx.o ABSOLUTE
    __Vectors                                0x08002000   Data           4  startup_stm32l031xx.o(RESET)
    __Vectors_End                            0x080020c0   Data           0  startup_stm32l031xx.o(RESET)
    __main                                   0x080020c1   Thumb Code     0  entry.o(.ARM.Collect$$$$00000000)
    _main_stk                                0x080020c1   Thumb Code     0  entry2.o(.ARM.Collect$$$$00000001)
    _main_scatterload                        0x080020c5   Thumb Code     0  entry5.o(.ARM.Collect$$$$00000004)
    __main_after_scatterload                 0x080020c9   Thumb Code     0  entry5.o(.ARM.Collect$$$$00000004)
    _main_clock                              0x080020c9   Thumb Code     0  entry7b.o(.ARM.Collect$$$$00000008)
    _main_cpp_init                           0x080020c9   Thumb Code     0  entry8b.o(.ARM.Collect$$$$0000000A)
    _main_init                               0x080020c9   Thumb Code     0  entry9a.o(.ARM.Collect$$$$0000000B)
    __rt_final_cpp                           0x080020d1   Thumb Code     0  entry10a.o(.ARM.Collect$$$$0000000D)
    __rt_final_exit                          0x080020d1   Thumb Code     0  entry11a.o(.ARM.Collect$$$$0000000F)
    WFI_SET                                  0x080020d5   Thumb Code     2  sys.o(.emb_text)
    INTX_DISABLE                             0x080020d7   Thumb Code     4  sys.o(.emb_text)
    INTX_ENABLE                              0x080020db   Thumb Code     4  sys.o(.emb_text)
    MSR_MSP                                  0x080020df   Thumb Code     6  sys.o(.emb_text)
    Reset_Handler                            0x080020e5   Thumb Code     8  startup_stm32l031xx.o(.text)
    ADC1_COMP_IRQHandler                     0x080020f7   Thumb Code     0  startup_stm32l031xx.o(.text)
    DMA1_Channel1_IRQHandler                 0x080020f7   Thumb Code     0  startup_stm32l031xx.o(.text)
    DMA1_Channel2_3_IRQHandler               0x080020f7   Thumb Code     0  startup_stm32l031xx.o(.text)
    DMA1_Channel4_5_6_7_IRQHandler           0x080020f7   Thumb Code     0  startup_stm32l031xx.o(.text)
    EXTI0_1_IRQHandler                       0x080020f7   Thumb Code     0  startup_stm32l031xx.o(.text)
    EXTI2_3_IRQHandler                       0x080020f7   Thumb Code     0  startup_stm32l031xx.o(.text)
    EXTI4_15_IRQHandler                      0x080020f7   Thumb Code     0  startup_stm32l031xx.o(.text)
    FLASH_IRQHandler                         0x080020f7   Thumb Code     0  startup_stm32l031xx.o(.text)
    I2C1_IRQHandler                          0x080020f7   Thumb Code     0  startup_stm32l031xx.o(.text)
    PVD_IRQHandler                           0x080020f7   Thumb Code     0  startup_stm32l031xx.o(.text)
    RCC_IRQHandler                           0x080020f7   Thumb Code     0  startup_stm32l031xx.o(.text)
    RTC_IRQHandler                           0x080020f7   Thumb Code     0  startup_stm32l031xx.o(.text)
    SPI1_IRQHandler                          0x080020f7   Thumb Code     0  startup_stm32l031xx.o(.text)
    TIM21_IRQHandler                         0x080020f7   Thumb Code     0  startup_stm32l031xx.o(.text)
    TIM22_IRQHandler                         0x080020f7   Thumb Code     0  startup_stm32l031xx.o(.text)
    WWDG_IRQHandler                          0x080020f7   Thumb Code     0  startup_stm32l031xx.o(.text)
    __aeabi_uidiv                            0x08002101   Thumb Code     0  uidiv.o(.text)
    __aeabi_uidivmod                         0x08002101   Thumb Code    44  uidiv.o(.text)
    __aeabi_uldivmod                         0x0800212d   Thumb Code    96  uldiv.o(.text)
    __aeabi_memset                           0x0800218d   Thumb Code    14  memseta.o(.text)
    __aeabi_memset4                          0x0800218d   Thumb Code     0  memseta.o(.text)
    __aeabi_memset8                          0x0800218d   Thumb Code     0  memseta.o(.text)
    __aeabi_memclr                           0x0800219b   Thumb Code     4  memseta.o(.text)
    __aeabi_memclr4                          0x0800219b   Thumb Code     0  memseta.o(.text)
    __aeabi_memclr8                          0x0800219b   Thumb Code     0  memseta.o(.text)
    _memset$wrapper                          0x0800219f   Thumb Code    18  memseta.o(.text)
    strstr                                   0x080021b1   Thumb Code    40  strstr.o(.text)
    strlen                                   0x080021d9   Thumb Code    14  strlen.o(.text)
    __aeabi_dadd                             0x080021e9   Thumb Code   328  dadd.o(.text)
    __aeabi_dsub                             0x08002331   Thumb Code    12  dadd.o(.text)
    __aeabi_drsub                            0x0800233d   Thumb Code    12  dadd.o(.text)
    __aeabi_dmul                             0x0800234d   Thumb Code   202  dmul.o(.text)
    __aeabi_ui2f                             0x0800241d   Thumb Code    14  ffltui.o(.text)
    __aeabi_d2uiz                            0x0800242d   Thumb Code    50  dfixui.o(.text)
    __aeabi_f2d                              0x08002469   Thumb Code    40  f2d.o(.text)
    __aeabi_cdrcmple                         0x08002491   Thumb Code    38  cdrcmple.o(.text)
    __aeabi_d2f                              0x080024b9   Thumb Code    56  d2f.o(.text)
    __aeabi_llsl                             0x080024f1   Thumb Code    32  llshl.o(.text)
    _ll_shift_l                              0x080024f1   Thumb Code     0  llshl.o(.text)
    __aeabi_llsr                             0x08002511   Thumb Code    34  llushr.o(.text)
    _ll_ushift_r                             0x08002511   Thumb Code     0  llushr.o(.text)
    __aeabi_lasr                             0x08002533   Thumb Code    38  llsshr.o(.text)
    _ll_sshift_r                             0x08002533   Thumb Code     0  llsshr.o(.text)
    __strtod_int                             0x0800258f   Thumb Code    92  strtod.o(.text)
    __I$use$fp                               0x080025fd   Thumb Code     0  iusefp.o(.text)
    _float_round                             0x080025fd   Thumb Code    16  fepilogue.o(.text)
    _float_epilogue                          0x0800260d   Thumb Code   114  fepilogue.o(.text)
    _double_round                            0x0800267f   Thumb Code    26  depilogue.o(.text)
    _double_epilogue                         0x08002699   Thumb Code   164  depilogue.o(.text)
    __aeabi_ddiv                             0x0800273d   Thumb Code   234  ddiv.o(.text)
    __aeabi_d2ulz                            0x0800282d   Thumb Code    54  dfixul.o(.text)
    __scatterload                            0x0800286d   Thumb Code    28  init.o(.text)
    __scatterload_rt2                        0x0800286d   Thumb Code     0  init.o(.text)
    isspace                                  0x08002891   Thumb Code    14  isspace_c.o(.text)
    _scanf_real                              0x08002997   Thumb Code     0  scanf_fp.o(.text)
    _scanf_really_real                       0x08002997   Thumb Code   586  scanf_fp.o(.text)
    _sgetc                                   0x08002bed   Thumb Code    32  _sgetc.o(.text)
    _sbackspace                              0x08002c0d   Thumb Code    36  _sgetc.o(.text)
    __aeabi_lmul                             0x08002c31   Thumb Code   122  llmul.o(.text)
    _ll_mul                                  0x08002c31   Thumb Code     0  llmul.o(.text)
    __ctype_lookup                           0x08002cad   Thumb Code    32  ctype_c.o(.text)
    __aeabi_ul2d                             0x08002cd1   Thumb Code    22  dfltul.o(.text)
    A0_Cmd_Handle                            0x08002ced   Thumb Code   104  app.o(i.A0_Cmd_Handle)
    A1_Cmd_hander                            0x08002d75   Thumb Code    26  app.o(i.A1_Cmd_hander)
    A9_Cmd_Hander                            0x08002d99   Thumb Code    34  app.o(i.A9_Cmd_Hander)
    APE_Mqtt_Connect                         0x08002f01   Thumb Code   102  ape_mqtt.o(i.APE_Mqtt_Connect)
    APE_Pub_Queue_handler                    0x08002ff5   Thumb Code   110  ape_mqtt.o(i.APE_Pub_Queue_handler)
    APE_Queue_Pub                            0x08003071   Thumb Code    92  ape_mqtt.o(i.APE_Queue_Pub)
    Adc_To_Bq                                0x080030d9   Thumb Code    62  bat.o(i.Adc_To_Bq)
    Ape_Hander                               0x08003125   Thumb Code   186  app.o(i.Ape_Hander)
    Ape_Send                                 0x080031f5   Thumb Code    80  ape_mqtt.o(i.Ape_Send)
    App_Info_Save                            0x0800325d   Thumb Code    42  update.o(i.App_Info_Save)
    App_Start                                0x08003291   Thumb Code    28  app.o(i.App_Start)
    BDS_Dev_Handle                           0x080032b5   Thumb Code   188  app.o(i.BDS_Dev_Handle)
    Bat_Config                               0x080033b5   Thumb Code   134  bat.o(i.Bat_Config)
    Bat_Meausure                             0x0800344d   Thumb Code   106  app.o(i.Bat_Meausure)
    C0_Cmd_Hander                            0x080034c5   Thumb Code   108  app.o(i.C0_Cmd_Hander)
    C1_Hander                                0x0800354d   Thumb Code   178  app.o(i.C1_Hander)
    C2_Hander                                0x0800363d   Thumb Code   114  app.o(i.C2_Hander)
    C5_C7_Hander                             0x080036cd   Thumb Code   176  app.o(i.C5_C7_Hander)
    C6_Hander                                0x08003795   Thumb Code    84  app.o(i.C6_Hander)
    Cal_Acc                                  0x080037fd   Thumb Code    18  lis3dh_spi.o(i.Cal_Acc)
    Cat1_AT_CGSN                             0x08003811   Thumb Code    62  ec800.o(i.Cat1_AT_CGSN)
    Cat1_AT_CSQ                              0x08003865   Thumb Code    68  ec800.o(i.Cat1_AT_CSQ)
    Cat1_AT_QCCID                            0x080038c1   Thumb Code    80  ec800.o(i.Cat1_AT_QCCID)
    Cat1_AT_QLTS                             0x08003929   Thumb Code   100  ec800.o(i.Cat1_AT_QLTS)
    Cat1_AT_QNWINFO                          0x080039ad   Thumb Code    56  ec800.o(i.Cat1_AT_QNWINFO)
    Cat1_AT_QSCLK                            0x08003a0d   Thumb Code    30  ec800.o(i.Cat1_AT_QSCLK)
    Cat1_PWR_Off                             0x08003a41   Thumb Code    28  ec800.o(i.Cat1_PWR_Off)
    Cat1_PWR_On                              0x08003a61   Thumb Code    32  ec800.o(i.Cat1_PWR_On)
    Cat1_Power_Off                           0x08003a85   Thumb Code    82  ec800.o(i.Cat1_Power_Off)
    Cat1_Power_On                            0x08003b25   Thumb Code   144  ec800.o(i.Cat1_Power_On)
    Cat1_Send                                0x08003bf9   Thumb Code   220  ec800.o(i.Cat1_Send)
    EC800_Config                             0x08003cfd   Thumb Code   134  ec800.o(i.EC800_Config)
    FLASH_PageErase                          0x08003d8d   Thumb Code    34  stm32l0xx_hal_flash_ex.o(i.FLASH_PageErase)
    FLASH_WaitForLastOperation               0x08003e49   Thumb Code   106  stm32l0xx_hal_flash.o(i.FLASH_WaitForLastOperation)
    Flash_Page_Read                          0x08003eb9   Thumb Code    26  stm_flash.o(i.Flash_Page_Read)
    Flash_Write                              0x08003ed3   Thumb Code   124  stm_flash.o(i.Flash_Write)
    Get_Adc_Average                          0x08003f51   Thumb Code    86  bat.o(i.Get_Adc_Average)
    HAL_ADCEx_Calibration_Start              0x08003fb1   Thumb Code   170  stm32l0xx_hal_adc_ex.o(i.HAL_ADCEx_Calibration_Start)
    HAL_ADC_ConfigChannel                    0x0800405d   Thumb Code   140  stm32l0xx_hal_adc.o(i.HAL_ADC_ConfigChannel)
    HAL_ADC_GetValue                         0x080040f1   Thumb Code     6  stm32l0xx_hal_adc.o(i.HAL_ADC_GetValue)
    HAL_ADC_Init                             0x080040f9   Thumb Code   446  stm32l0xx_hal_adc.o(i.HAL_ADC_Init)
    HAL_ADC_MspInit                          0x080042c1   Thumb Code     2  stm32l0xx_hal_adc.o(i.HAL_ADC_MspInit)
    HAL_ADC_PollForConversion                0x080042c3   Thumb Code   192  stm32l0xx_hal_adc.o(i.HAL_ADC_PollForConversion)
    HAL_ADC_Start                            0x08004385   Thumb Code    86  stm32l0xx_hal_adc.o(i.HAL_ADC_Start)
    HAL_ADC_Stop                             0x080043e1   Thumb Code    62  stm32l0xx_hal_adc.o(i.HAL_ADC_Stop)
    HAL_DMA_Abort_IT                         0x0800441f   Thumb Code    76  stm32l0xx_hal_dma.o(i.HAL_DMA_Abort_IT)
    HAL_FLASHEx_Erase                        0x0800446d   Thumb Code   102  stm32l0xx_hal_flash_ex.o(i.HAL_FLASHEx_Erase)
    HAL_FLASH_Lock                           0x080044e1   Thumb Code    22  stm32l0xx_hal_flash.o(i.HAL_FLASH_Lock)
    HAL_FLASH_Program                        0x080044fd   Thumb Code    50  stm32l0xx_hal_flash.o(i.HAL_FLASH_Program)
    HAL_FLASH_Unlock                         0x08004539   Thumb Code    70  stm32l0xx_hal_flash.o(i.HAL_FLASH_Unlock)
    HAL_GPIO_Init                            0x08004595   Thumb Code   306  stm32l0xx_hal_gpio.o(i.HAL_GPIO_Init)
    HAL_GPIO_WritePin                        0x080046e1   Thumb Code    12  stm32l0xx_hal_gpio.o(i.HAL_GPIO_WritePin)
    HAL_GetTick                              0x080046ed   Thumb Code     6  stm32l0xx_hal.o(i.HAL_GetTick)
    HAL_IncTick                              0x080046f9   Thumb Code    12  stm32l0xx_hal.o(i.HAL_IncTick)
    HAL_InitTick                             0x08004709   Thumb Code    58  stm32l0xx_hal.o(i.HAL_InitTick)
    HAL_LPTIM_AutoReloadMatchCallback        0x0800474d   Thumb Code     2  stm32l0xx_hal_lptim.o(i.HAL_LPTIM_AutoReloadMatchCallback)
    HAL_LPTIM_AutoReloadWriteCallback        0x0800474f   Thumb Code     2  stm32l0xx_hal_lptim.o(i.HAL_LPTIM_AutoReloadWriteCallback)
    HAL_LPTIM_CompareMatchCallback           0x08004751   Thumb Code    14  tim1.o(i.HAL_LPTIM_CompareMatchCallback)
    HAL_LPTIM_CompareWriteCallback           0x08004769   Thumb Code     2  stm32l0xx_hal_lptim.o(i.HAL_LPTIM_CompareWriteCallback)
    HAL_LPTIM_DirectionDownCallback          0x0800476b   Thumb Code     2  stm32l0xx_hal_lptim.o(i.HAL_LPTIM_DirectionDownCallback)
    HAL_LPTIM_DirectionUpCallback            0x0800476d   Thumb Code     2  stm32l0xx_hal_lptim.o(i.HAL_LPTIM_DirectionUpCallback)
    HAL_LPTIM_IRQHandler                     0x0800476f   Thumb Code   202  stm32l0xx_hal_lptim.o(i.HAL_LPTIM_IRQHandler)
    HAL_LPTIM_Init                           0x08004839   Thumb Code   146  stm32l0xx_hal_lptim.o(i.HAL_LPTIM_Init)
    HAL_LPTIM_MspInit                        0x080048d9   Thumb Code    38  tim1.o(i.HAL_LPTIM_MspInit)
    HAL_LPTIM_TimeOut_Start_IT               0x08004909   Thumb Code    74  stm32l0xx_hal_lptim.o(i.HAL_LPTIM_TimeOut_Start_IT)
    HAL_LPTIM_TimeOut_Stop_IT                0x08004959   Thumb Code    58  stm32l0xx_hal_lptim.o(i.HAL_LPTIM_TimeOut_Stop_IT)
    HAL_LPTIM_TriggerCallback                0x08004999   Thumb Code     2  stm32l0xx_hal_lptim.o(i.HAL_LPTIM_TriggerCallback)
    HAL_NVIC_EnableIRQ                       0x0800499d   Thumb Code    14  stm32l0xx_hal_cortex.o(i.HAL_NVIC_EnableIRQ)
    HAL_NVIC_SetPriority                     0x080049b1   Thumb Code     8  stm32l0xx_hal_cortex.o(i.HAL_NVIC_SetPriority)
    HAL_NVIC_SystemReset                     0x080049b9   Thumb Code    18  stm32l0xx_hal_cortex.o(i.HAL_NVIC_SystemReset)
    HAL_PWR_EnterSTOPMode                    0x080049d5   Thumb Code    44  stm32l0xx_hal_pwr.o(i.HAL_PWR_EnterSTOPMode)
    HAL_RCCEx_PeriphCLKConfig                0x08004a09   Thumb Code   340  stm32l0xx_hal_rcc_ex.o(i.HAL_RCCEx_PeriphCLKConfig)
    HAL_RCC_ClockConfig                      0x08004b69   Thumb Code   344  stm32l0xx_hal_rcc.o(i.HAL_RCC_ClockConfig)
    HAL_RCC_GetPCLK1Freq                     0x08004cd5   Thumb Code    20  stm32l0xx_hal_rcc.o(i.HAL_RCC_GetPCLK1Freq)
    HAL_RCC_GetPCLK2Freq                     0x08004cf5   Thumb Code    20  stm32l0xx_hal_rcc.o(i.HAL_RCC_GetPCLK2Freq)
    HAL_RCC_GetSysClockFreq                  0x08004d15   Thumb Code   102  stm32l0xx_hal_rcc.o(i.HAL_RCC_GetSysClockFreq)
    HAL_RCC_OscConfig                        0x08004d91   Thumb Code  1064  stm32l0xx_hal_rcc.o(i.HAL_RCC_OscConfig)
    HAL_SPI_Init                             0x080051b9   Thumb Code   118  stm32l0xx_hal_spi.o(i.HAL_SPI_Init)
    HAL_SPI_MspInit                          0x0800522f   Thumb Code     2  stm32l0xx_hal_spi.o(i.HAL_SPI_MspInit)
    HAL_SPI_Receive                          0x08005231   Thumb Code   326  stm32l0xx_hal_spi.o(i.HAL_SPI_Receive)
    HAL_SPI_Transmit                         0x08005377   Thumb Code   348  stm32l0xx_hal_spi.o(i.HAL_SPI_Transmit)
    HAL_SPI_TransmitReceive                  0x080054d3   Thumb Code   488  stm32l0xx_hal_spi.o(i.HAL_SPI_TransmitReceive)
    HAL_SYSTICK_Config                       0x080056bd   Thumb Code    38  stm32l0xx_hal_cortex.o(i.HAL_SYSTICK_Config)
    HAL_TIM_Base_Init                        0x080056ed   Thumb Code    52  stm32l0xx_hal_tim.o(i.HAL_TIM_Base_Init)
    HAL_TIM_Base_MspInit                     0x08005721   Thumb Code    40  tim.o(i.HAL_TIM_Base_MspInit)
    HAL_TIM_Base_Start_IT                    0x0800574d   Thumb Code    32  stm32l0xx_hal_tim.o(i.HAL_TIM_Base_Start_IT)
    HAL_TIM_Base_Stop_IT                     0x0800576d   Thumb Code    32  stm32l0xx_hal_tim.o(i.HAL_TIM_Base_Stop_IT)
    HAL_TIM_IC_CaptureCallback               0x08005791   Thumb Code     2  stm32l0xx_hal_tim.o(i.HAL_TIM_IC_CaptureCallback)
    HAL_TIM_IRQHandler                       0x08005793   Thumb Code   294  stm32l0xx_hal_tim.o(i.HAL_TIM_IRQHandler)
    HAL_TIM_OC_DelayElapsedCallback          0x080058b9   Thumb Code     2  stm32l0xx_hal_tim.o(i.HAL_TIM_OC_DelayElapsedCallback)
    HAL_TIM_PWM_PulseFinishedCallback        0x080058bb   Thumb Code     2  stm32l0xx_hal_tim.o(i.HAL_TIM_PWM_PulseFinishedCallback)
    HAL_TIM_PeriodElapsedCallback            0x080058bd   Thumb Code   102  tim.o(i.HAL_TIM_PeriodElapsedCallback)
    HAL_TIM_TriggerCallback                  0x08005939   Thumb Code     2  stm32l0xx_hal_tim.o(i.HAL_TIM_TriggerCallback)
    HAL_UARTEx_WakeupCallback                0x0800593b   Thumb Code     2  stm32l0xx_hal_uart_ex.o(i.HAL_UARTEx_WakeupCallback)
    HAL_UART_ErrorCallback                   0x0800593d   Thumb Code     2  stm32l0xx_hal_uart.o(i.HAL_UART_ErrorCallback)
    HAL_UART_IRQHandler                      0x08005941   Thumb Code   310  stm32l0xx_hal_uart.o(i.HAL_UART_IRQHandler)
    HAL_UART_Init                            0x08005a7d   Thumb Code   106  stm32l0xx_hal_uart.o(i.HAL_UART_Init)
    HAL_UART_MspInit                         0x08005ae7   Thumb Code     2  stm32l0xx_hal_uart.o(i.HAL_UART_MspInit)
    HAL_UART_TxCpltCallback                  0x08005ae9   Thumb Code     2  stm32l0xx_hal_uart.o(i.HAL_UART_TxCpltCallback)
    HardFault_Handler                        0x08005aeb   Thumb Code     6  stm32l0xx_it.o(i.HardFault_Handler)
    L76K_Config                              0x08005af1   Thumb Code    40  l76k.o(i.L76K_Config)
    L76K_Data_Decode                         0x08005b19   Thumb Code   232  l76k.o(i.L76K_Data_Decode)
    LPTIM1_IRQHandler                        0x08005c15   Thumb Code    10  tim1.o(i.LPTIM1_IRQHandler)
    LPTIM1_Init                              0x08005c25   Thumb Code    48  tim1.o(i.LPTIM1_Init)
    LPTIM1_Start                             0x08005c65   Thumb Code    16  tim1.o(i.LPTIM1_Start)
    LPTIM1_Stop                              0x08005c7d   Thumb Code    10  tim1.o(i.LPTIM1_Stop)
    LPTIM_Disable                            0x08005c8d   Thumb Code   238  stm32l0xx_hal_lptim.o(i.LPTIM_Disable)
    LPUART1_DeInit                           0x08005d85   Thumb Code    50  usart.o(i.LPUART1_DeInit)
    LPUART1_IRQHandler                       0x08005dbd   Thumb Code   140  usart.o(i.LPUART1_IRQHandler)
    LPUART1_Init                             0x08005e55   Thumb Code   120  usart.o(i.LPUART1_Init)
    Lis3dh_Init                              0x08005ed9   Thumb Code   152  lis3dh_spi.o(i.Lis3dh_Init)
    Lis3dh_Read_WhoAmI                       0x08005f7d   Thumb Code    10  lis3dh_spi.o(i.Lis3dh_Read_WhoAmI)
    Lis3dh_SPI_Read                          0x08005f89   Thumb Code    80  lis3dh_spi.o(i.Lis3dh_SPI_Read)
    Lis3dh_SPI_Write                         0x08005fdd   Thumb Code    78  lis3dh_spi.o(i.Lis3dh_SPI_Write)
    Loc_AT_Set_Token                         0x08006031   Thumb Code    30  location.o(i.Loc_AT_Set_Token)
    Loc_Get_Data                             0x0800607d   Thumb Code   120  location.o(i.Loc_Get_Data)
    Low_Power_Hander                         0x08006111   Thumb Code   162  app.o(i.Low_Power_Hander)
    M_Sw_Config                              0x080061e1   Thumb Code    84  m_sw.o(i.M_Sw_Config)
    Mpu_Samle                                0x08006241   Thumb Code   540  app.o(i.Mpu_Samle)
    Mqtt_QMTCONN                             0x08006471   Thumb Code    74  ape_mqtt.o(i.Mqtt_QMTCONN)
    Mqtt_QMTOPEN                             0x080064f1   Thumb Code    66  ape_mqtt.o(i.Mqtt_QMTOPEN)
    Mqtt_QMTPUBEX                            0x0800657d   Thumb Code   156  ape_mqtt.o(i.Mqtt_QMTPUBEX)
    NMI_Handler                              0x0800665d   Thumb Code     2  stm32l0xx_it.o(i.NMI_Handler)
    PendSV_Handler                           0x080066a5   Thumb Code     2  stm32l0xx_it.o(i.PendSV_Handler)
    Power_On_Loc_Hander                      0x080066a9   Thumb Code   234  location.o(i.Power_On_Loc_Hander)
    Read_CTRL_REG1                           0x080067c5   Thumb Code    10  lis3dh_spi.o(i.Read_CTRL_REG1)
    Read_OUT_X                               0x080067cf   Thumb Code    20  lis3dh_spi.o(i.Read_OUT_X)
    Read_OUT_Y                               0x080067e3   Thumb Code    20  lis3dh_spi.o(i.Read_OUT_Y)
    Read_OUT_Z                               0x080067f7   Thumb Code    20  lis3dh_spi.o(i.Read_OUT_Z)
    SVC_Handler                              0x08006935   Thumb Code     2  stm32l0xx_it.o(i.SVC_Handler)
    Sub_Cmd_Get                              0x08006939   Thumb Code   150  app.o(i.Sub_Cmd_Get)
    Sub_Cmd_Handle                           0x080069d9   Thumb Code   270  app.o(i.Sub_Cmd_Handle)
    Sub_Powen_On                             0x08006b6d   Thumb Code    72  app.o(i.Sub_Powen_On)
    SysTick_Handler                          0x08006bc5   Thumb Code     8  stm32l0xx_it.o(i.SysTick_Handler)
    SystemClock_Config                       0x08006bcd   Thumb Code   134  sys.o(i.SystemClock_Config)
    SystemInit                               0x08006c59   Thumb Code    66  system_stm32l0xx.o(i.SystemInit)
    TIM2_IRQHandler                          0x08006cad   Thumb Code    10  tim.o(i.TIM2_IRQHandler)
    TIM2_Init                                0x08006cbd   Thumb Code    34  tim.o(i.TIM2_Init)
    UART_AdvFeatureConfig                    0x08006d3d   Thumb Code   202  stm32l0xx_hal_uart.o(i.UART_AdvFeatureConfig)
    UART_CheckIdleState                      0x08006e09   Thumb Code    90  stm32l0xx_hal_uart.o(i.UART_CheckIdleState)
    UART_SetConfig                           0x08006e9d   Thumb Code   480  stm32l0xx_hal_uart.o(i.UART_SetConfig)
    UART_WaitOnFlagUntilTimeout              0x080070a5   Thumb Code    96  stm32l0xx_hal_uart.o(i.UART_WaitOnFlagUntilTimeout)
    USART2_DeInit                            0x08007105   Thumb Code    52  usart.o(i.USART2_DeInit)
    USART2_IRQHandler                        0x0800713d   Thumb Code    70  usart.o(i.USART2_IRQHandler)
    USART2_Init                              0x08007191   Thumb Code   124  usart.o(i.USART2_Init)
    Update_Init                              0x08007219   Thumb Code   122  update.o(i.Update_Init)
    Usart2Send                               0x080072ad   Thumb Code    28  usart.o(i.Usart2Send)
    Write_CTRL_REG1                          0x080072cd   Thumb Code    14  lis3dh_spi.o(i.Write_CTRL_REG1)
    __0printf                                0x080072dd   Thumb Code    24  printfa.o(i.__0printf)
    __1printf                                0x080072dd   Thumb Code     0  printfa.o(i.__0printf)
    __2printf                                0x080072dd   Thumb Code     0  printfa.o(i.__0printf)
    __c89printf                              0x080072dd   Thumb Code     0  printfa.o(i.__0printf)
    printf                                   0x080072dd   Thumb Code     0  printfa.o(i.__0printf)
    __0sprintf                               0x080072fd   Thumb Code    36  printfa.o(i.__0sprintf)
    __1sprintf                               0x080072fd   Thumb Code     0  printfa.o(i.__0sprintf)
    __2sprintf                               0x080072fd   Thumb Code     0  printfa.o(i.__0sprintf)
    __c89sprintf                             0x080072fd   Thumb Code     0  printfa.o(i.__0sprintf)
    sprintf                                  0x080072fd   Thumb Code     0  printfa.o(i.__0sprintf)
    __ARM_clz                                0x08007325   Thumb Code    46  depilogue.o(i.__ARM_clz)
    __ARM_common_switch8                     0x08007353   Thumb Code    26  stm32l0xx_hal_uart.o(i.__ARM_common_switch8)
    __scatterload_copy                       0x0800736d   Thumb Code    14  handlers.o(i.__scatterload_copy)
    __scatterload_null                       0x0800737b   Thumb Code     2  handlers.o(i.__scatterload_null)
    __scatterload_zeroinit                   0x0800737d   Thumb Code    14  handlers.o(i.__scatterload_zeroinit)
    _is_digit                                0x080074e5   Thumb Code    14  scanf_fp.o(i._is_digit)
    delay_ms                                 0x08007c37   Thumb Code    16  delay.o(i.delay_ms)
    delay_us                                 0x08007c47   Thumb Code     8  delay.o(i.delay_us)
    fputc                                    0x08007c51   Thumb Code    14  usart.o(i.fputc)
    main                                     0x08007c65   Thumb Code   186  main.o(i.main)
    strtod                                   0x08007d45   Thumb Code    28  strtod.o(i.strtod)
    AHBPrescTable                            0x08007d60   Data          16  system_stm32l0xx.o(.constdata)
    PLLMulTable                              0x08007d70   Data           9  system_stm32l0xx.o(.constdata)
    APBPrescTable                            0x08007d79   Data           8  system_stm32l0xx.o(.constdata)
    __ctype_categories                       0x08007d81   Data          64  ctype_c.o(.constdata)
    Region$$Table$$Base                      0x08007e1c   Number         0  anon$$obj.o(Region$$Table)
    Region$$Table$$Limit                     0x08007e3c   Number         0  anon$$obj.o(Region$$Table)
    uwTickFreq                               0x20000000   Data           1  stm32l0xx_hal.o(.data)
    uwTickPrio                               0x20000004   Data           4  stm32l0xx_hal.o(.data)
    uwTick                                   0x20000008   Data           4  stm32l0xx_hal.o(.data)
    SystemCoreClock                          0x2000000c   Data           4  system_stm32l0xx.o(.data)
    com1                                     0x20000010   Data           4  usart.o(.data)
    com2                                     0x20000014   Data           4  usart.o(.data)
    sw_change_count                          0x20000018   Data           2  tim.o(.data)
    tim1_psc                                 0x2000001a   Data           2  tim1.o(.data)
    m_sw                                     0x2000001c   Data           4  m_sw.o(.data)
    m_sw_struct                              0x20000020   Data           2  m_sw.o(.data)
    cat1                                     0x20000024   Data           4  ec800.o(.data)
    L76k                                     0x20000028   Data           4  l76k.o(.data)
    send_start_idx                           0x2000002c   Data           1  ape_mqtt.o(.data)
    ape                                      0x20000030   Data           4  ape_mqtt.o(.data)
    current_free_fall_count                  0x2000003c   Data           1  app.o(.data)
    A0                                       0x2000003d   Data           1  app.o(.data)
    A1                                       0x2000003e   Data           1  app.o(.data)
    A9                                       0x2000003f   Data           1  app.o(.data)
    A99                                      0x20000040   Data           1  app.o(.data)
    C0                                       0x20000041   Data           1  app.o(.data)
    C01                                      0x20000042   Data           1  app.o(.data)
    c01_idx                                  0x20000043   Data           1  app.o(.data)
    flag                                     0x20000044   Data           1  app.o(.data)
    x                                        0x2000004c   Data           2  app.o(.data)
    y                                        0x2000004e   Data           2  app.o(.data)
    z                                        0x20000050   Data           2  app.o(.data)
    currentMotion                            0x20000052   Data           2  app.o(.data)
    sec                                      0x20000054   Data           2  app.o(.data)
    app                                      0x20000058   Data           4  app.o(.data)
    all_motion                               0x2000005c   Data           4  app.o(.data)
    all_motion_count                         0x20000060   Data           4  app.o(.data)
    motion_hour                              0x20000064   Data           4  app.o(.data)
    motion_count                             0x20000068   Data           4  app.o(.data)
    x1                                       0x20000094   Data           4  app.o(.data)
    y1                                       0x20000098   Data           4  app.o(.data)
    z1                                       0x2000009c   Data           4  app.o(.data)
    x0                                       0x200000a0   Data           4  app.o(.data)
    y0                                       0x200000a4   Data           4  app.o(.data)
    z0                                       0x200000a8   Data           4  app.o(.data)
    free_fall_temp                           0x200000ac   Data           8  app.o(.data)
    update                                   0x200000b4   Data           4  update.o(.data)
    loc                                      0x200000b8   Data           4  location.o(.data)
    __stdout                                 0x200000bc   Data           4  stdout.o(.data)
    pFlash                                   0x200000c0   Data          24  stm32l0xx_hal_flash.o(.bss)
    LPUART1_Handler                          0x200000d8   Data         128  usart.o(.bss)
    USART2_Handler                           0x20000158   Data         128  usart.o(.bss)
    com1_struct                              0x200001d8   Data         132  usart.o(.bss)
    com2_struct                              0x2000025c   Data         258  usart.o(.bss)
    TIM2_Handler                             0x20000360   Data          60  tim.o(.bss)
    hlptim1                                  0x2000039c   Data          48  tim1.o(.bss)
    hadc                                     0x200003cc   Data          92  bat.o(.bss)
    hspi1                                    0x20000428   Data          88  lis3dh_spi.o(.bss)
    cat1_type                                0x20000480   Data          38  ec800.o(.bss)
    L76k_Struct                              0x200004a6   Data          48  l76k.o(.bss)
    ape_struct                               0x200004d8   Data        4712  ape_mqtt.o(.bss)
    motion_temp                              0x2000174c   Data         112  app.o(.bss)
    c01_str                                  0x200017bc   Data          25  app.o(.bss)
    app_struct1                              0x200017d8   Data         176  app.o(.bss)
    update_struct                            0x20001888   Data          21  update.o(.bss)
    buf                                      0x2000189d   Data         128  update.o(.bss)
    loc_struct                               0x20001920   Data          24  location.o(.bss)
    __initial_sp                             0x20001d38   Data           0  startup_stm32l031xx.o(STACK)



==============================================================================

Memory Map of the image

  Image Entry point : 0x080020e5

  Load Region LR_1 (Base: 0x08002000, Size: 0x00005efc, Max: 0xffffffff, ABSOLUTE)

    Execution Region ER_RO (Base: 0x08002000, Size: 0x00005e3c, Max: 0xffffffff, ABSOLUTE)

    Base Addr    Size         Type   Attr      Idx    E Section Name        Object

    0x08002000   0x000000c0   Data   RO            3    RESET               startup_stm32l031xx.o
    0x080020c0   0x00000000   Code   RO         4574  * .ARM.Collect$$$$00000000  mc_p.l(entry.o)
    0x080020c0   0x00000004   Code   RO         4862    .ARM.Collect$$$$00000001  mc_p.l(entry2.o)
    0x080020c4   0x00000004   Code   RO         4865    .ARM.Collect$$$$00000004  mc_p.l(entry5.o)
    0x080020c8   0x00000000   Code   RO         4867    .ARM.Collect$$$$00000008  mc_p.l(entry7b.o)
    0x080020c8   0x00000000   Code   RO         4869    .ARM.Collect$$$$0000000A  mc_p.l(entry8b.o)
    0x080020c8   0x00000008   Code   RO         4870    .ARM.Collect$$$$0000000B  mc_p.l(entry9a.o)
    0x080020d0   0x00000000   Code   RO         4872    .ARM.Collect$$$$0000000D  mc_p.l(entry10a.o)
    0x080020d0   0x00000000   Code   RO         4874    .ARM.Collect$$$$0000000F  mc_p.l(entry11a.o)
    0x080020d0   0x00000004   Code   RO         4863    .ARM.Collect$$$$00002712  mc_p.l(entry2.o)
    0x080020d4   0x00000010   Code   RO         3692    .emb_text           sys.o
    0x080020e4   0x0000001c   Code   RO            4  * .text               startup_stm32l031xx.o
    0x08002100   0x0000002c   Code   RO         4577    .text               mc_p.l(uidiv.o)
    0x0800212c   0x00000060   Code   RO         4579    .text               mc_p.l(uldiv.o)
    0x0800218c   0x00000024   Code   RO         4581    .text               mc_p.l(memseta.o)
    0x080021b0   0x00000028   Code   RO         4583    .text               mc_p.l(strstr.o)
    0x080021d8   0x0000000e   Code   RO         4585    .text               mc_p.l(strlen.o)
    0x080021e6   0x00000002   PAD
    0x080021e8   0x00000164   Code   RO         4848    .text               mf_p.l(dadd.o)
    0x0800234c   0x000000d0   Code   RO         4850    .text               mf_p.l(dmul.o)
    0x0800241c   0x0000000e   Code   RO         4852    .text               mf_p.l(ffltui.o)
    0x0800242a   0x00000002   PAD
    0x0800242c   0x0000003c   Code   RO         4854    .text               mf_p.l(dfixui.o)
    0x08002468   0x00000028   Code   RO         4856    .text               mf_p.l(f2d.o)
    0x08002490   0x00000028   Code   RO         4858    .text               mf_p.l(cdrcmple.o)
    0x080024b8   0x00000038   Code   RO         4860    .text               mf_p.l(d2f.o)
    0x080024f0   0x00000020   Code   RO         4877    .text               mc_p.l(llshl.o)
    0x08002510   0x00000022   Code   RO         4879    .text               mc_p.l(llushr.o)
    0x08002532   0x00000026   Code   RO         4881    .text               mc_p.l(llsshr.o)
    0x08002558   0x000000a4   Code   RO         4883    .text               mc_p.l(strtod.o)
    0x080025fc   0x00000000   Code   RO         4885    .text               mc_p.l(iusefp.o)
    0x080025fc   0x00000082   Code   RO         4886    .text               mf_p.l(fepilogue.o)
    0x0800267e   0x000000be   Code   RO         4888    .text               mf_p.l(depilogue.o)
    0x0800273c   0x000000f0   Code   RO         4892    .text               mf_p.l(ddiv.o)
    0x0800282c   0x00000040   Code   RO         4894    .text               mf_p.l(dfixul.o)
    0x0800286c   0x00000024   Code   RO         4896    .text               mc_p.l(init.o)
    0x08002890   0x0000000e   Code   RO         4898    .text               mc_p.l(isspace_c.o)
    0x0800289e   0x00000002   PAD
    0x080028a0   0x0000034c   Code   RO         4900    .text               mc_p.l(scanf_fp.o)
    0x08002bec   0x00000044   Code   RO         4904    .text               mc_p.l(_sgetc.o)
    0x08002c30   0x0000007a   Code   RO         4906    .text               mc_p.l(llmul.o)
    0x08002caa   0x00000002   PAD
    0x08002cac   0x00000024   Code   RO         4908    .text               mc_p.l(ctype_c.o)
    0x08002cd0   0x0000001c   Code   RO         4911    .text               mf_p.l(dfltul.o)
    0x08002cec   0x00000088   Code   RO         4356    i.A0_Cmd_Handle     app.o
    0x08002d74   0x00000024   Code   RO         4357    i.A1_Cmd_hander     app.o
    0x08002d98   0x0000002c   Code   RO         4358    i.A9_Cmd_Hander     app.o
    0x08002dc4   0x00000052   Code   RO         2369    i.ADC_ConversionStop  stm32l0xx_hal_adc.o
    0x08002e16   0x00000002   PAD
    0x08002e18   0x00000024   Code   RO         2373    i.ADC_DelayMicroSecond  stm32l0xx_hal_adc.o
    0x08002e3c   0x00000060   Code   RO         2374    i.ADC_Disable       stm32l0xx_hal_adc.o
    0x08002e9c   0x00000064   Code   RO         2375    i.ADC_Enable        stm32l0xx_hal_adc.o
    0x08002f00   0x000000f4   Code   RO         4275    i.APE_Mqtt_Connect  ape_mqtt.o
    0x08002ff4   0x0000007c   Code   RO         4276    i.APE_Pub_Queue_handler  ape_mqtt.o
    0x08003070   0x00000068   Code   RO         4277    i.APE_Queue_Pub     ape_mqtt.o
    0x080030d8   0x0000004c   Code   RO         3985    i.Adc_To_Bq         bat.o
    0x08003124   0x000000d0   Code   RO         4359    i.Ape_Hander        app.o
    0x080031f4   0x00000068   Code   RO         4278    i.Ape_Send          ape_mqtt.o
    0x0800325c   0x00000034   Code   RO         4482    i.App_Info_Save     update.o
    0x08003290   0x00000024   Code   RO         4360    i.App_Start         app.o
    0x080032b4   0x00000100   Code   RO         4361    i.BDS_Dev_Handle    app.o
    0x080033b4   0x00000098   Code   RO         3986    i.Bat_Config        bat.o
    0x0800344c   0x00000078   Code   RO         4362    i.Bat_Meausure      app.o
    0x080034c4   0x00000088   Code   RO         4363    i.C0_Cmd_Hander     app.o
    0x0800354c   0x000000f0   Code   RO         4364    i.C1_Hander         app.o
    0x0800363c   0x00000090   Code   RO         4365    i.C2_Hander         app.o
    0x080036cc   0x000000c8   Code   RO         4366    i.C5_C7_Hander      app.o
    0x08003794   0x00000068   Code   RO         4367    i.C6_Hander         app.o
    0x080037fc   0x00000012   Code   RO         4020    i.Cal_Acc           lis3dh_spi.o
    0x0800380e   0x00000002   PAD
    0x08003810   0x00000054   Code   RO         4129    i.Cat1_AT_CGSN      ec800.o
    0x08003864   0x0000005c   Code   RO         4130    i.Cat1_AT_CSQ       ec800.o
    0x080038c0   0x00000068   Code   RO         4131    i.Cat1_AT_QCCID     ec800.o
    0x08003928   0x00000084   Code   RO         4132    i.Cat1_AT_QLTS      ec800.o
    0x080039ac   0x00000060   Code   RO         4133    i.Cat1_AT_QNWINFO   ec800.o
    0x08003a0c   0x00000034   Code   RO         4135    i.Cat1_AT_QSCLK     ec800.o
    0x08003a40   0x00000020   Code   RO         4137    i.Cat1_PWR_Off      ec800.o
    0x08003a60   0x00000024   Code   RO         4138    i.Cat1_PWR_On       ec800.o
    0x08003a84   0x000000a0   Code   RO         4139    i.Cat1_Power_Off    ec800.o
    0x08003b24   0x000000d4   Code   RO         4140    i.Cat1_Power_On     ec800.o
    0x08003bf8   0x00000104   Code   RO         4141    i.Cat1_Send         ec800.o
    0x08003cfc   0x00000090   Code   RO         4142    i.EC800_Config      ec800.o
    0x08003d8c   0x0000002c   Code   RO         1933    i.FLASH_PageErase   stm32l0xx_hal_flash_ex.o
    0x08003db8   0x00000090   Code   RO         1835    i.FLASH_SetErrorCode  stm32l0xx_hal_flash.o
    0x08003e48   0x00000070   Code   RO         1836    i.FLASH_WaitForLastOperation  stm32l0xx_hal_flash.o
    0x08003eb8   0x0000001a   Code   RO         3959    i.Flash_Page_Read   stm_flash.o
    0x08003ed2   0x0000007c   Code   RO         3960    i.Flash_Write       stm_flash.o
    0x08003f4e   0x00000002   PAD
    0x08003f50   0x00000060   Code   RO         3987    i.Get_Adc_Average   bat.o
    0x08003fb0   0x000000aa   Code   RO         2552    i.HAL_ADCEx_Calibration_Start  stm32l0xx_hal_adc_ex.o
    0x0800405a   0x00000002   PAD
    0x0800405c   0x00000094   Code   RO         2377    i.HAL_ADC_ConfigChannel  stm32l0xx_hal_adc.o
    0x080040f0   0x00000006   Code   RO         2384    i.HAL_ADC_GetValue  stm32l0xx_hal_adc.o
    0x080040f6   0x00000002   PAD
    0x080040f8   0x000001c8   Code   RO         2386    i.HAL_ADC_Init      stm32l0xx_hal_adc.o
    0x080042c0   0x00000002   Code   RO         2389    i.HAL_ADC_MspInit   stm32l0xx_hal_adc.o
    0x080042c2   0x000000c0   Code   RO         2390    i.HAL_ADC_PollForConversion  stm32l0xx_hal_adc.o
    0x08004382   0x00000002   PAD
    0x08004384   0x0000005c   Code   RO         2392    i.HAL_ADC_Start     stm32l0xx_hal_adc.o
    0x080043e0   0x0000003e   Code   RO         2395    i.HAL_ADC_Stop      stm32l0xx_hal_adc.o
    0x0800441e   0x0000004c   Code   RO         2634    i.HAL_DMA_Abort_IT  stm32l0xx_hal_dma.o
    0x0800446a   0x00000002   PAD
    0x0800446c   0x00000074   Code   RO         1942    i.HAL_FLASHEx_Erase  stm32l0xx_hal_flash_ex.o
    0x080044e0   0x0000001c   Code   RO         1840    i.HAL_FLASH_Lock    stm32l0xx_hal_flash.o
    0x080044fc   0x0000003c   Code   RO         1845    i.HAL_FLASH_Program  stm32l0xx_hal_flash.o
    0x08004538   0x0000005c   Code   RO         1847    i.HAL_FLASH_Unlock  stm32l0xx_hal_flash.o
    0x08004594   0x0000014c   Code   RO         2044    i.HAL_GPIO_Init     stm32l0xx_hal_gpio.o
    0x080046e0   0x0000000c   Code   RO         2048    i.HAL_GPIO_WritePin  stm32l0xx_hal_gpio.o
    0x080046ec   0x0000000c   Code   RO         1411    i.HAL_GetTick       stm32l0xx_hal.o
    0x080046f8   0x00000010   Code   RO         1417    i.HAL_IncTick       stm32l0xx_hal.o
    0x08004708   0x00000044   Code   RO         1419    i.HAL_InitTick      stm32l0xx_hal.o
    0x0800474c   0x00000002   Code   RO         3080    i.HAL_LPTIM_AutoReloadMatchCallback  stm32l0xx_hal_lptim.o
    0x0800474e   0x00000002   Code   RO         3081    i.HAL_LPTIM_AutoReloadWriteCallback  stm32l0xx_hal_lptim.o
    0x08004750   0x00000018   Code   RO         3898    i.HAL_LPTIM_CompareMatchCallback  tim1.o
    0x08004768   0x00000002   Code   RO         3083    i.HAL_LPTIM_CompareWriteCallback  stm32l0xx_hal_lptim.o
    0x0800476a   0x00000002   Code   RO         3089    i.HAL_LPTIM_DirectionDownCallback  stm32l0xx_hal_lptim.o
    0x0800476c   0x00000002   Code   RO         3090    i.HAL_LPTIM_DirectionUpCallback  stm32l0xx_hal_lptim.o
    0x0800476e   0x000000ca   Code   RO         3096    i.HAL_LPTIM_IRQHandler  stm32l0xx_hal_lptim.o
    0x08004838   0x000000a0   Code   RO         3097    i.HAL_LPTIM_Init    stm32l0xx_hal_lptim.o
    0x080048d8   0x00000030   Code   RO         3899    i.HAL_LPTIM_MspInit  tim1.o
    0x08004908   0x00000050   Code   RO         3116    i.HAL_LPTIM_TimeOut_Start_IT  stm32l0xx_hal_lptim.o
    0x08004958   0x00000040   Code   RO         3118    i.HAL_LPTIM_TimeOut_Stop_IT  stm32l0xx_hal_lptim.o
    0x08004998   0x00000002   Code   RO         3119    i.HAL_LPTIM_TriggerCallback  stm32l0xx_hal_lptim.o
    0x0800499a   0x00000002   PAD
    0x0800499c   0x00000014   Code   RO         2277    i.HAL_NVIC_EnableIRQ  stm32l0xx_hal_cortex.o
    0x080049b0   0x00000008   Code   RO         2281    i.HAL_NVIC_SetPriority  stm32l0xx_hal_cortex.o
    0x080049b8   0x0000001c   Code   RO         2282    i.HAL_NVIC_SystemReset  stm32l0xx_hal_cortex.o
    0x080049d4   0x00000034   Code   RO         2117    i.HAL_PWR_EnterSTOPMode  stm32l0xx_hal_pwr.o
    0x08004a08   0x00000160   Code   RO         1731    i.HAL_RCCEx_PeriphCLKConfig  stm32l0xx_hal_rcc_ex.o
    0x08004b68   0x0000016c   Code   RO         1633    i.HAL_RCC_ClockConfig  stm32l0xx_hal_rcc.o
    0x08004cd4   0x00000020   Code   RO         1639    i.HAL_RCC_GetPCLK1Freq  stm32l0xx_hal_rcc.o
    0x08004cf4   0x00000020   Code   RO         1640    i.HAL_RCC_GetPCLK2Freq  stm32l0xx_hal_rcc.o
    0x08004d14   0x0000007c   Code   RO         1641    i.HAL_RCC_GetSysClockFreq  stm32l0xx_hal_rcc.o
    0x08004d90   0x00000428   Code   RO         1644    i.HAL_RCC_OscConfig  stm32l0xx_hal_rcc.o
    0x080051b8   0x00000076   Code   RO         3351    i.HAL_SPI_Init      stm32l0xx_hal_spi.o
    0x0800522e   0x00000002   Code   RO         3353    i.HAL_SPI_MspInit   stm32l0xx_hal_spi.o
    0x08005230   0x00000146   Code   RO         3354    i.HAL_SPI_Receive   stm32l0xx_hal_spi.o
    0x08005376   0x0000015c   Code   RO         3359    i.HAL_SPI_Transmit  stm32l0xx_hal_spi.o
    0x080054d2   0x000001e8   Code   RO         3360    i.HAL_SPI_TransmitReceive  stm32l0xx_hal_spi.o
    0x080056ba   0x00000002   PAD
    0x080056bc   0x00000030   Code   RO         2285    i.HAL_SYSTICK_Config  stm32l0xx_hal_cortex.o
    0x080056ec   0x00000034   Code   RO          705    i.HAL_TIM_Base_Init  stm32l0xx_hal_tim.o
    0x08005720   0x0000002c   Code   RO         3849    i.HAL_TIM_Base_MspInit  tim.o
    0x0800574c   0x00000020   Code   RO          710    i.HAL_TIM_Base_Start_IT  stm32l0xx_hal_tim.o
    0x0800576c   0x00000024   Code   RO          713    i.HAL_TIM_Base_Stop_IT  stm32l0xx_hal_tim.o
    0x08005790   0x00000002   Code   RO          734    i.HAL_TIM_IC_CaptureCallback  stm32l0xx_hal_tim.o
    0x08005792   0x00000126   Code   RO          748    i.HAL_TIM_IRQHandler  stm32l0xx_hal_tim.o
    0x080058b8   0x00000002   Code   RO          751    i.HAL_TIM_OC_DelayElapsedCallback  stm32l0xx_hal_tim.o
    0x080058ba   0x00000002   Code   RO          778    i.HAL_TIM_PWM_PulseFinishedCallback  stm32l0xx_hal_tim.o
    0x080058bc   0x0000007c   Code   RO         3850    i.HAL_TIM_PeriodElapsedCallback  tim.o
    0x08005938   0x00000002   Code   RO          791    i.HAL_TIM_TriggerCallback  stm32l0xx_hal_tim.o
    0x0800593a   0x00000002   Code   RO          648    i.HAL_UARTEx_WakeupCallback  stm32l0xx_hal_uart_ex.o
    0x0800593c   0x00000002   Code   RO          309    i.HAL_UART_ErrorCallback  stm32l0xx_hal_uart.o
    0x0800593e   0x00000002   PAD
    0x08005940   0x0000013c   Code   RO          312    i.HAL_UART_IRQHandler  stm32l0xx_hal_uart.o
    0x08005a7c   0x0000006a   Code   RO          313    i.HAL_UART_Init     stm32l0xx_hal_uart.o
    0x08005ae6   0x00000002   Code   RO          315    i.HAL_UART_MspInit  stm32l0xx_hal_uart.o
    0x08005ae8   0x00000002   Code   RO          324    i.HAL_UART_TxCpltCallback  stm32l0xx_hal_uart.o
    0x08005aea   0x00000006   Code   RO          211    i.HardFault_Handler  stm32l0xx_it.o
    0x08005af0   0x00000028   Code   RO         4242    i.L76K_Config       l76k.o
    0x08005b18   0x000000fc   Code   RO         4243    i.L76K_Data_Decode  l76k.o
    0x08005c14   0x00000010   Code   RO         3900    i.LPTIM1_IRQHandler  tim1.o
    0x08005c24   0x00000040   Code   RO         3901    i.LPTIM1_Init       tim1.o
    0x08005c64   0x00000018   Code   RO         3902    i.LPTIM1_Start      tim1.o
    0x08005c7c   0x00000010   Code   RO         3903    i.LPTIM1_Stop       tim1.o
    0x08005c8c   0x000000f8   Code   RO         3120    i.LPTIM_Disable     stm32l0xx_hal_lptim.o
    0x08005d84   0x00000038   Code   RO         3737    i.LPUART1_DeInit    usart.o
    0x08005dbc   0x00000098   Code   RO         3738    i.LPUART1_IRQHandler  usart.o
    0x08005e54   0x00000084   Code   RO         3739    i.LPUART1_Init      usart.o
    0x08005ed8   0x000000a4   Code   RO         4021    i.Lis3dh_Init       lis3dh_spi.o
    0x08005f7c   0x0000000a   Code   RO         4022    i.Lis3dh_Read_WhoAmI  lis3dh_spi.o
    0x08005f86   0x00000002   PAD
    0x08005f88   0x00000054   Code   RO         4023    i.Lis3dh_SPI_Read   lis3dh_spi.o
    0x08005fdc   0x00000054   Code   RO         4024    i.Lis3dh_SPI_Write  lis3dh_spi.o
    0x08006030   0x0000004c   Code   RO         4521    i.Loc_AT_Set_Token  location.o
    0x0800607c   0x00000094   Code   RO         4522    i.Loc_Get_Data      location.o
    0x08006110   0x000000d0   Code   RO         4368    i.Low_Power_Hander  app.o
    0x080061e0   0x00000060   Code   RO         4100    i.M_Sw_Config       m_sw.o
    0x08006240   0x00000230   Code   RO         4369    i.Mpu_Samle         app.o
    0x08006470   0x00000080   Code   RO         4281    i.Mqtt_QMTCONN      ape_mqtt.o
    0x080064f0   0x0000008c   Code   RO         4283    i.Mqtt_QMTOPEN      ape_mqtt.o
    0x0800657c   0x000000e0   Code   RO         4284    i.Mqtt_QMTPUBEX     ape_mqtt.o
    0x0800665c   0x00000002   Code   RO          212    i.NMI_Handler       stm32l0xx_it.o
    0x0800665e   0x00000002   PAD
    0x08006660   0x00000044   Code   RO         2287    i.NVIC_SetPriority  stm32l0xx_hal_cortex.o
    0x080066a4   0x00000002   Code   RO          213    i.PendSV_Handler    stm32l0xx_it.o
    0x080066a6   0x00000002   PAD
    0x080066a8   0x0000011c   Code   RO         4525    i.Power_On_Loc_Hander  location.o
    0x080067c4   0x0000000a   Code   RO         4025    i.Read_CTRL_REG1    lis3dh_spi.o
    0x080067ce   0x00000014   Code   RO         4026    i.Read_OUT_X        lis3dh_spi.o
    0x080067e2   0x00000014   Code   RO         4027    i.Read_OUT_Y        lis3dh_spi.o
    0x080067f6   0x00000014   Code   RO         4028    i.Read_OUT_Z        lis3dh_spi.o
    0x0800680a   0x0000005c   Code   RO         3388    i.SPI_EndRxTransaction  stm32l0xx_hal_spi.o
    0x08006866   0x00000042   Code   RO         3389    i.SPI_EndRxTxTransaction  stm32l0xx_hal_spi.o
    0x080068a8   0x0000008c   Code   RO         3394    i.SPI_WaitFlagStateUntilTimeout  stm32l0xx_hal_spi.o
    0x08006934   0x00000002   Code   RO          214    i.SVC_Handler       stm32l0xx_it.o
    0x08006936   0x00000002   PAD
    0x08006938   0x000000a0   Code   RO         4370    i.Sub_Cmd_Get       app.o
    0x080069d8   0x00000194   Code   RO         4371    i.Sub_Cmd_Handle    app.o
    0x08006b6c   0x00000058   Code   RO         4372    i.Sub_Powen_On      app.o
    0x08006bc4   0x00000008   Code   RO          215    i.SysTick_Handler   stm32l0xx_it.o
    0x08006bcc   0x0000008c   Code   RO         3695    i.SystemClock_Config  sys.o
    0x08006c58   0x00000054   Code   RO         3659    i.SystemInit        system_stm32l0xx.o
    0x08006cac   0x00000010   Code   RO         3851    i.TIM2_IRQHandler   tim.o
    0x08006cbc   0x00000028   Code   RO         3852    i.TIM2_Init         tim.o
    0x08006ce4   0x00000058   Code   RO          793    i.TIM_Base_SetConfig  stm32l0xx_hal_tim.o
    0x08006d3c   0x000000ca   Code   RO          326    i.UART_AdvFeatureConfig  stm32l0xx_hal_uart.o
    0x08006e06   0x00000002   PAD
    0x08006e08   0x00000060   Code   RO          327    i.UART_CheckIdleState  stm32l0xx_hal_uart.o
    0x08006e68   0x00000014   Code   RO          328    i.UART_DMAAbortOnError  stm32l0xx_hal_uart.o
    0x08006e7c   0x00000020   Code   RO          338    i.UART_EndRxTransfer  stm32l0xx_hal_uart.o
    0x08006e9c   0x00000208   Code   RO          342    i.UART_SetConfig    stm32l0xx_hal_uart.o
    0x080070a4   0x00000060   Code   RO          345    i.UART_WaitOnFlagUntilTimeout  stm32l0xx_hal_uart.o
    0x08007104   0x00000038   Code   RO         3741    i.USART2_DeInit     usart.o
    0x0800713c   0x00000054   Code   RO         3742    i.USART2_IRQHandler  usart.o
    0x08007190   0x00000088   Code   RO         3743    i.USART2_Init       usart.o
    0x08007218   0x00000094   Code   RO         4483    i.Update_Init       update.o
    0x080072ac   0x00000020   Code   RO         3744    i.Usart2Send        usart.o
    0x080072cc   0x0000000e   Code   RO         4029    i.Write_CTRL_REG1   lis3dh_spi.o
    0x080072da   0x00000002   PAD
    0x080072dc   0x00000020   Code   RO         4820    i.__0printf         mc_p.l(printfa.o)
    0x080072fc   0x00000028   Code   RO         4822    i.__0sprintf        mc_p.l(printfa.o)
    0x08007324   0x0000002e   Code   RO         4890    i.__ARM_clz         mf_p.l(depilogue.o)
    0x08007352   0x0000001a   Code   RO          634    i.__ARM_common_switch8  stm32l0xx_hal_uart.o
    0x0800736c   0x0000000e   Code   RO         4915    i.__scatterload_copy  mc_p.l(handlers.o)
    0x0800737a   0x00000002   Code   RO         4916    i.__scatterload_null  mc_p.l(handlers.o)
    0x0800737c   0x0000000e   Code   RO         4917    i.__scatterload_zeroinit  mc_p.l(handlers.o)
    0x0800738a   0x00000002   PAD
    0x0800738c   0x00000158   Code   RO         4827    i._fp_digits        mc_p.l(printfa.o)
    0x080074e4   0x0000000e   Code   RO         4902    i._is_digit         mc_p.l(scanf_fp.o)
    0x080074f2   0x00000002   PAD
    0x080074f4   0x000006ec   Code   RO         4828    i._printf_core      mc_p.l(printfa.o)
    0x08007be0   0x00000020   Code   RO         4829    i._printf_post_padding  mc_p.l(printfa.o)
    0x08007c00   0x0000002c   Code   RO         4830    i._printf_pre_padding  mc_p.l(printfa.o)
    0x08007c2c   0x0000000a   Code   RO         4832    i._sputc            mc_p.l(printfa.o)
    0x08007c36   0x00000010   Code   RO         3815    i.delay_ms          delay.o
    0x08007c46   0x00000008   Code   RO         3816    i.delay_us          delay.o
    0x08007c4e   0x00000002   PAD
    0x08007c50   0x00000014   Code   RO         3745    i.fputc             usart.o
    0x08007c64   0x000000e0   Code   RO           12    i.main              main.o
    0x08007d44   0x0000001c   Code   RO         4571    i.strtod            m_ps.l(strtod.o)
    0x08007d60   0x00000019   Data   RO         3660    .constdata          system_stm32l0xx.o
    0x08007d79   0x00000008   Data   RO         3661    .constdata          system_stm32l0xx.o
    0x08007d81   0x00000040   Data   RO         4909    .constdata          mc_p.l(ctype_c.o)
    0x08007dc1   0x00000003   PAD
    0x08007dc4   0x00000057   Data   RO         4375    .conststring        app.o
    0x08007e1b   0x00000001   PAD
    0x08007e1c   0x00000020   Data   RO         4913    Region$$Table       anon$$obj.o


    Execution Region ER_RW (Base: 0x20000000, Size: 0x000000c0, Max: 0xffffffff, ABSOLUTE)

    Base Addr    Size         Type   Attr      Idx    E Section Name        Object

    0x20000000   0x0000000c   Data   RW         1429    .data               stm32l0xx_hal.o
    0x2000000c   0x00000004   Data   RW         3662    .data               system_stm32l0xx.o
    0x20000010   0x00000008   Data   RW         3749    .data               usart.o
    0x20000018   0x00000002   Data   RW         3854    .data               tim.o
    0x2000001a   0x00000002   Data   RW         3905    .data               tim1.o
    0x2000001c   0x00000004   Data   RW         4101    .data               m_sw.o
    0x20000020   0x00000002   Data   RW         4102    .data               m_sw.o
    0x20000022   0x00000002   PAD
    0x20000024   0x00000004   Data   RW         4144    .data               ec800.o
    0x20000028   0x00000004   Data   RW         4245    .data               l76k.o
    0x2000002c   0x00000010   Data   RW         4286    .data               ape_mqtt.o
    0x2000003c   0x00000078   Data   RW         4376    .data               app.o
    0x200000b4   0x00000004   Data   RW         4486    .data               update.o
    0x200000b8   0x00000004   Data   RW         4527    .data               location.o
    0x200000bc   0x00000004   Data   RW         4876    .data               mc_p.l(stdout.o)


    Execution Region ER_ZI (Base: 0x200000c0, Size: 0x00001c78, Max: 0xffffffff, ABSOLUTE)

    Base Addr    Size         Type   Attr      Idx    E Section Name        Object

    0x200000c0   0x00000018   Zero   RW         1848    .bss                stm32l0xx_hal_flash.o
    0x200000d8   0x00000100   Zero   RW         3746    .bss                usart.o
    0x200001d8   0x00000084   Zero   RW         3747    .bss                usart.o
    0x2000025c   0x00000102   Zero   RW         3748    .bss                usart.o
    0x2000035e   0x00000002   PAD
    0x20000360   0x0000003c   Zero   RW         3853    .bss                tim.o
    0x2000039c   0x00000030   Zero   RW         3904    .bss                tim1.o
    0x200003cc   0x0000005c   Zero   RW         3988    .bss                bat.o
    0x20000428   0x00000058   Zero   RW         4030    .bss                lis3dh_spi.o
    0x20000480   0x00000026   Zero   RW         4143    .bss                ec800.o
    0x200004a6   0x00000030   Zero   RW         4244    .bss                l76k.o
    0x200004d6   0x00000002   PAD
    0x200004d8   0x00001268   Zero   RW         4285    .bss                ape_mqtt.o
    0x20001740   0x00000095   Zero   RW         4373    .bss                app.o
    0x200017d5   0x00000003   PAD
    0x200017d8   0x000000b0   Zero   RW         4374    .bss                app.o
    0x20001888   0x00000015   Zero   RW         4484    .bss                update.o
    0x2000189d   0x00000080   Zero   RW         4485    .bss                update.o
    0x2000191d   0x00000003   PAD
    0x20001920   0x00000018   Zero   RW         4526    .bss                location.o
    0x20001938   0x00000400   Zero   RW            1    STACK               startup_stm32l031xx.o


==============================================================================

Image component sizes


      Code (inc. data)   RO Data    RW Data    ZI Data      Debug   Object Name

      1068        388          0         16       4712       5948   ape_mqtt.o
      3080        554         87        120        325      13986   app.o
       324         42          0          0         92       2278   bat.o
        24          0          0          0          0        882   delay.o
      1404        368          0          4         38       8432   ec800.o
       292         20          0          4         48       2424   l76k.o
       444         22          0          0         88       5520   lis3dh_spi.o
       508        124          0          4         24       2905   location.o
        96         12          0          6          0       1513   m_sw.o
       224         38          0          0          0     343215   main.o
        28          8        192          0       1024        624   startup_stm32l031xx.o
        96         20          0         12          0       7058   stm32l0xx_hal.o
      1272         36          0          0          0       7851   stm32l0xx_hal_adc.o
       170          0          0          0          0       1374   stm32l0xx_hal_adc_ex.o
       172         34          0          0          0       9472   stm32l0xx_hal_cortex.o
        76          0          0          0          0        983   stm32l0xx_hal_dma.o
       436         54          0          0         24       5130   stm32l0xx_hal_flash.o
       160         24          0          0          0       2453   stm32l0xx_hal_flash_ex.o
       344         26          0          0          0       2076   stm32l0xx_hal_gpio.o
       766         36          0          0          0       7092   stm32l0xx_hal_lptim.o
        52          8          0          0          0        576   stm32l0xx_hal_pwr.o
      1616         94          0          0          0       5200   stm32l0xx_hal_rcc.o
       352         12          0          0          0       1364   stm32l0xx_hal_rcc_ex.o
      1580          0          0          0          0       6980   stm32l0xx_hal_spi.o
       510         14          0          0          0       6373   stm32l0xx_hal_tim.o
      1420         76          0          0          0       8149   stm32l0xx_hal_uart.o
         2          0          0          0          0        968   stm32l0xx_hal_uart_ex.o
        20          0          0          0          0       2063   stm32l0xx_it.o
       150          0          0          0          0       1556   stm_flash.o
       156          6          0          0          0       3957   sys.o
        84         18         33          4          0       1187   system_stm32l0xx.o
       224         38          0          2         60       2440   tim.o
       192         56          0          2         48       3175   tim1.o
       200         36          0          4        149       2357   update.o
       668         70          0          8        646       5587   usart.o

    ----------------------------------------------------------------------
     18244       2234        345        188       7288     483148   Object Totals
         0          0         32          0          0          0   (incl. Generated)
        34          0          1          2         10          0   (incl. Padding)

    ----------------------------------------------------------------------

      Code (inc. data)   RO Data    RW Data    ZI Data      Debug   Library Member Name

        28          0          0          0          0         72   strtod.o
        68          0          0          0          0         76   _sgetc.o
        36          4         64          0          0         60   ctype_c.o
         0          0          0          0          0          0   entry.o
         0          0          0          0          0          0   entry10a.o
         0          0          0          0          0          0   entry11a.o
         8          4          0          0          0          0   entry2.o
         4          0          0          0          0          0   entry5.o
         0          0          0          0          0          0   entry7b.o
         0          0          0          0          0          0   entry8b.o
         8          4          0          0          0          0   entry9a.o
        30          0          0          0          0          0   handlers.o
        36          8          0          0          0         68   init.o
        14          0          0          0          0         68   isspace_c.o
         0          0          0          0          0          0   iusefp.o
       122          0          0          0          0         84   llmul.o
        32          0          0          0          0         68   llshl.o
        38          0          0          0          0         68   llsshr.o
        34          0          0          0          0         68   llushr.o
        36          0          0          0          0        100   memseta.o
      2274        102          0          0          0        556   printfa.o
       858         12          0          0          0        184   scanf_fp.o
         0          0          0          4          0          0   stdout.o
        14          0          0          0          0         60   strlen.o
        40          0          0          0          0         72   strstr.o
       164         18          0          0          0        120   strtod.o
        44          0          0          0          0         72   uidiv.o
        96          0          0          0          0         84   uldiv.o
        40          2          0          0          0         68   cdrcmple.o
        56          0          0          0          0         68   d2f.o
       356          4          0          0          0        140   dadd.o
       240          6          0          0          0         84   ddiv.o
       236          0          0          0          0        216   depilogue.o
        60         10          0          0          0         68   dfixui.o
        64         10          0          0          0         68   dfixul.o
        28          6          0          0          0         68   dfltul.o
       208          6          0          0          0         88   dmul.o
        40          0          0          0          0         60   f2d.o
       130          0          0          0          0        144   fepilogue.o
        14          0          0          0          0         68   ffltui.o

    ----------------------------------------------------------------------
      5468        196         67          4          0       3020   Library Totals
        12          0          3          0          0          0   (incl. Padding)

    ----------------------------------------------------------------------

      Code (inc. data)   RO Data    RW Data    ZI Data      Debug   Library Name

        28          0          0          0          0         72   m_ps.l
      3956        152         64          4          0       1808   mc_p.l
      1472         44          0          0          0       1140   mf_p.l

    ----------------------------------------------------------------------
      5468        196         67          4          0       3020   Library Totals

    ----------------------------------------------------------------------

==============================================================================


      Code (inc. data)   RO Data    RW Data    ZI Data      Debug   

     23712       2430        412        192       7288     477592   Grand Totals
     23712       2430        412        192       7288     477592   ELF Image Totals
     23712       2430        412        192          0          0   ROM Totals

==============================================================================

    Total RO  Size (Code + RO Data)                24124 (  23.56kB)
    Total RW  Size (RW Data + ZI Data)              7480 (   7.30kB)
    Total ROM Size (Code + RO Data + RW Data)      24316 (  23.75kB)

==============================================================================

