:020000040800F2
:10200000501D0020E5200008B5660008EB5A0008C6
:1020100000000000000000000000000000000000C0
:102020000000000000000000000000008D690008B2
:102030000000000000000000FD6600081D6C0008A4
:10204000F7200008F7200008F7200008F720000814
:10205000F7200008F7200008F7200008F720000804
:1020600000000000F7200008F7200008F720000813
:10207000F7200008155C000800000000056D00084E
:102080000000000000000000000000000000000050
:10209000F720000800000000F7200008F7200008E3
:1020A00000000000F7200008000000000000000011
:1020B00095710008BD5D00080000000000000000F0
:1020C0000348854600F0D2FB00480047BD7C00086D
:1020D000501D002030BF72B6704762B6704780F363
:1020E000088870470448804704480047FEE7FEE739
:1020F000FEE7FEE7FEE7FEE7B16C0008C12000083E
:1021000030B50B46014600202022012409E00D468F
:10211000D5409D4205D31D469540491B2546954017
:1021200040191546521E002DF1DC30BDF0B51FB42C
:102130000646002082B005464024019100901BE035
:10214000019922460F46304600F0E2F9049A059BB9
:10215000801A994110D310461946224600F0C8F95A
:10216000361A8F410197224601200021009F00F07E
:10217000BFF938184D4100902046641E0028DFDC6E
:10218000019B00982946324607B0F0BDD2B201E06B
:102190000270401C491EFBD270470022F6E710B5C2
:1021A00013460A4604461946FFF7F0FF204610BDC5
:1021B00030B505462A460B4610781C78521C5B1C2D
:1021C000002801D0A042F7D0002C03D0002802D074
:1021D0006D1CEFE7284630BD421C0178401C0029E9
:1021E000FBD1801A70470000F0B5074608465840FA
:1021F00087B0C00F049048000E46590040084908B7
:10220000BC1A884105D2384631461E4617460B4651
:1022100002465800400810434CD0300D0390400552
:102220005900400D490D0590401A0290402872DA7D
:1022300018030121000B090508430190049800923E
:10224000002805D001995242002088410092019057
:10225000029840210A1A0199009800F049F90546B0
:102260000C466B4607CB00F064F9C0197141039A24
:102270000E0D0023D71756401A467A40164344D015
:10228000049A002A2DD0029A012A039A15DC12051D
:10229000C01A914101263605001C7141D20F059EDE
:1022A000D2070093019202962A46234600F0F4F9E1
:1022B00007B0F0BD38463146FAE71605224A0F4608
:1022C000B218C01AB74101210905001C4F4100187E
:1022D0007F41114618187941E20F10436D1964418E
:1022E00013E0E2076D0815436408C2071443039A1C
:1022F00001261205C01A91413605001C7141CE0716
:10230000400830434908C01851412A46234600F08E
:10231000B6F9CDE7FFE7049801224000C117121A71
:1023200000238B4104983146C417381AA141EEE7C7
:1023300030B40124E407634030BC55E730B40124D5
:10234000E407614030BC4FE70000E0FFF0B51FB488
:1023500088B00B990998002448400999C00F49009A
:1023600049080991C0070B990090490049080B9151
:1023700009990898A64608431CD00B990A98084367
:1023800018D0099801244000420D4800410D0998D9
:1023900024050003000B204309900B980003000B59
:1023A00020430B9050181C494018002201901446FD
:1023B000104605E0002001460DB0F0BD032801DA0B
:1023C000034600E003239C46C11A0AAE0AE05F0000
:1023D00008ADED5B4F00F75B7D430027AA187C41F9
:1023E000491C5B1E6145F2DD410004AB5A522104D9
:1023F000120C0A43240C401C0828DFDB01980290D1
:102400000099704601910090059B049A07990698DF
:1024100000F042F9D0E700000DFCFFFF10B50022EC
:102420009623114600F0F2F810BD00004A0009039F
:102430000123090B1B051943094B10B5520D9A4294
:1024400001DA002010BD064B34339A4203DC9A1A9D
:1024500000F05EF810BD03495118884010BD00001F
:10246000FF030000CDFBFFFFC20FD2074000400872
:102470000BD0C10D0723DB01C91840020905400A32
:102480001143C208400711437047002001467047BE
:1024900010B5002904DB0124E40740428C412146A9
:1024A000002B04DB1C460123DB075242A341994267
:1024B00000D1904210BD0000CB0FDB07490010B5E2
:1024C000490802460A4307D00A0D07240903E4011C
:1024D000090B121B002A01DC002010BDC900440FAB
:1024E0000C43C100E018D205801800F087F810BD39
:1024F00010B5202A04DB0146203A9140002010BD8F
:10250000914020239C1A0346E3401943904010BD9C
:1025100010B5202A04DB0846203AD040002110BD27
:102520000B46D340D0402024A21A914008431946BC
:1025300010BD10B5202A06DBCB170846203A104103
:10254000C1170B4306E00B461341D0402024A21ACA
:1025500091400843194610BD0FB400B589B00CA9CD
:1025600000910B990023CB60204B214A06930792E0
:10257000042201921F4A02921F4A089202466B46A9
:10258000002000F008FA09B008BC04B0184770B584
:1025900086B006460020C0430190002015460C4638
:1025A0000091029104903246694604A8FFF7D4FFD7
:1025B000034604982118002D05D0002801D00A46B2
:1025C00000E022462A6000280DD0002B02DD009892
:1025D000884208D0081B0190009432466946029454
:1025E00004A8FFF7B9FF06B070BD0000ED2B00088E
:1025F0000D2C0008FFFFFF7F91280008002904DA56
:10260000401C490001D140084000704770B40024CC
:10261000050C05D11024000402D1002921D0112479
:10262000050E01D100020834050F01D10001241D5F
:10263000850F01D18000A41C002801DB4000641C30
:10264000002908D020252E1B0D46F540A14000D0C2
:1026500001212943084301061B1B000ADB1D02D58B
:10266000002070BC7047DB05181880180029F8DAC4
:10267000401C4900F5D170BC40084000704710B5BF
:10268000002B08DA0024401C614192185B411A4378
:1026900001D14008400010BDF0B51FB482B005461E
:1026A0000C0003D0084604F069FE02E004F066FE68
:1026B00020300246009021462846FFF719FF049B70
:1026C000059A04460F4618431143084314D0184690
:1026D00010431BD0009840210A1A18460599FFF7AD
:1026E00017FF05460E46009A05990498FFF700FF6C
:1026F000084305D0012004E02046394607B0F0BD6C
:102700000020C11705430E432C43374300990E9810
:102710006305401A7905E40A00220C43FD0A0A30D9
:1027200002D500200146E9E70105101969410C9C1A
:102730000D9D00196941FFF7A2FFDFE7F0B50C46D8
:102740005C4085B0E40FE40703944C000026640865
:1027500059009446490802460296224321D0624617
:102760000A431ED06200570D4A000E032303550D85
:10277000012402462C492405781B1B0B360B4018FC
:1027800023432643614600901C46501AB44103D3AC
:102790000098401C009002E0921800985B410028CD
:1027A00003DA0020014605B0F0BD00200121090533
:1027B0000746864611E064461D46141BB54106D304
:1027C0006546521BB341744607430C43A646CD07EA
:1027D00040084908284392185B4105460D43EAD159
:1027E0001046184313D060461946504071400843C4
:1027F00006D06046101AB34106D20122002306E03B
:1028000000220123DB0702E00122D243531000988B
:1028100074460105381C6141029C039D0019694101
:10282000FFF72DFFBFE70000FD0300004A0009038A
:102830000123090B1B0519430A4B10B5520D9A428F
:1028400002DA0020014610BD064B34339A4203DC05
:102850009A1AFFF75DFE10BD034BD218FFF748FE32
:1028600010BD0000FF030000CDFBFFFF064C01255B
:10287000064E05E0E36807CC2B430C3C9847103428
:10288000B442F7D3FFF720FC747E0008947E000862
:1028900010B50F21C0B2490200F008FA10BD0000C7
:1028A000FFB5087885B01546FF2805D0491C2D28AE
:1028B00004D00022002407E000240BE00122F9E705
:1028C0000A235C430419491C0878FF28F8D1002A20
:1028D00000D06442002001902A7801462D2A01D0C0
:1028E0002B2A04D16D1C2D2A0DD000220192002626
:1028F0002F78FF2F09D00A2200236D1C00F098F9D1
:1029000038187141F4E70122F0E7089AA2180392FF
:1029100002460A430DD00024B24AB14D2646009229
:1029200000F0D6F9049003980291002807DA474294
:102930001AE0002105980A4606C009B0F0BD074616
:1029400012E0F80707D022462B4630460099FFF7E1
:10295000FDFC0646009122462B4610461946FFF71D
:10296000F5FC04460D467F10002FEAD10398009B2A
:10297000002802990498324602DAFFF7DFFE01E0F0
:10298000FFF7E4FC019A002A02D00122D20751404D
:10299000059A03C2D1E7FFB591B000200990002548
:1029A000ED432E209E685C681F460190B9696D1C3E
:1029B000129888470090396A88470028F6D1009815
:1029C000401C0AD00D20C0018443002E12DD009867
:1029D0002B2809D02D280DD103E00020C04315B0CD
:1029E000F0BD012080020443B9696D1C129888472C
:1029F000761E009003A9600501D52D2000E02B2054
:102A00006A461073491C0CA80F9102900AE0B9693C
:102A10006D1C1298884700900120400204431398CF
:102A2000761E0560002E02DD00983028EFD0019957
:102A30000098884246D18020044308E00998401E4F
:102A400009900120400204431399681C0860B96989
:102A50006D1C761E1298884700903028EED031E029
:102A60000199884205D1200603D480200443761EB4
:102A70001EE0009804F062FD002826D001204002EC
:102A8000044307A90F980331761E88420BD20098A1
:102A90000F99303808700F98401C0F90200607D50A
:102AA0000998401E03E0200602D40998401C0990B2
:102AB000A00502D51399681C0860B9696D1C1298AD
:102AC00088470090002ECBDC59E0002E57DD00989F
:102AD000652801D0452852D1A00550D50320000219
:102AE0008443B9696D1C761E129888470090002EA9
:102AF0000CDD2B2804D02D2808D1FF200130044301
:102B0000B9696D1C12988847761E0090E00501D5C2
:102B10002D2100E02B21029801700298401C0290A8
:102B2000019025E00120400204430EA902980131E2
:102B3000761E88420ED20098029930380006000EA8
:102B4000087003D10299019881420AD90298401C69
:102B5000029006E0E00501D5234801E0224840420A
:102B60000990B9696D1C1298884700901398056008
:102B7000002E04DD009804F0E1FC0028D2D1F969B0
:102B8000129888470F99FF200870029903AA0870CD
:102B900000200A900B900CA90AA8099BFFF780FE61
:102BA000A00502D40120C04319E72420044209D023
:102BB000E00713D138680B9A0A99031D3B6000683F
:102BC00006C00BE00B990A98FFF776FC0146E00778
:102BD00004D13868021D3A60006801602846FEE6AC
:102BE000000024400000F03FF1D8FFFF4268002AB7
:102BF00008D001680B78491C002B03D0521E06C078
:102C0000184670470121C160881E70474268002A3B
:102C10000BD0C3680168002B07D183688B4204D0B6
:102C2000491E521C06C0002070470020C043704758
:102C3000F0B51FB486B00020009001900290069875
:102C4000069980B204900798090C020400141143FD
:102C500007900027089D099806913E463C46039040
:102C60000398A9B20204000C039004982D0C15439C
:102C7000484300212246FFF73BFCC719714110343D
:102C80000E46402CECDB3846029AFFF731FC009AE6
:102C9000019B8018009059410298019110300290D8
:102CA0004028CCDB00980BB0F0BD00007F2801D994
:102CB000002207E0054B42089A5CC00700D11209C8
:102CC0001207120F0120904008407047D97D00087C
:102CD0000EB5054A02920022009213460192FFF7B8
:102CE000DBFC03B000BD000033040000F0B5194D5B
:102CF0000024E86991B0017F002902D0C47711B0A7
:102D0000F0BDC17F0129FAD1134E81763268134F8D
:102D1000107801280ED13868134610300090213306
:102D20000FA101A8521C04F015FBE869C47701A8A3
:102D300000F09EF9306800780228E0D1E8690BA124
:102D4000C4773A6801A8103204F004FB01A800F02F
:102D50008FF9D4E73C000020280000202400002048
:102D600041303A25732C25733A25730041303A3AA5
:102D70002573000010B5064CE069407F012805D19D
:102D800004A000F075F9E1690020487710BD00004B
:102D90003C0000204131000010B5084CE0692030B3
:102DA0000078012808D106A000F062F9E06900214E
:102DB0002030017000F06EFE10BD00003C000020CD
:102DC0004139000070B5044600688168490720D584
:102DD000816810254907002905DA8168890702D42E
:102DE00081682943816001F089FC06460DE001F00D
:102DF00085FC801B0A2808D9606D28436065A06D9A
:102E000001210843A065084670BD2068806840071E
:102E1000EDD4002070BD000038B5044606480549D1
:102E20000068FFF76DF9604300E0401E0090002845
:102E3000FBD138BD40420F000C000020F8B504461D
:102E4000006881688907890F012925D10168C907B0
:102E500022D08168052211401025012601290FD1B9
:102E6000816802221143816021680320086001F01B
:102E700045FC07460CE001F041FCC01B0A2807D9BD
:102E8000606D28436065A06D3043A0650120F8BDEA
:102E900020688068C007EED10020F8BDF8B5044670
:102EA000006881688907890F012902D10168C90773
:102EB00022D18168114A10261140012500290ED126
:102EC0008168294381600120FFF7A6FF01F016FC0D
:102ED00007460CE001F012FCC01B0A2807D9606D00
:102EE00030436065A06D2843A0650120F8BD2068CF
:102EF0000068C043C007EDD10020F8BD1700008076
:102F000070B57D2300241B0117A20F2119A000F02A
:102F10007BFE642004F0BBFE1A4B1BA21D211BA0EC
:102F200000F072FE7D26651EF60003F00DFBC1B2B7
:102F3000032902D0002908D013E0641CE4B2032C5A
:102F40000FD2304604F0A3FEEFE7642004F09FFEAA
:102F5000244816A3016820A223A003F0B5FA002894
:102F600000D0284670BD0000514D54434C4F53458E
:102F70000000000041542B514D54434C4F53453DEC
:102F8000300D0A00B80B00004F4B000041542B518C
:102F90004D544346473D226B656570616C697665AB
:102FA000222C302C3237300D0A0000007931663483
:102FB000446B52366F30337276466C5A736843589E
:102FC0004D6B673945476D63745A593832585F768F
:102FD0005F747570714E450063666B5F74657374E2
:102FE0000000000024000020313730343030393503
:102FF00000000000F8B51B4F1B4D3868A968006839
:10300000401AE968884202D800F044FDF8BD002467
:1030100026462878192800D32E702978BC206A68A3
:1030200048438018027B002A0AD00D3000F0E2F8F5
:10303000002808D00D48E86038680068A860F8BD2E
:10304000491C297008E02878BC2148436968401869
:1030500006732878401C2870641CE4B2192CD8D35D
:10306000F8BD0000580000202C000020401901008D
:1030700070B50546FFF7B0F8C0B2B42802D30020FF
:10308000C04370BD114C6078192801D300206070D6
:10309000C1B2BC20626848438018037B002B01D07A
:1030A000491C217012682B4609A10D3004F052F919
:1030B0006068BC2201680123491C016061784A43B1
:1030C00010180373491C6170002070BD2C00002093
:1030D00025643A257300000010B5FFF7C5F90E4AC4
:1030E0000E4BFFF733F9FFF7E7F9FFF7BDF90123BF
:1030F00000229B07FFF71CF90022094BFFF726F976
:10310000FFF794F9C0B2642801D9642010BD0028EB
:10311000FCD1012010BD00009F6162DAD4CC4C3F8D
:1031200000404F4070B52E4C86B0E169887F002882
:1031300013D02C4E30680279012A10D00968E26C55
:103140008B1AA26C934208D98068081A904204D95D
:1031500000F0F0FCE0690068E06406B070BD427900
:10316000214D002A0CD0012AF7D109688068081A7D
:10317000A842F2D9684600F0DFFB002806D028E01C
:1031800009688068081A2828F4D8E6E76A46107AA1
:10319000517A0A223038504330380918E1200001B2
:1031A00041436A46907A0A22303850436A46D27ABE
:1031B00080183C22504308182D218901401A80B202
:1031C0000A4960834018A84201D2A56401E008487A
:1031D000A06400F05FFC316800204871BDE700008A
:1031E0003C00002030000020A08C00008896FFFFEB
:1031F00040190100F1B50024124D012627466868E8
:103200000079002805D1FFF77BFE00280AD1686805
:10321000067102210CA0009A03F0DCF9002805D009
:1032200068680771641CE4B2032CE8D30A48696833
:103230000068032C0068886002D30020C043F8BDFA
:103240000020F8BD2C0000206465766963655F7519
:1032500070646174650000005800002010B50A48D1
:103260000A49026810780870002013180C18401CD6
:103270005B78C0B263701428F7D320220349FF2083
:1032800000F02FFE10BD0000B4000020B518002093
:1032900006480022C069012102778177C177C17693
:1032A00003480068FF300130028070473C00002076
:1032B00014000020F8B52E4D0024E869817F012913
:1032C00000D084762B4E012731680A78002A08D076
:1032D0000268EB6AD21A284B9A4201D2847608E03F
:1032E0000C70E869817E002903D0A97A00290AD0F0
:1032F0000FE02248006880300480847005200007B9
:103300008762AC72F8BD00682863AF721CA004F03D
:1033100011F80120052109078861E869296B006817
:10332000401A4B214901884209D9316802200870AE
:10333000E8690068E86216A003F0FCFFF8BD0F4FD3
:1033400082213868095C0129F8D102F0E5FB0028E8
:103350000AD1E8690068E86232680120107010A0A4
:103360002132396803F0E6FF386880308470F8BD98
:103370003C00002028000020E02E0000100000206B
:10338000677073206765742073746172740D0A002E
:1033900067707320676574206661696C0D0A0000B0
:1033A0006770733A25732C646174653A25730D0A4E
:1033B0000000000030B5214889B0416B421511432F
:1033C0004163C16A01252943C162C06A00242840C3
:1033D0000790022000900320019005206946029486
:1033E000000701F0DFF817481549C46301600905BB
:1033F0008460416005610721C4608163014620311A
:103400000C704C70FF22C232846242620C730463FF
:10341000846144630421C461416100F075FE0021B0
:10342000084800F0CDFD084805908013069005A9D6
:10343000044800F01BFE09B030BD0000001002403F
:1034400000240140CC0300200200000470B51A4C97
:103450001A4AE069616B0068411A91422AD360639D
:103460001421002000F07CFDE17A154B4A009852AF
:10347000491CCAB2E272052A1CD30020014605E0AD
:103480004D005D5B2818491C80B2C9B29142F7D348
:103490000521FEF735FEFEF7C1FFFFF71DFEE269CD
:1034A000A032117A884203D2012901D9491E117232
:1034B0000020E07270BD00003C000020E02E000003
:1034C0005817002030B51A4C0022E16991B00B7FEB
:1034D00008462030002B00D04270237B012B06D100
:1034E0000B68A56B5B1B134DAB4216D9227340785A
:1034F000012810D1012510488D7602680020105651
:1035000001280CD0022806D10CA0FFF7B1FDE0691C
:103510000068A063257311B030BD4270FBE713460D
:10352000213307A16846521C03F014FF6846ECE7FC
:103530003C000020701700002800002043300000ED
:1035400043303A25732C257300000000F0B52A4D56
:103550000024E96993B00A7F08462030012A04D18B
:10356000264A8470126854716C73AA7B012A06D1B2
:103570000968EA6B891A224A91422AD9AC73807889
:10358000012824D1687B1F4F0126002823D0012861
:103590001DD1E9691C488E76026800201056022869
:1035A00025D0012813D1386813460178407801915D
:1035B0000090213315A102A8521C03F0CBFE02A8F3
:1035C000FFF756FDAE736C73E8690068E86313B0EB
:1035D000F0BD8470FBE7386810A10378427802A838
:1035E00003F0B8FE02A8FFF743FD6E73D1E7AE7398
:1035F0006C730868EAE700003C00002030000020FF
:10360000701700001C0000202800002043313A25DC
:10361000732C25733A25643A2564000043313A3A05
:1036200025643A256400000070B5244D0024E96942
:1036300092B00A7F08462030012A01D10471EC7350
:103640002A7C012A06D10A682B6CD21A1C4B9A429A
:1036500028D92C740079012822D1E87B0126002882
:1036600022D001281CD1E869164986760A68002113
:10367000515602290ED0012912D1806A13460090BA
:10368000213311A101A8521C03F064FE01A8FFF729
:10369000EFFCE86924210C54EC732E740068286454
:1036A00012B070BD0471FBE78A6A0AA101A803F099
:1036B00051FE01A8FFF7DCFCEE73D4E73C000020CC
:1036C000A08C00002800002043323A25732C25737B
:1036D0003A25640043323A3A25640000F0B52B4D98
:1036E0000026EC69CBB0217F2046203001294AD04A
:1036F000007B042848D1C0211AA8FEF74EFD2046C1
:103700003C300FC816AF0FC7606E12AFA36B626B71
:10371000216B0FC7204654300FC80EAF0FC720468D
:103720008030276DE36C0268E16F0A910BA98CC1B0
:1037300021466C318EC9069107A98CC1224694326C
:10374000A16E1CCA059102A91CC10269C168009141
:103750000192836842680E491AA803F0FBFD1AA87B
:10376000FFF786FCE8698030028C418C0091019261
:10377000838CC28C07A11AA803F0ECFD1AA8FFF7EE
:1037800077FCE869203006734BB0F0BD3C000020A8
:103790001C7E000843373A25643A25643A25643A8A
:1037A0002564000030B589B000256846124C0570CC
:1037B000E069626C0168891A104A914202D90121BC
:1037C000C17602E0C07E012814D1684600F052F8AC
:1037D00000280FD1E0690AA1A030027A6846037878
:1037E00001A803F0B7FD01A8FFF742FCE069C57628
:1037F0000068606409B030BD3C000020005E1A0023
:1038000043363A25643A25640000000000090105AA
:1038100004D5C043401C0005000D40427047000025
:1038200010B5FF232D330EA208210EA000F0ECF9F5
:10383000040003D0FEF7D0FC142802D20020C043BD
:1038400010BD0B4800210068621892784254491C50
:10385000C9B20F29F8D30021C173084610BD00007A
:103860004F4B000041542B47534E0D0A00000000FF
:103870002400002070B50646FF232D330EA2082138
:103880000EA000F0C1F90025ED43002808D00EA1DC
:10389000FEF78EFC040003D0FEF79EFC0A2801D23E
:1038A000284670BD60790A223038A17950433038FB
:1038B00008183070002070BD4F4B000041542B435E
:1038C00053510D0A000000004353513A000000001C
:1038D00070B5FF232D3312A20A2112A000F094F933
:1038E00000280BD012A1FEF763FC0446FEF774FC1F
:1038F000C5B210480022114600680DE00020C04308
:1039000070BD635C1E46303E092E03D88618521CDB
:103910003374D2B2491CC9B2A942F2D3002070BD9F
:103920004F4B000041542B51434349440D0A0000C2
:1039300049443A002400002070B50546FF232D338A
:1039400016A20B2116A000F05FF9184E040013D048
:1039500017A1FEF72DFC00280ED12046FEF73CFCF7
:10396000282809D314A12046FEF722FC040003D026
:10397000FEF732FC162801D2304670BD0020641CD0
:1039800021780A46303A092A01D829706D1C401C5A
:10399000C0B2641C1328F3D3002070BD4F4B00004D
:1039A00041542B514C54533D320D0A00FFFFFFFF91
:1039B00032303730000000002232000010B5FF2303
:1039C0002D330CA20C210CA000F01EF9040004D031
:1039D0000DA1FEF7EDFB002802D00020C04310BD72
:1039E0000CA12046FEF7E4FB002801D0012010BD09
:1039F000022010BD4F4B000041542B514E57494EF1
:103A0000464F0D0A000000004E4F205345525649C4
:103A100043450000464444204C54450010B5FF2364
:103A20002D3306A20C2106A000F0EEF8002801D0EC
:103A3000002010BD0020C04310BD00004F4B00000F
:103A400041542B5153434C4B3D310D0A00000000B3
:103A500000B585B0002001900290039040200090B6
:103A60006946024800F09EFD05B000BD000400500C
:103A700030B585B0112001900020054C4025039001
:103A800069460095204600F08DFDA56205B030BD69
:103A90000004005010B51449002009680871052081
:103AA00000070069C0051DD5104B11A20E2112A000
:103AB00000F0AAF8642004F0EAF8134B13A20C21DA
:103AC00014A000F0A1F803F049FB16A003F032FCAB
:103AD0007D20800104F0DBF8FFF7BAFF7D20C000F5
:103AE00004F0D5F810BD000030000020B80B000035
:103AF000514D54444953430041542B514D54444972
:103B000053433D300D0A000088130000444F574EC8
:103B10000000000041542B51504F57443D300D0AD6
:103B20000000000063617420706F7765726F6666D5
:103B30000D0A0000F8B505252D072869C00501D537
:103B40000120F8BD1FA003F0F5FB0127FF03AF62C2
:103B5000FFF78EFF4B20C00103F046FB1E4E0021F5
:103B600030680C46FF30013001801CA13068FEF740
:103B70001FFB00280ED01AA003F0DCFB7D20000103
:103B800004F085F8FFF74AFF194901200968087415
:103B90000020F8BD012004F07AF8641C7D20A4B256
:103BA000C0018442E1D903F0D9FAAF61FFF750FFB9
:103BB00010A003F0BFFBFF20F53004F068F80020F0
:103BC000C043F8BD63617420737461727420706FB8
:103BD0007765726F6E0D0A00140000205244590080
:103BE00063617420706F7765726F6E0D0A0000005C
:103BF000B800002063617420706F7765726F6E206B
:103C00006661696C0D0A0000FFB5002581B00E46A3
:103C10002C46FFF78FFF401C62D032490220886299
:103C20000A2004F034F83146019803F06BFB2E4E65
:103C300000273068FF30013007802CA0019903F085
:103C400079FB049884421AD2FF2130680131095A65
:103C500006291FD3821E8A5C0D2A1BD1421E895C55
:103C60000A2917D10399FEF7A3FA002801D0356875
:103C700005E020A13068FEF79BFA00280AD0FF2259
:103C800030680132125A0021042A11D302780D2A19
:103C900006D009E0012003F0FAFF641CA4B2D0E7CB
:103CA00042780A2A00D10221411814A003F042FBF5
:103CB0001548002D006802D0203047710CE02030FC
:103CC0004179491CC9B24171052905D34771FFF7F4
:103CD000E1FEC82003F0DBFF02490220886128468C
:103CE00005B0F0BD000400501400002073656E6440
:103CF0003A2573004552524F5200000072656376B8
:103D00003A25730D0A00000024000020F0B585B0AC
:103D10000120C50301900024052069460095039405
:103D2000000700F03FFC1B4F02266946384600960C
:103D300000F038FCE81100900520019402946946D7
:103D40000394000700F02EFCBE610520000785618A
:103D5000FFF77EFE7D20C00003F099FF0E4CFFF7B9
:103D60005FFD002803D0204603F091FFF7E7FFF73F
:103D7000AFFD002803D0204603F089FFF7E702F0EB
:103D800057F9002803D0204603F081FFF7E705B07C
:103D9000F0BD000000040050B80B000010B5084949
:103DA00000234B6107494A684C1522434A604A6820
:103DB000082422434A60C009C001036010BD00000E
:103DC000C00000200020024010B5214A0020916967
:103DD000CB05204904D54869022318434861901552
:103DE00093699B0505D54B69012423434B6163020D
:103DF000184393695B0505D54B69082423434B6140
:103E0000E301184393691B0505D54B69042423433B
:103E10004B616302184393699B0405D54B691024D9
:103E200023434B616302184393699B0304D54C6998
:103E300020231C434C6118439369DB0305D54B6970
:103E4000402423434B61A1020843906110BD000050
:103E500000200240C000002070B5044600F04EFC77
:103E60000546184E0AE0601C08D0002C04D000F073
:103E700045FC401BA04201D9032070BDB069C007BA
:103E8000F1D1B069800701D50220B061B069C005E9
:103E900011D4B06980050ED4B06940050BD4B06967
:103EA000000508D4B069800405D4B069800302D449
:103EB000B069C00303D5FFF787FF012070BD002064
:103EC00070BD0000002002400122C001D20682180D
:103ED000002013780B70401C491C521C8028F8D31A
:103EE0007047F0B50C460121C001C906461885B0DF
:103EF00000200090D009029015460196500602D08D
:103F00000298401C029000F01FFB03A9684600F0D5
:103F1000B5FA002816D1AF08A80700D07F1C0025ED
:103F200017E0E178207809064018A1786278090442
:103F30001202891842183146022000F0E7FA039075
:103F4000002803D00020C04305B0F0BD241D6D1C27
:103F5000361DBD42E5D300F0CBFA0020F4E70000A7
:103F6000F8B5154F0E46796B002578150143796336
:103F70002C4610E0052003F08AFE104800F00AFAF3
:103F800032210E4800F0A5F90C4800F0B9F880B2D3
:103F90002D18641CE4B2B442ECD3084800F028FAAF
:103FA000796B012040028143796331462846FEF750
:103FB000A7F880B2F8BD000000100240CC0300203A
:103FC000F8B5054604464035287C0026012808D06F
:103FD00001202874206881688907890F01290ED182
:103FE00001E00220F8BD0168C90708D0606D2021FA
:103FF000084360650126002028743046F8BD616DD5
:10400000FF2201329143022211436165C168890791
:10401000890F0091C16889088900C16020688168A2
:1040200092071143816000F069FB07460EE000F043
:1040300065FBC01B0A2809D9606D02218843102145
:1040400008436065002028740120F8BD206880685E
:104050000028ECDB2068C168009A1143C160606DE4
:1040600080088000401C6065C5E70000F8B5054683
:104070000C464035297C01290DD0012129740168A5
:104080008A68520709D5416D2022114341650020FD
:1040900028740120F8BD0220F8BD174B6268D805CE
:1040A00047109A42154E8A6A236812D05B035B0B55
:1040B0001A438A622168490305D5B1680143B1609A
:1040C0000A20FEF7A9FE2068800312D5B0683843A5
:1040D0000EE05B035B0B9A438A622168490302D5B9
:1040E000B1688143B1602068800302D5B068B843ED
:1040F000B06000202874F8BD0110000000270140C6
:104100000068006C7047000070B5040006D0606D58
:10411000264600254036002802D006E0012070BD6A
:10412000A5653574204600F0D3F8606DC00603D451
:1041300020688168490705D5606D102108436065D6
:104140003574EBE7616DFF22013291430222114386
:10415000616581685C4A8907890F012902D101687C
:10416000C9072BD1032361689B07994205D05B42A5
:10417000994202D05B00994209D1016989008908FE
:104180000161206801696368194301610CE00169FC
:1041900089008908016190680F2189048843906033
:1041A00090686168084390602068C168182399434B
:1041B000C1602068C168A3681943C160906801218B
:1041C0004906884390609068A18E49060843906034
:1041D00020688168C90004D4816801221207114354
:1041E00081602068C168394A1140C1602069E26875
:1041F000022825D000200243204620300178037B8E
:1042000049035B0019430A43216B0A43A1698903EF
:104210000A43E169C9030A432168CB681A43CA60AB
:10422000616A0A46FF3AC23A05D0A26A114322687F
:10423000D3681943D16042780121012A02D00BE0F2
:104240000420D8E70078002823D0606D2022104396
:104250006065A06D0843A065E06B012820681FD051
:104260000169C90703D00169490849000161206853
:104270004169C908C900416120684169A26B1143C5
:104280004161A565606D80088000401C606500206C
:1042900070BD2068C26801231B041A43C260DBE7BB
:1042A0000269FF239B009A43026120680269236C24
:1042B000A66C1A43636C33431A4302612068026997
:1042C0000A430261D3E70000002701401902FEFF04
:1042D0007047F8B504464069274640370D46082820
:1042E0000BD02068C068C00709D0606D202108434A
:1042F0006065002038740120F8BD082600E00C2617
:1043000000F0FCF9009011E0681C0FD0002D05D0E2
:1043100000F0F4F90099401AA84207D9606D042111
:1043200008436065002038740320F8BD20680068E9
:104330003042E9D0606D0121490208436065206880
:10434000C1680C220905890F00291BD12021095DB4
:10435000002917D10168090714D58168012349078D
:10436000002908DB416891434160606D1902884370
:104370001843606506E0606D202108436065A06D0C
:104380001843A065A069002801D1206802600020C0
:10439000F8BD000070B5044621680020896849070F
:1043A00021D425464035297C01291CD001212974BE
:1043B000E169012904D02046FEF770FD002811D1E3
:1043C000616D0A4A1140FF220132114361650021EB
:1043D000A165297422681C21116021688A68042360
:1043E0001A438A6070BD022070BD0000FEF1FFFF1D
:1043F00070B5054604464035287C012807D00126C3
:104400002E742046FEF7DEFC002802D00CE00220CD
:1044100070BD2046FEF712FD002805D1616DFF2218
:1044200001329143314361650021297470BD70B53B
:104430000024014620314A79022A03D00421C163B5
:10444000012418E0026813680E25AB43136002686C
:1044500013685B085B001360436C1C22134001254A
:104460002A469A40036C5A604D7100220A71816B92
:10447000002900D08847204670BD0000F8B5194FCC
:104480000546387C0E46012807D0012038741648AE
:10449000FFF7E2FC002802D020E00220F8BD002156
:1044A000C94331606C6813E02046FFF777FC0E4883
:1044B000FFF7D2FC0D494A6808239A434A604A68CC
:1044C0004B159A434A60002801D0346006E08034DE
:1044D000A9686A68C9018918A142E5D80021397420
:1044E000F8BD0000C000002050C3000000200240C2
:1044F000054841680222114341604168012211438D
:10450000416000207047000000200240F8B50C4CCC
:104510001646207C0F46012808D001202074094847
:10452000FFF79AFC0025002802D006E00220F8BD23
:1045300065613E600348FFF78FFC2574F8BD0000FD
:10454000C000002050C3000011484168C9070BD0CB
:10455000EFF3108172B60F4AC2600F4AC26081F356
:1045600010884168C9070ED1416889070DD5EFF35E
:10457000108172B6094A0261094A026181F310880A
:104580004068800701D50120704700207047000077
:1045900000200240EFCDAB8905040302BFAE9D8C25
:1045A00016151413F0B500228FE0012797403B4009
:1045B0007ED04C68012C05D0022C03D0112C01D0E8
:1045C000122C10D1856854000326A640B543CE684E
:1045D000A6402E43866044680D79BC43ED06ED0F7E
:1045E000954025434560C66855000324AC408F685C
:1045F000A643AF403743A646C7604C68022C01D0A3
:10460000122C0ED1D408A4002418276AA4465607F9
:10461000F40E0F26A640B7430E69A6403E436446FB
:10462000266204687646B4430E79B607B60FAE40EC
:10463000264306604C68E40046D5274C656B01268E
:10464000354365639508254CAD002F19BD68940767
:10465000240F0F26A640B54305263607B04201D1E8
:1046600000260FE01E4EB04201D101260AE01D4E89
:10467000B04201D1022605E01B4EB04201D1052611
:1046800000E00626A6402E43BE60184D2C684E68FA
:104690009C43F60300D51C432C606C684E689C4319
:1046A000B60300D51C436C60AC684E689C4300E0C8
:1046B0000AE0F60200D51C43AC60EC684E689C43EF
:1046C000B60200D51C43EC60521C0B681C46D4405B
:1046D00000D06AE7F0BD0000001002400000014079
:1046E0000004005000080050001C0050000401406D
:1046F000002A01D08161704781627047014880685B
:104700007047000000000020024881680278891884
:10471000816070470000002070B504460D4D7D207B
:104720002978C000FDF7ECFC01460B480068FDF756
:10473000E7FC00F0CBFF002809D1042C07D20022AF
:104740002146401E00F03CF900206C6070BD012045
:1047500070BD0000000000200C0000207047704772
:104760000348044A00680168891801607047000026
:1047700058000020B611000070477047704710B510
:10478000044600680168C943C90708D18168C94364
:10479000C90704D1012141602046FFF7E1FF2068ED
:1047A0000168C943890708D48168C943890704D4CB
:1047B000022141602046FFF7D1FF20680168C9430C
:1047C000490708D48168C943490704D404214160DA
:1047D000204600F0E9F820680168C943090708D4B9
:1047E0008168C943090704D4082141602046FFF7C6
:1047F000C3FF20680168C943C90608D48168C9435A
:10480000C90604D4102141602046FFF7A8FF2068A4
:104810000168C943890608D48168C943890604D45C
:10482000202141602046FFF7A9FF20680168C943A5
:10483000490608D48168C943490604D4402141602F
:104840002046FFF79AFF10BDF8B5040005D02546B5
:104850002035A87B002802D006E00120F8BD00200A
:104860006873204600F040F80220A8732068C268F0
:1048700084466168012904D00120A36AC0058342EF
:1048800001D11E208243154B6069984201D0144B20
:104890001A40144B676A1A40A368266A0B433E43CA
:1048A0001E43A36A1E431643012903D00121C905F3
:1048B0008B4203D12269E16811430E4307498842C4
:1048C00005D0A1690843E1693143084306466046C3
:1048D000C6600120A8730020F8BD0000FFFF0000A3
:1048E0003F1FFFFFF8F119FF10B500680849884223
:1048F0000CD10848816BC20411438163032201215A
:104900000D2000F05DF80D2000F050F810BD000003
:10491000007C00400010024070B5022403462033A2
:104920001D469C730F4B1C68DE0434431C600368F7
:10493000DC68B6123443DC6003689E6801242643B9
:104940009E6003681E6926431E61036899610168C1
:104950004A6100680169042211430161AC730020BF
:1049600070BD00000004014070B5044602212030F3
:10497000054681730B480168C204914301602046DB
:1049800001F084F92068C1680122D2049143C1601A
:10499000206881684908490081600120A8730020CF
:1049A00070BD00000004014070470000C106C90E40
:1049B00001208840014908607047000000E100E0E4
:1049C00010B501F079FE10BDBFF34F8F04490348C5
:1049D000C860BFF34F8F00BFFDE700000400FA0579
:1049E00000ED00E00A4B1A689208920002431A6038
:1049F0000848026904231A430261012906D040BF16
:104A000020BF20BF016999430161704730BFF9E7BA
:104A10000070004000ED00E0F8B504460078534D0A
:104A200080067AD5514800264038806BC00006D4F5
:104A30004E484038816B02041143816301264C4883
:104A40000168C90510D40168821511430160FFF7A0
:104A500055FE074604E0FFF751FEC01B64283AD814
:104A600043480068C005F6D5404840380068032137
:104A7000090562680840114081420AD09003800F06
:104A8000032806D1394840380068800301D5012049
:104A9000F8BD286903210904084021D00A40824258
:104AA0001ED0207880061BD528692A6988430121F9
:104AB000C9040A432A612A698A432A612861C00518
:104AC0000ED5FFF71BFE074607E0FFF717FEC11BD9
:104AD0002848814201D90320F8BD28698005F4D512
:104AE00060688103890F032908D1204B403B196876
:104AF00003221205914310400143196028690322E3
:104B000061681204114008432861002E05D017483F
:104B10004038826B01048A4382632078800705D580
:104B2000E8680C218843A1680843E86020784007C2
:104B300006D5E868032189028843E1680843E860F4
:104B40002078000706D5E868032109038843216916
:104B50000843E8602078000606D5E8680321890448
:104B6000884361690843E8600020F8BD40100240B6
:104B70000070004088130000F8B50E4604007DD098
:104B800053480068C007C00FB0420AD250480168BD
:104B900049084900314301600068C007C00FB042B6
:104BA00071D120784B4F800705D5F868F0218843F4
:104BB000A1680843F8602078C00752D060680228D6
:104BC00017D0032818D03968012818D08905002982
:104BD00059DAF968890889000143F960FFF78EFD09
:104BE00005466068022812D003281CD0012826D070
:104BF00033E039688903EAE739688901E7E749075B
:104C0000E5E7FFF77BFD411B3348814223D8F86875
:104C10000007800F0228F4D123E0FFF76FFD411B4E
:104C20002D48814217D8F8680007800F0328F4D177
:104C300017E0FFF763FD411B274881420BD8F86856
:104C40000007800F0128F4D10BE0FFF757FD411B4F
:104C50002148814201D90320F8BDF8680007800F80
:104C6000F3D11B480168C907C90FB1420DD90168CA
:104C70004908490031430160006800E003E0C007D3
:104C8000C00FB04201D00120F8BD2078400706D502
:104C9000F868072109028843E1680843F860207832
:104CA000000707D5F8680721C90288432169C900B0
:104CB0000843F86000F036F8F968084A0906090F59
:104CC000515CC840064908600020FFF725FDF8BD8B
:104CD000002002400010024088130000B87D000848
:104CE0000C000020044805490068C968044A4905C9
:104CF000490F515CC84070470C0000200010024072
:104D0000D17D0008044805490068C968044A89043F
:104D1000490F515CC84070470C0000200010024051
:104D2000D17D000810B5194AD1680C2308461840F7
:104D300004280BD0082810D00C2810D0506800048C
:104D4000410F0120C003491C884010BD1068C006F7
:104D500001D50F4810BD0F4810BD0F4810BD880287
:104D60000E4B000F185C0902D368890F491CDB0346
:104D700001D5094A05E01268D20601D5044A00E0CF
:104D8000044A5043FDF7BCF910BD0000001002407A
:104D900000093D000024F40000127A00C87D0008DC
:104DA000FEB504007ED0FE4DEE680C20EF68064094
:104DB0000120000407402078C00747D0082E05D006
:104DC0000C2E0AD101200004874206D128688003F6
:104DD0003CD560680028E5D038E001206168000417
:104DE000814203D129680143296011E00523012292
:104DF0001B0492049942296802D111432960F1E70A
:104E00008143296029680140009128689043286007
:104E1000606800280DD0FFF771FC009005E0FFF7F7
:104E20006DFC0099401A64287DD828688003F6D567
:104E30000CE0FFF763FC009005E0FFF75FFC0099D2
:104E4000401A6428F0D828688003F6D420788007B8
:104E50005CD5E068810604D52A6820210A432A60CF
:104E600088430921042E0DD00C2E01D1002F09D02A
:104E700000283BD02A688A4302432A60FFF73EFCA1
:104E8000074627E02A68520701D500288AD06A68B9
:104E90001F231B029A4323691B021A436A602A6874
:104EA0008A4300E08CE102432A60FFF73BFFE96898
:104EB00009060A0FBB49895CC840BB49086000204D
:104EC000FFF72AFC002872D120E0FFF717FCC01B77
:104ED0000228A9D828684007F7D568681F21090269
:104EE000884321690902084368600FE02868400888
:104EF00040002860FFF702FC074604E0FFF7FEFBD6
:104F0000C01B022890D828684007F7D42078C00634
:104F10005CD5002E0CD0A06900282868A34947D092
:104F20000843286000E0C1E0FFF7E8FB07462CE0FB
:104F30002868800502D5A0690028A7D068680721E5
:104F400049038843216A084368606868217F00023A
:104F5000000A090608436860206A0121400BC90362
:104F6000401C8140E8680006020F8E48805CC1400A
:104F70008D4801600020FFF7CFFB002817D125E006
:104F8000FFF7BCFBC01B0228A3D828688005F7D513
:104F90006868072149038843216A08436860686894
:104FA000217F0002000A0906084368600EE0DEE087
:104FB00088432860FFF7A2FB074604E0FFF79EFB4B
:104FC000C01B022872D828688005F7D42078784F53
:104FD000000724D560690028386910D001210843F2
:104FE0003861FFF78BFB009005E0FFF787FB009926
:104FF000401A02285AD838698007F6D50FE04008D1
:1050000040003861FFF77AFB009005E0FFF776FB80
:105010000099401A022849D838698007F6D42078C8
:10502000400765D500200190A86BC00006D4A86B8E
:10503000012109070843A863012001905D48016828
:10504000C90512D402461068911508431060FFF795
:1050500055FB009005E0FFF751FB0099401A6428CA
:1050600024D854480068C005F5D55048A26882424B
:1050700003D139690143396111E001218902002A14
:1050800007D005231B029A4203D13A690A433A61C9
:10509000EFE73A6982433A61386988433861A0682A
:1050A00000280FD0FFF72AFB009007E05EE0FFF733
:1050B00025FB0099411A4048814257D8386980053C
:1050C000F5D50DE0FFF71AFB009006E0FFF716FBA1
:1050D0000099411A3848814248D838698005F5D48A
:1050E0000198002804D0A96B012000078143A9631F
:1050F000606A002866D00C2E3ED001273F060228A9
:10510000286805D0B8432860FFF7F8FA04462FE076
:10511000B8432860FFF7F2FA064604E0FFF7EEFA1C
:10512000801B022822D828688001F7D4E16AA06A8F
:10513000226B0843E968FD231B0499430A4310438B
:10514000E860286838432860FFF7D8FA044604E08E
:10515000FFF7D4FA001B022808D828688001F7D589
:1051600030E0FFF7CBFA001B022801D90320FEBD77
:1051700028688001F5D425E00128F8D0E8680121ED
:105180000904A26A014091421AD10F218904E26AFE
:105190000140914214D1032189050840216B0DE0A3
:1051A00000100240B87D00080C0000200001000043
:1051B000401002400070004088130000884201D077
:1051C0000120FEBD0020FEBD70B5040007D0002602
:1051D00025464035A662687C002802D005E0012003
:1051E00070BD2E74204600F02AF8022068742068F2
:1051F0000168402291430160A16860682269084308
:10520000E16811430843616901220843A169520220
:1052100011400843E1690843216A0843A16A084331
:1052200021680860A0690421000C0840616A0843F5
:1052300021684860666501206874002070BD704771
:10524000FFB504464068FF21264600270531403659
:1052500081B01D46884202D1A06800280CD0307C65
:10526000012814D001203074FFF748FA0090707CB8
:1052700001280ED002277EE004207074029A009369
:1052800011462046039B00F02CF905B0F0BD02202A
:10529000FBE7029800286DD0039800286AD004200C
:1052A0007074002060650299A1630399A187039936
:1052B000E1872063A086E086206460640121A06805
:1052C000C903884205D120680168012292039143F5
:1052D000016020680168490603D401684022114337
:1052E0000160E068002819D035E020688168C907AE
:1052F00009D0007BA16B0870A06B401CA063E08FFD
:10530000401EE0870AE0FFF7F9F90099401AA84229
:1053100002D3681C02D034E0002D32D0E08F002888
:10532000E3D11BE020688168C90709D0C068A16B80
:105330000880A06B801CA063E08F401EE0870AE01D
:10534000FFF7DCF90099401AA84202D3681C02D08A
:1053500017E0002D15D0E08F0028E3D12946204624
:10536000009A01F07EFA002801D020206065606D6F
:10537000002800D0012701207074002030743846C6
:1053800083E70327F7E7FFB5064604464036307C3F
:10539000002781B01D4601280AD001203074FFF794
:1053A000ADF90090707C0399012804D0022792E0A7
:1053B000022005B0F0BD029800286FD000296DD002
:1053C0000320707400206065029A2263039AA2860B
:1053D000039AE286A063A087E087606420640122CC
:1053E000A068D203904205D12068026801239B0384
:1053F0001A43026020680268520603D40268402300
:105400001A4302600122E068D2029042606825D10E
:10541000002801D001291DD1206B21680088C860B7
:1054200006E020688168890709D5216B0988C16079
:10543000206B801C2063E08E401EE0860AE0FFF7B0
:105440005DF90099401AA84202D3681C02D038E0E6
:10545000002D36D0E08E0028E3D125E0002801D0D1
:1054600001291ED1206B21680078087306E02068AE
:105470008168890709D5216B09780173206B401C6D
:105480002063E08E401EE0860BE0FFF737F90099BD
:10549000401AA84203D3681C03D012E01AE0002D82
:1054A0000FD0E08E0028E2D129462046009A01F074
:1054B00006FA002801D020206065A068002802D0EC
:1054C00005E0032707E02068C16880680090606DF0
:1054D000002800D001270120707400203074384665
:1054E00067E7FFB5044683B00020274640370090A9
:1054F000387C01250C9E012810D001203874FFF75C
:10550000FDF80190797C6268069801290DD0D31FBF
:10551000FD3B08D1A268002A05D102E0022007B0B5
:10552000F0BD042901D00220C0E0049900292CD04C
:105530000599002929D0002827D0797C042901D099
:105540000521797400216165059AA263069AE287B4
:10555000069AA287049A2263069AE286069AA2868F
:105560002164616421680A68520603D40A684023F2
:105570001A430A600122E168D2029142616844D173
:10558000002904D0012802D038E001208EE0206BF1
:1055900021680088C860206B801C2063E08E401E5C
:1055A000E0862BE02068816889070ED5E18E00290E
:1055B0000BD0012D09D1216B0988C160206B801CA3
:1055C0002063E08E401EE086002520688168C907C0
:1055D0000CD0E18F002909D0C068A16B0880A06BB6
:1055E000801CA063E08F401EE0870125FFF786F84E
:1055F0000199401AB04201D3701C56D1E08E0028A8
:10560000D0D1E08F0028CDD143E0002901D001287E
:1056100039D1206B216800780873206B401C20630F
:10562000E08E401EE0862EE02068816889070ED556
:10563000E18E00290BD0012D09D1216B097801736E
:10564000206B401C2063E08E401EE0860025206811
:105650008168C9070CD0E18F002909D0C068A16B0F
:105660000870A06B401CA063E08F401EE0870125FE
:10567000FFF744F80199401AB04202D3701C02D0DF
:1056800013E0002E11D0E08E0028CDD1E08F00284D
:10569000CAD131462046019A01F011F9002807D0FD
:1056A000012000902020606509E00320009006E0C2
:1056B000A068002803D12068C1688068019001209B
:1056C000787400203874009829E70000094910B563
:1056D000401E884201D9012010BD074C60610321A2
:1056E000081F00F0E9FF0020A061072020610020D2
:1056F00010BD0000FFFFFF0000E000E070B50400F7
:1057000005D025462035687E002802D006E001201D
:1057100070BD00202876204600F00AF80220687646
:10572000211D206801F00AFB01206876002070BD71
:1057300010B500680121890788420CD10648816BA9
:10574000012211438163032201210F20FFF738F961
:105750000F20FFF72BF910BD001002400168CB6845
:1057600001221343CB60006881684907490F06296D
:1057700002D0016811430160002070470168CA68C7
:1057800052085200CA600068016A044A114203D1FB
:1057900001684908490001600020704711110000AC
:1057A000704770B50446006801690025C943890740
:1057B000002915DBC168C943890711D4E91E0161BD
:1057C00001202076206880698007204602D0FFF7FC
:1057D000E7FF04E000F078F8204600F076F8257640
:1057E00020680169C943490717D4C168C9434907FB
:1057F00013D40421C9430161022020762068806906
:105800008005800F204602D0FFF7CAFF04E000F0B9
:105810005BF8204600F059F8257620680169C943F5
:10582000090716D4C168C943090712D40821C9431E
:105830000161042020762068C0698007204602D0DC
:10584000FFF7AEFF04E000F03FF8204600F03DF81F
:10585000257620680169C943C90617D4C168C943C0
:10586000C90613D41021C94301610820207620689D
:10587000C0698005800F204602D0FFF791FF04E049
:1058800000F022F8204600F020F825762068016913
:10589000C943C90708D1C168C943C90704D1891ED2
:1058A0000161204600F012F820680169C9434906E9
:1058B00009D4C168C943490605D44021C9430161DF
:1058C000204600F039F870BD7047704770B5154933
:1058D000884226D11448164C00680168491C0160B2
:1058E0001249226909680E781206D2170025114B59
:1058F000521C964212D01A88521C92B21A803C2A2C
:105900000DD30122203082702069C007C017401CCF
:10591000487020690006C017401C08701D8000F008
:1059200091FC70BD60030020580000201C00002086
:1059300000040050180000207047704770470000B6
:10594000F8B502680446D0691168936805072D0F01
:105950005BD0DD07ED0FFF2621360E402E4367D0CA
:10596000C60706D0CE0504D501261662E26F324383
:10597000E267860702220427002E06DADE0704D03B
:1059800026683262E66F3E43E667460706D5DB07C8
:1059900004D023681F62E36F1343E367020709D54E
:1059A00020220A402A4305D0236808221A62E36FA6
:1059B0001343E367E26F002A2FD0800606D58806DE
:1059C00004D5216E002901D020468847E06F216868
:1059D0008968490601D4000724D5204601F07AFAE7
:1059E00020688168490619D5816840229143816009
:1059F000E06E002812D020498163E06EFEF717FDAB
:105A000000280AD0E06E816B06E0850610D58D0671
:105A10000ED5216E1CE020468847F8BD2046FFF7D2
:105A20008DFFF8BD2046FFF789FF0020E067F8BD35
:105A3000C50208D55B0206D501200005106220468C
:105A4000FFF77BFFF8BD030605D50B0603D5616E96
:105A50000029E0D1F8BD4006FCD54806FAD5136808
:105A6000204640218B43136020216167002161663D
:105A700000F03AF8F8BD0000C16E000810B504004F
:105A800003D0606F002802D007E0012010BD002184
:105A900070200155204600F026F824206067206819
:105AA0000168490849000160204601F023FA0128F5
:105AB000ECD0606A002802D0204601F06BF9206823
:105AC00041680922D20291434160206881682A22FC
:105AD00091438160206801680122114301602046E2
:105AE00001F0BEF910BD70477047FEF76DFFFCE78F
:105AF00030B585B014216846FCF74FFB0124002027
:105B000005252D0703900094694601942846FEF769
:105B100049FDAC6205B030BDF8B5394F0546C179D5
:105B20003868002420304172297A8172697AC17202
:105B3000A97A0173E97A4173297B817331A12846DF
:105B4000FCF736FB002858D000213A462E26126872
:105B500003E0022919D0042905D0431817191B792D
:105B6000641C7B70E4B2491CC9B20A29F1D3121932
:105B70003A215170641C224FE4B223A1FCF718FBB8
:105B800002003AD00020396808E01319641C5E70E6
:105B9000E4B2E2E703282AD0052805D013180E192D
:105BA0009B78641C7370E4B2401CC0B20B28F1D324
:105BB00008190026467015A12846FCF7F9FA0028B6
:105BC0001BD03968322220314A7030228A70203846
:105BD000827FCA70C27F0A71027F4A71427F8A71D6
:105BE000827ECA71C07E0872CE730020F8BD2E235B
:105BF0000E19641C7370E4B2D0E70020C043F8BDF6
:105C000028000020302C41004E2C00002C2C2C4170
:105C10002C56000010B50248FEF7B1FD10BD000083
:105C20009C03002010B50C460A490B48002206C010
:105C30000721490201600949C16042618261012175
:105C4000C2614904026201610838FEF7FDFD0448A3
:105C5000048010BD007C00409C030020FFFF00007A
:105C60001A00002010B50348002102880248FEF700
:105C700053FE10BD1A0000209C03002010B50248FE
:105C8000FEF772FE10BD00009C030020FEB5044626
:105C9000002572B60068394BC21804D13849CD6866
:105CA000032189040D4081680191C1680091416917
:105CB0008669002A08D132484038826AC7043A43CC
:105CC0008262826ABA4382620846304348D02B48D7
:105CD0002268C24205D12A48C26803239B049A4322
:105CE000C260002917D02068026901231A430261AB
:105CF00020684161FEF702FD0746FEF7FFFC2168C0
:105D0000C01B0968090703D47D21C9008842F4D962
:105D1000216808204860002E17D020680169012200
:105D20001143016120688661FEF7E8FC7D27064685
:105D3000FF00FEF7E3FC2168801B0968C90601D457
:105D4000B842F6D92168102048600C482168C14249
:105D500006D10B48C1680322920491432943C160D4
:105D6000206801694908490001612168019888603B
:105D700021680098C86062B6FEBD00000084FFBFC5
:105D80004010024000B585B014216846FCF705FAC2
:105D90000948816B01229204914381630C20009099
:105DA0000320019000200290052069460007FEF7BD
:105DB000F9FB05B000BD00000010024038B52248D4
:105DC0000068C069C043800624D42048406A694600
:105DD00008701F4A1168084680308378002B19D15B
:105DE00004887F2C00D903806C46247805884C55A4
:105DF0000088491C435410680246803211883C29AF
:105E000006D9441E0C5D0D2C02D1445C0A2C05D031
:105E1000491C11800C48FFF793FD38BD01782429F7
:105E200010D1417847290DD181784E290AD1C17806
:105E3000522907D101794D2904D14079432801D154
:105E4000012090701380E5E7D80000200048004052
:105E500010000020F0B585B0064614216846FCF716
:105E60009CF91A49886B012292041043886302202E
:105E7000019003200390062004900C2500270520A4
:105E80000297009569460007FEF78CFB114C1048FD
:105E9000A760E7602761A761656141C40D48083CC0
:105EA000FFF7ECFD012200211D20FEF789FD1D20DA
:105EB000FEF77CFD20680168202211430160206804
:105EC000816801221143816005B0F0BD00100240DD
:105ED00000480040D8000020F0B585B01421684685
:105EE000FCF75BF92248416B821411434163E020C7
:105EF000009000240320052702263F070390019607
:105F00000294694604943846FEF74CFB10200125A4
:105F100000900195694602953846FEF743FB012241
:105F200010213846FEF7E4FB1348124901608460F3
:105F30000661FF2145610531C460416069028161EC
:105F40000462446208218462C1610721C162FFF7D3
:105F50003BF9642001F09BFE7D24240100F00EF843
:105F6000332803D0204601F092FEF7E705B0F0BDDC
:105F700000100240003001402804002010B50F201E
:105F800000F002F810BD00007CB58021084369468E
:105F9000087005242407002210212046FEF7A8FBE4
:105FA000012001F07CFE7D25ED002B460122694693
:105FB0000948FFF7E8F92B46012201A90648FFF737
:105FC0003FF9012001F06BFE012210212046FEF76F
:105FD0008FFB694608797CBD280400207CB540060B
:105FE000400E6A461070117105242407002210210A
:105FF0002046FEF77DFB012001F051FE7D25ED00DE
:106000002B46012269460948FFF7BDF92B460122BC
:1060100001A90648FFF7B7F9012001F040FE01226F
:1060200010212046FEF764FB7CBD00002804002000
:1060300010B57D23DB0006A2322106A0FDF7E4FDAA
:10604000002801D0002010BD0020C04310BD00007A
:106050004F4B000041542B514C42534346473D2285
:10606000746F6B656E222C223639714C7433546C0C
:106070003430426455353937220D0A0010B586B0E8
:106080001C4B1DA20B211DA0FDF7BEFD0024E44307
:10609000002812D01CA1FCF78BF800280DD000219D
:1060A0006A4643185B785354491CC9B20A29F8D38D
:1060B00000239372C17A2C2902D0204606B010BD6D
:1060C000002103AA4418247B5454491CC9B209294D
:1060D000F8D368464375002101F060FE0B4C22683E
:1060E00003C2002103A801F059FE2268D16090602C
:1060F0000020E3E7B80B00004F4B000041542B5148
:106100004C42533D300D0A002C000000B800002026
:1061100070B5284C617C2046C06901293AD0017FC6
:10612000002945D02030C078002841D1FDF7B2FCCD
:1061300021A001F0FFF8142001F0A9FDFFF722FED5
:106140002148FFF71BFBFFF78DFDE0691F4D00683D
:10615000606501210846FEF745FCE069616D006855
:10616000401AA842F5D300F05DFD4B20C001FFF7B7
:1061700071FE1548FFF7F2FAFFF780FD14A001F059
:10618000D9F8C82001F083FD144800680079002880
:1061900007D008E00068216D401AC82808D90020FF
:1061A00005E0FDF7C7FCE069006820650120607428
:1061B00070BD00003C000020656E74657220736C39
:1061C0006565700D0A0000006003002040190100A1
:1061D00077616B652075700D0A00000030000020AB
:1061E00010B586B014216846FBF7D7FF1248C26A83
:1061F00002210A43C262C06A104C08400590002088
:10620000019002900120009069462046FEF7CAF9ED
:106210008020009069462046FEF7C4F920690849AD
:10622000C007C0170968401C487020690006C017E5
:10623000401C087006B010BD001002400004005061
:106240001C000020F8B59A4F9A4EF869817F2030E3
:10625000C07801292FD0012809D1002001F062F86F
:1062600000F0DCFA002802D1F9692031C870002260
:1062700035467A628E4EBA627A70114670361C23A9
:1062800000204B435B198400401CC0B21A51072800
:10629000F9D34B00491CC9B2F2520429EFD3854906
:1062A000002024398300401CC0B2CA500628F9D30C
:1062B0003A703A62F8BD002837D000F0B4FA78821C
:1062C00000F0BBFAB88200F0C2FAF882788AFDF7D3
:1062D0009DFAB865B88AFDF799FAF865F88AFDF76E
:1062E00095FA3866BA6D002A114600DA49426429E7
:1062F00027DAF96D002900DA4942642921DA0028F9
:10630000014600DA494264291BDA7978491CC9B28E
:106310007970042917D300217970796A644B490098
:1063200070335C5A641C5C520DE0572000F0FAFF99
:1063300000F074FA5728BDD1F96901202031C870E6
:10634000F8BD00217970FB6E796EC51AFC6DBB6ECD
:10635000511AE31A002900DA4942002B00DA5B42A5
:10636000C918002D00DA6D42491989B23983BC661B
:106370007A66F866786A1C2250438019962903D2FF
:106380000168491C016029E0FF232D33994203D2A3
:106390004168491C416021E0FF23C333994203D285
:1063A0008168491C816019E04B23DB00994203D2CC
:1063B000C168491CC16011E03F4B994203D2016999
:1063C000491C01610AE0E1239B00994203D2416923
:1063D000491C416102E08169491C8161B86A374901
:1063E000401CB86288422CD3786A401C7862F969F4
:1063F00020310873042822D300212E4A1C230E4684
:1064000000205E43B3188200FD699C587519AD18D1
:106410002C630024401CC0B29C500728F3D34800D2
:10642000234CFB697034C318225A80331A8400222B
:10643000491CC9B222520429DFD30020786200200F
:10644000B86238781B4A8100243A53583C8B1B1998
:106450005350396A1A4B491C3962994200D26FE78E
:10646000401CC0B2387006281ED3002108468300A5
:10647000D358401C5918C0B20628F8D3114881429D
:1064800004D2F8698162012120300171012081006C
:10649000535889188039401CC0B2CB670628F6D300
:1064A000052038700020506100203862F8BD0000DF
:1064B0003C00002064170020EE020000401901009B
:1064C00070170000AAA40B00F0B5A3B00C46074655
:1064D0001E461546802103A8FBF75FFE3B466F462C
:1064E00070C700220BA103A800F034FF81B2124B49
:1064F00012A203A8FDF788FB002807D011A1FBF723
:1065000057FE002802D0002023B0F0BD0020C04379
:10651000FAE7000041542B514D54434F4E4E3D2558
:10652000642C2225732573222C222573222C2225EC
:1065300073220D0A00000000B80B0000514D5443B7
:106540004F4E4E002C30000010B590B040216846F0
:10655000FBF723FE0DA214A1684600F0FBFE81B2FA
:10656000184B19A26846FDF74FFB0024E4430028AE
:1065700009D017A1FBF71CFE002804D08078303822
:1065800040B210B010BD2046FBE700003230303082
:106590003039333239372E6E6F6E2D6E622E637442
:1065A00077696E672E636E0041542B514D544F50E6
:1065B000454E3D302C222573222C313838330D0ABC
:1065C00000000000AC0D0000514D544F50454E00EE
:1065D000302C0000F7B50E46C4B00746FF2101314C
:1065E00003A8FBF7DAFD224D00246888401C688070
:1065F0004698FBF7F1FD0290019700966B88002208
:106600001CA103A800F0A6FE81B2C82322A203A801
:10661000FDF7FAFA214D7D263601FF212868013168
:10662000095A002904D01CA1FBF7C2FD002806D19D
:10663000012001F02CFB641CA4B2B442EDD3322043
:1066400001F025FB4698FBF7C7FD81B2144B15A25C
:106650004698FDF7D9FA002807D015A1FBF7A8FD49
:10666000002802D0002047B0F0BD0020C043FAE768
:106670002C00002041542B514D5450554245583D5B
:1066800025642C25642C25642C302C222573222C87
:1066900025640D0A000000003E00000014000020E8
:1066A000B80B00002B514D54505542455800000086
:1066B0002C300000704700008307FF22DB0E9A4059
:1066C0008907090E994000280BDA0007000F0838E7
:1066D000830808489B001818C36993430B43C361A0
:1066E0007047830804489B001818036893430B43C2
:1066F0000360704700ED00E000E400E07047000038
:10670000F0B53A4D8BB02868017C00296BD0002190
:1067100001740E460324364FFFF7B0FC00280CD05E
:10672000641E64B2384601F0B2FA002CF4DC314C3D
:106730002068017900290FD018E02868C2688168B4
:10674000009101920CC82CA102A800F003FE02A83F
:10675000FCF78EFC0126EAE7807F012843D129A0BF
:10676000FCF786FC2068007900283CD03000284ED9
:10677000284F38D020682968C368826803C9FBF7AE
:10678000D7FD32463B46FBF783FE25D328682168B8
:106790000CC88868C968FBF7CBFD32463B46FBF75F
:1067A00077FE19D320682968436902698868C96837
:1067B000FBF7BEFD32463B46FBF76AFE0CD328686A
:1067C0002168C368826808694969FBF7B1FD3246F0
:1067D0003B46FBF75DFE06D2216801202031487060
:1067E0000D49096848710BB0F0BD0000B8000020E9
:1067F000B80B0000580000204330323A25662C25A3
:10680000660000004330313A6E756C6C0000000089
:10681000711E4E603AAD8B3F3000002010B5202035
:10682000FFF7B2FB10BD10B52920FFF7ADFB040246
:106830002820FFF7A9FB204310BD10B52B20FFF740
:10684000A3FB04022A20FFF79FFB204310BD10B5D5
:106850002D20FFF799FB04022C20FFF795FB204326
:1068600010BDF8B504464068FF26012305369B029B
:10687000B0420AD1A0685D01A84201D0984204D17B
:10688000206805684027BD43056060682025B04248
:1068900010D1A06898420DD000920B4600228021B2
:1068A000204600F02DF8002803D0606D2843606575
:1068B0000320F8BD00920B4600220121F0E738B515
:1068C00004464068FF2305332025984204D10092F6
:1068D0000B460022802107E05120005D05280DD1E4
:1068E00000920B4600220121204600F009F8002802
:1068F00004D0606D28436065032038BD002038BD9A
:10690000F8B51D4617460E46044609E0681C07D038
:10691000FDF7F4FE0699401AA8420BD2002D09D0CB
:1069200020688168304688432ED00020B842EDD1DF
:106930000020F8BD20684168E02291434160606812
:10694000C11FFD390CD10121A068C903884202D0C2
:106950004911884204D120680168402291430160B6
:106960000121A06A4903884207D1206802688A434E
:106970000260206802680A430260012040346074AB
:10698000002020740320F8BD0120CFE770470000ED
:1069900010B5254C0123617A002916D00022012967
:1069A00017D043291DD041291ED0392928D030299C
:1069B0002ED0312908D1222833D0217A192903D2A7
:1069C0001A4A5054491C217210BD2228FCD163720E
:1069D00010BD412801D0432801D1607210BD627200
:1069E00010BD3028FBD1F8E73928F6D0302804D084
:1069F0003128F4D1E370A270F1E7A370E270EEE702
:106A0000392803D02228EAD12371E8E76371E6E749
:106A1000222804D03128E2D16072227210BDA37105
:106A200010BDE371DBE700003C000020D41700201C
:106A3000F0B5434E0024707987B001280AD141A0F7
:106A400000F078FC4248747100680470FCF706FCA2
:106A5000FDF7BAFF30790125012806D1F069203011
:106A600005703CA000F066FC3471B07901280CD1AF
:106A7000F069017F01290CD020304570384800684A
:106A8000457138A000F056FCB471F079012802D0AD
:106A900034E037A0F6E700273BA13C48FBF788FB32
:106AA000002827D000216A4643185B785354491CBC
:106AB000C9B20A29F8D39472C17A2C291AD10021BB
:106AC00003AA43181B7B5354491CC9B20929F8D3A4
:106AD00068464475002101F061F9F269D160906067
:106AE000002103A801F05AF9F269002F51611061E9
:106AF000157107D026A000F01DFCF471B0780128B4
:106B000002D00EE026A0F6E7F06904778577C57716
:106B10002030447012480068447124A000F00AFC40
:106B2000B470F078012808D1F0690577457784774B
:106B3000047121A000F0FEFBF47007B0F0BD00006E
:106B40003C00002041393920436D640D0A000000EB
:106B5000B4000020413920436D640D0A000000009C
:106B600030000020433020436D640D0A0000000017
:106B7000433020436D6420627574206E6F20616322
:106B800074696F6E0D0A00003A000000D4170020EF
:106B900043303120436D64206572720D0A0000009D
:106BA00043303120436D640D0A0000004130206302
:106BB0006D640D0A00000000413120636D640D0A10
:106BC0000000000030B589B0104DFCF7F7FE044618
:106BD000401C09D00EA1684600F0BCFB4420012CEB
:106BE00006D0022C09D00CE0284601F050F8ECE762
:106BF000694608725820487203E059216A461172AA
:106C000050726846FCF734FA09B030BDB80B00008A
:106C1000506F7765724F6E3A3030000010B5FDF757
:106C200073FD10BD10B598B034216846FBF7B5FA76
:106C300014210DA8FBF7B1FA182112A8FBF7ADFA41
:106C40001A4801680322D2029143C21489180160D4
:106C50001820009001200590069003200024400396
:106C60000890079409946846FEF79AF8002800D027
:106C7000FEE70F200D900E940F94109400211194B4
:106C80000DA8FDF779FF002800D0FEE786201290BE
:106C90000120800417901494159412A8FDF7BCFEEF
:106CA000002800D0FEE718B010BD000000700040C2
:106CB00010480168821511430160C1680E4A1140F5
:106CC000C16001680D4A11400160816849084900AE
:106CD000816001680122920491430160C168FD2234
:106CE00012049143C160002101610549C00388601D
:106CF00070470000001002400C40FF88F6FFF6FECF
:106D000000ED00E010B50248FEF74BFD10BD00009D
:106D10006003002010B50123074A9B0713605160F0
:106D2000002191601161D0601046FEF7E7FC024837
:106D3000FEF714FD10BD00006003002070B502686E
:106D400001239B07114C124D984203D0A04201D061
:106D5000A84203D17026B2434E683243984203D012
:106D6000A04201D0A84204D103231B029A43CB685E
:106D70001A4380239A430B691A4302608A68C262ED
:106D8000096881620121416170BD00000008014075
:106D90000014014010B5818CC90707D001684A680A
:106DA00001235B049A43836A1A434A60818C8907F2
:106DB00007D501684A6801231B049A43C36A1A4332
:106DC0004A60818C490707D501684A6801239B0402
:106DD0009A43036B1A434A60818C090707D50168FF
:106DE0004A680123DB039A43436B1A434A60818C50
:106DF000C90607D501688A6801231B039A43836B80
:106E00001A438A60818C890607D501688A68012344
:106E10005B039A43C36B1A438A60818C490612D57F
:106E200001684B6801221205046C934323434B60B5
:106E3000016C914207D101684A6803235B059A43BC
:106E4000436C1A434A60818C090607D501684A6879
:106E50000123DB04806C9A4302434A6010BD0000AA
:106E6000F8B500250446C567FDF748FC07462068CD
:106E70000068124E000709D501213B460022490552
:106E80002046009600F03AF900280DD120680068ED
:106E900040070BD501213B4600228905204600967C
:106EA00000F02CF9002801D00320F8BD20206067F5
:106EB000A067603425740020F8BD0000FFFFFF01CB
:106EC00010B5806A0022014640314A834A82FEF7AB
:106ED00035FD10BD01680A68FF2321339A430A601B
:106EE00001688A68520852008A6020218167002167
:106EF00001667047F8B504462669A368E76933431D
:106F00006669102100203E43226833431668054617
:106F1000704F3E401E4316602268536803263603B6
:106F2000B343E668334353606B4E2368A269B342B0
:106F300001D0266A32439E680B273F02BE431643A8
:106F40009E60664A2368664E93420AD1F2680C2618
:106F5000324025D0042A27D0082A23D00C2A10D169
:106F60000EE05D4A93420CD1F2680326B60232402D
:106F700016D01E15921B17D0921B13D0B24200D10F
:106F80000821554E564AF713403AB34235D10029ED
:106F90000CD002290DD0042912D008291CD113E0ED
:106FA0000021EEE70221ECE70421EAE7FDF79AFE73
:106FB00008E01068C00601D54A4F05E04A4F03E0DB
:106FC000FDF7B0FE070008D0626850001018B84204
:106FD00002D81003B84201D2012576E0390E3E02F4
:106FE0005008002330185941FBF7A0F8032109028B
:106FF0003E4A411A914266D9EEE7E3693C4EBB42F4
:1070000035D10B0000F0D1F90906090C251A252508
:1070100025202500FDF766FE12E0FDF773FE0FE068
:1070200010686168C00602D54808324A01E0324A59
:1070300048088018FBF764F880B20BE0FDF772FE99
:10704000616840004A08F4E76168012248081204B8
:10705000EFE7012501461039B142BDD82449491C4A
:1070600001400007420F20680A43C2602DE00B0078
:1070700000F09BF90906090C241A2424242024007A
:10708000FDF730FE12E0FDF73DFE0FE0106861688D
:10709000C00602D54A08134801E013484A081018F0
:1070A000FBF72EF880B20AE0FDF73CFE61684A0863
:1070B0008018F5E761684808C019F1E70125014625
:1070C0001039B14288D82168C86000202066606607
:1070D0002846F8BDF369FFEF004800400044004037
:1070E0004010024000093D000024F400FFFC0F00A6
:1070F000EFFF000000127A000048E801FFB581B000
:107100001E46174604460A9D08E0681C06D0FDF797
:10711000F5FA801BA8420CD8002D0AD02068C1695E
:107120000298884318D00020B842EED0002005B065
:10713000F0BD20680168FF22A13291430160206800
:10714000816849084900816020206067A0670020AD
:10715000603420740320EAE70120E5E700B585B03C
:1071600014216846FBF719F80948816B0122520483
:10717000914381630320400200900320019000208E
:107180000290052069460007FDF70CFA05B000BD26
:107190000010024010B511480068C069C043800665
:1071A00017D40F48406AC4B22046FFF7F1FB0D4ADE
:1071B000FF2051680130405AFE280AD20023491CA2
:1071C00043545068C11DF9310A8884540888401C12
:1071D00008800248FEF7B4FB10BD000058010020F3
:1071E000004400401000002070B586B0064614210F
:1071F0006846FAF7D2FF1B49886B012252041043FC
:107200008863032040020090022001900320039035
:107210000420049001250520029569460007FDF72A
:10722000C1F91148114C41C4002020606060A06089
:1072300020610C20E0600D48083CFEF71FFC002296
:1072400011461C20FDF7BCFB1C20FDF7AFFB20689E
:107250000168202211430160206881682943816010
:1072600006B070BD001002400044004058010020EC
:1072700070B596B0142110A8FAF78FFF1B49FF20B4
:10728000FCF722FE194C207877282CD1552020704D
:1072900020222146FF20FCF724FE154D00202968FE
:1072A00022180B18401C5278C0B25A701328F7D31A
:1072B000002208180F4E4270052410A8FCF73CFB72
:1072C000002806D0641EE4B2304600F0E0FC002C3A
:1072D000F3D12B6810AA08A168465B1C00F03AF8AD
:1072E0006846FBF7C5FE16B070BD0000B51800205B
:1072F000B4000020B80B00004139393A25733A2513
:107300007300000010B50022054B06E0DC6964063E
:10731000FCD5845C9C62521C92B28A42F6D310BDAA
:107320000044004010B501462020FEF757FE002023
:1073300010BD00000FB410B503A9044B044A029815
:1073400000F004F910BC08BC04B01847A97C000880
:10735000BC0000200FB410B504A9074B02AA039883
:1073600000F0F4F8044602A9002000F08BFC20464F
:1073700010BC08BC04B01847857C00082021020C12
:1073800001D010211046020A01D010460839020926
:1073900001D01046091F820801D01046891E4208FC
:1073A00001D0881E7047081A704730B47446641EB6
:1073B0002578641CAB4200D21D46635D5B00E31878
:1073C00030BC184702E008C8121F08C1002AFAD1D1
:1073D00070477047002001E001C1121F002AFBD155
:1073E00070470000F0B51FB484B007980699020DED
:1073F000014314D04A484B491018484305140F98CC
:1074000001280E981CD0281A401C0024464E4749DB
:10741000009401910290002814DA474227E00F9867
:10742000012443A3012808D0002104980F9A846006
:107430000360C260416009B0F0BD0E98C143F4E73B
:107440004042E2E7074612E0F80707D022463346FB
:1074500001990098FAF77AFF01910090224633468D
:1074600010461946FAF772FF04460E467F10002FA9
:10747000EAD10298019B0028009A0799069802DA3F
:10748000FAF764FF01E0FBF759F904460E460022C3
:10749000284BFAF7FDFF03D80020C043014607E060
:1074A0000022254B20463146FAF79EFEFBF7BEF937
:1074B000102409E0002C0ADB0A220023FAF736FE2A
:1074C000059B30321A55641E02460A43F2D111223E
:1074D000641C059B121B1C190F9B012B03D001235D
:1074E00008430ED10AE0084304D011200E9000207A
:1074F0000F9084E70E98151A6D1E0BE00E988242CD
:1075000002DD00236D1C03E0824201DA00236D1EC0
:10751000002BEED004980F998260C16030C08AE7DA
:1075200001FCFFFF104D0000000024400000F03F70
:10753000300000000000F0430000E03F30380A282F
:1075400001D201207047002070470000FFB597B0BE
:107550000646002518E2252877D100242746FD4954
:10756000049400E00443761C32780120203A9040D5
:107570000842F7D130782A280ED00222307801460E
:107580003039092916D804990A235943303940184B
:107590001443761C0490F1E7189802C804911890DF
:1075A000002904DA012040030443484204900220E9
:1075B0000443761C30782E2814D1042004437078BC
:1075C000761C2A2809D11898761C80C8189009E0E2
:1075D0000A214F43303FC719761C307801463039B5
:1075E0000929F5D930786C2810D006DC4C281AD03F
:1075F00068280ED06A2817D104E0742813D07A289E
:1076000012D110E00120400504430CE001210905DE
:1076100001E0032109050C437178814203D1012067
:1076200000052418761C761C3078119066280BD043
:1076300013DC58287DD009DC00287BD04528F6D003
:107640004628F4D047281AD1A5E118E0632835D0A0
:10765000642870D0652812D19DE170286CD008DCB8
:107660006728F1D069287BD06E280DD06F2806D10D
:10767000BAE073282ED0752871D0782859D01A9A7C
:10768000199990476D1C7EE16002400F022809D0D5
:1076900003280DD00428189801680DD00D60001D36
:1076A000189070E11898EA1701680D604A60F6E7D3
:1076B000189801680D80F2E70D70F0E718986A4697
:1076C00001781172001D18900020507202A80090DD
:1076D000012005E0189802C8189000200091C043CE
:1076E00061070DD5002101E00199491C0191B942C2
:1076F00012DA8142F8DB009A515C0029F4D10BE0E8
:10770000002101E00199491C01918142FADB019AB3
:107710000099895C0029F5D1019904981A9B471AB0
:1077200021463846199A00F097FA019940194518F0
:107730000BE04FE02CE113E04EE000980099007858
:10774000491C00911A9A199990470198401E01907E
:10775000401CF2D1214638461A9B199A10E137E0B5
:107760000A200021009001916002410F022907D0F8
:10777000189A01CA1892C2179446032908D00AE041
:107780001898C01DC108C90005C91891944607E0A2
:1077900000B2C2179446042902D140B2C1178C46E8
:1077A00000226146944506DA0A4600214042914192
:1077B0008C462D2102E0210504D52B216A46117348
:1077C000012103E0E10701D02021F7E7029155E014
:1077D0000A200AE0102008E0102000900021042078
:1077E00004430191082703E0082000210191009043
:1077F0006002410F022907D0189A01CA189200228C
:107800009446032908D008E01898C01DC108C90093
:1078100005C91891944603E080B2042900D1C0B292
:1078200000210291210729D51199702906D0009ACB
:107830001021019B4A401A4305D00EE040216A46C0
:107840001173012108E06146014306D030216A46E8
:1078500011731199517302210291009A0821019B21
:107860004A401A430AD16146014301D1610705D557
:1078700030216A46117301217F1E02911199582906
:1078800004D035A10E910DA90D910DE037A1F9E7B6
:107890006146019B009AFAF749FC0E9B8C469B5C63
:1078A0000D9A521E0D92137061460143F0D10D984E
:1078B00005A9081A20300190600703D501200004B3
:1078C000844300E001270198874201DD381A00E077
:1078D0000020019900904118029809180498401A54
:1078E0000490E00306D421461A9B199A049800F0EC
:1078F000B3F94519002706E003A81A9AC05D199943
:1079000090476D1C7F1C02988742F5DBE0030CD585
:1079100021461A9B199A049800F09EF9451904E033
:107920001A9A3020199990476D1C0099481E0090B2
:107930000029F5DC08E00D980D990078491C0D919F
:107940001A9A199990476D1C0199481E01900029B7
:10795000F1DC63E109280100303132333435363748
:10796000383961626364656600000000303132338B
:10797000343536373839414243444546000000002B
:1079800000F05AF94519761C3078002800D0E2E55D
:1079900028461BB0F0BD600700D406271898C01D0C
:1079A000C108C90048680A680831C30FDB0718918D
:1079B000190001D09CA108E0210501D59BA104E09C
:1079C000E10701D09AA100E09AA1430011985B0859
:1079D000109165280CD006DC452809D046281DD01A
:1079E000472841D141E0662818D067283CD13CE0C7
:1079F0000021112F01DB112000E0781C0191009083
:107A000008A911A8FFF7EEFC139905910021119A1E
:107A100015927F1C12980197009150E00120C00739
:107A200003900120019008A9009711A8FFF7DAFC44
:107A3000139A149905920022119B009212981593A3
:107A4000059A0192002901D0104602E0791C4018E5
:107A50000190381A01D5019804E04042401E009080
:107A6000781C0190C01B029043E0012F00DA01272F
:107A70000021112F01DD112000E038460191009016
:107A800008A911A8FFF7AEFC13990591119A0021DE
:107A9000129815920091019721070CD40599B942CB
:107AA00001DB019900E00191012904DD159A491ECD
:107AB000515C302906D0B84201DA011D05DA0121F6
:107AC000029115E00199491EEDE7002805DC0099B7
:107AD000411800910199091A03E0019A411C914251
:107AE00000DD01910099401A401C02900120C0075E
:107AF0000390200706D402990198814202DB0020FE
:107B0000C043029000206946C87707AF012103985F
:107B10000337C907884224D0022011902B201290ED
:107B2000039800280CDA404203902D20129007E0C1
:107B30000A210398FAF7E4FA30317F1E0390397076
:107B40001199481E11900029F2DC03980028EFD10A
:107B5000791E129808703078202108404530BF1EE9
:107B6000387006A8C01BC01D03901098007800282C
:107B700000D00120019941180298C01709180398F4
:107B800009180498401A401E0490E00306D42146C8
:107B90001A9B199A049800F05FF84519109800781C
:107BA000002803D01A9A199990476D1CE00324D538
:107BB00021461A9B199A049800F04EF845191CE0CA
:107BC0000098002807DB00990598884203DD159886
:107BD000405C199901E0199930201A9A9047009851
:107BE0006D1C401C00900298401E0290002804D199
:107BF0001A9A2E20199990476D1C0199481E0190E0
:107C00000029DDDC05E038781A9A7F1C1999904725
:107C10006D1C0399481E03900029F4DC21461A9B31
:107C2000199A0498ACE600002D0000002B0000001B
:107C30002000000000000000F8B5044600251E46A4
:107C40001746880404D405E039462020B0476D1C4F
:107C5000641EF9D52846F8BDFFB50446002581B05D
:107C60001E46C80301D5302700E02027880404D52C
:107C700005E038460399B0476D1C641EF9D52846C7
:107C800005B0F0BD0A68531C0B601070704782216C
:107C90004843002100E0491C8142FCD3704700BFEB
:107CA000401EFCD2704700000349CA695206FCD549
:107CB000C2B28A6270470000004800402F492E4837
:107CC0008860FAF70AFAFEF7ADFF2D480169490806
:107CD000490001617D20C000FFF7D9FFFBF76AFB77
:107CE0006420FFF7D4FF14210020FCF739F9FAF7DC
:107CF00095FBFBF7F1F923490968A03108724B2085
:107D0000C001FEF7A7F820A0FFF714FBFDF7F0FE77
:107D1000FEF7E2F8FEF764FA1E490020FDF782FF45
:107D2000FBF7B6FA1C493220FEF7F4FFFBF7EEFF33
:107D3000FFF79EFAFEF746FFFBF788FBFEF778FE9B
:107D4000FBF7B8FAFBF716F8FAF7D0FFFBF724F8C1
:107D5000FBF7B8FBFBF7FAFBFBF766FCFBF7BEFC97
:107D6000FBF720FDFEF7CCFCFBF744F9FBF7DAF953
:107D7000FEF7CEF9E0E700000020000800ED00E08B
:107D800000E000E058000020656E746572206170AC
:107D9000700D0A00FFFF00000B02000000B50A464C
:107DA00083B000210091019101466846FAF7EFFB8C
:107DB0000199009803B000BD000000000000000021
:107DC0000102030406070809030406080C10182022
:107DD000300000000001020304DDDDDDDDDCBBBBA3
:107DE000DDDDDDDDDDDDDDDDDD9888888888888806
:107DF0008877777777778888888555555666666659
:107E00006666666666666888888333333222222215
:107E100022222222222228888D00000043353A2582
:107E2000642C25642C25642C25642C25642C256465
:107E30002C25643A25642C25642C25642C25642C7F
:107E400025642C25642C25643A25642C25642C2576
:107E5000642C25642C25642C25642C25643A256427
:107E60002C25642C25642C25642C25642C25642C5D
:107E700025640000947E000800000020C00000007F
:107E8000C4730008547F0008C0000020901C00004C
:107E9000D47300080100000004000000000000008E
:107EA00000002000D80100205C020020000000003B
:107EB000200000200000000080040020A604002014
:107EC00000000000D80400200000000000000000B6
:107ED00000000000000000000000000000000000A2
:107EE000000000000000000000000000F01700206B
:107EF0000000000000000000000000000000000082
:107F00000000000000000000000000000000000071
:107F10000000000000000000A08C00000000000035
:107F20000000000000000000000000000000000051
:107F30000000000000000000000000000000000041
:107F40000000000000000000A018002038190020E8
:047F5000000000002D
:04000005080020E5EA
:00000001FF
