:020000040800F2
:10000000E00D0020E5000008111A0008551900084D
:1000100000000000000000000000000000000000E0
:100020000000000000000000000000005B1A000853
:100030000000000000000000591A00085D1A0008C6
:10004000F7000008F7000008F7000008F7000008B4
:10005000F7000008F7000008F7000008F7000008A4
:1000600000000000F7000008F7000008F700000893
:10007000F7000008F700000800000000F700000883
:100080000000000000000000000000000000000070
:10009000F700000800000000F7000008F700000863
:1000A00000000000F7000008000000000000000051
:1000B00019200008F7000008000000000000000000
:1000C0000348854600F0F6F800480047112500086F
:1000D000E00D002030BF72B6704762B6704780F303
:1000E000088870470448804704480047FEE7FEE759
:1000F000FEE7FEE7FEE7FEE7811B0008C1000008FF
:1001000030B50B46014600202022012409E00D46AF
:10011000D5409D4205D31D469540491B2546954037
:1001200040191546521E002DF1DC30BDF0B51FB44C
:100130000646002082B005464024019100901BE055
:10014000019922460F46304600F06AF8049A059B52
:10015000801A994110D310461946224600F050F8F3
:10016000361A8F410197224601200021009F00F09E
:1001700047F838184D4100902046641E0028DFDC07
:10018000019B00982946324607B0F0BDD2B201E08B
:100190000270401C491EFBD270470022F6E710B5E2
:1001A00013460A4604461946FFF7F0FF204610BDE5
:1001B00030B505462A460B4610781C78521C5B1C4D
:1001C000002801D0A042F7D0002C03D0002802D094
:1001D0006D1CEFE7284630BD421C0178401C002909
:1001E000FBD1801A704770B5064601F0BDFF046868
:1001F00005460A220021304600F024F82C6070BD2C
:1002000010B5202A04DB0146203A9140002010BDA1
:10021000914020239C1A0346E3401943904010BDAF
:1002200010B5202A04DB0846203AD040002110BD3A
:100230000B46D340D0402024A21A914008431946CF
:1002400010BD0000F7B5009C0F4600262578641C01
:10025000002D05D000F040F80068405DC007F5D1E2
:100260002B2D02D02D2D18D0641E39462046029A1F
:1002700000F036F8002F04D03968A14201D100996E
:1002800039607105022400290BDA4042002803DDA1
:1002900001F06AFF0460A007FEBD01208002064352
:1002A000E3E70028F8DA01F05FFF04600048FEBDD4
:1002B000FFFFFF7F064C0125064E05E0E36807CCF3
:1002C0002B430C3C98471034B442F7D3FFF7FCFEA5
:1002D000B0260008D02600080048704764260008B1
:1002E000F7B582B0029C00272078641C1546019760
:1002F000302802D0002D15D015E020780127641C8D
:10030000782804D0582802D0002D09D00BE0002D09
:1003100001D0102D07D1002710252078641C02E0A1
:10032000082500E00A250026009610E00099012724
:1003300069430818020C294680B2714300908E1858
:100340003804864201D3012001902078641C29469C
:1003500000F019F80028E9DA0398002805D0002FEA
:1003600001D0641E00E0029C04600198002806D0C1
:1003700001F0FAFE02210160C81E05B0F0BD00992F
:1003800030040843F9E73A2800D2303820230246E7
:100390009A43412A01D310463738884201D30020BE
:1003A000C043704710B508A00C4A102100F03AF97C
:1003B000002806D00AA1FFF7FBFE002801D000208C
:1003C00010BD0020C04310BD41542B51485454501F
:1003D0004745543D38300D0A0000000088130000E6
:1003E0004F4B000070B5054608A00D4A112100F0E2
:1003F00019F9040007D00BA1FFF7DAFE002802D09C
:1004000000202C6070BD0020C04370BD41542B51B2
:1004100048545450524541443D38300D0A000000C4
:1004200088130000434F4E4E4543540070B5A0B0B2
:10043000054680216846FFF7B0FE2846FFF7CCFE50
:10044000024614A1684601F06DFE7D2681B2360198
:100450003246684600F0E6F80024E443002816D04F
:1004600011A1FFF7A5FE002811D02846FFF7B4FE22
:1004700081B23246284600F0D5F8002807D00CA1FA
:10048000FFF796FE002802D0002020B070BD204665
:10049000FBE7000041542B514854545055524C3DF9
:1004A00025642C38300D0A00434F4E4E454354000E
:1004B0004F4B000010B588B020216846FFF76DFE55
:1004C0007720694608700949002009686A460B18B8
:1004D0001418401C5B78C0B263701428F7D3202234
:1004E0006946FF2000F047FA08B010BD1800002050
:1004F00010B5A0B000246946FF2000F02FFA68462E
:1005000001780C4855290068017002D0AA2903D04F
:100510000BE0002020B010BD69460A190319641CC5
:100520005278E4B25A70132CF7D3002100194170AD
:100530000120EFE718000020F8B5174E3168084693
:100540001830491C00F0B0FA002822D100240127FD
:10055000FF02009430688069051BBD4200D93D460A
:100560006A462946204600F045FA002811D1E009E4
:100570005030C0B22A46009900F0FDF9002808D199
:10058000306864198069A042E4D8FFF793FF00281F
:1005900001D00020C043F8BD1800002010B519227A
:1005A00008A05201042100F03DF8002806D007A160
:1005B000FFF7FEFD002801D0002010BD0020C04341
:1005C00010BD000041540D0A000000004F4B000018
:1005D00010B588B0044620216846FFF7DEFD2246AC
:1005E0000BA1684601F09EFD81B2192252016846B6
:1005F00000F018F8002807D009A1FFF7D9FD00285E
:1006000002D0002008B010BD0020C043FAE700006F
:1006100041542B4950523D25643B26570D0A00009A
:100620004F4B0000F8B5194E0546112730681446A7
:10063000FF010022C3199A800260284601F056FD8E
:10064000294613A001F05EFD65083068C11989884C
:1006500004290FD30168A9420CD3C2199288002142
:10066000001D115431680CA0091D01F04BFD3068CC
:10067000001DF8BD0168A14201D30020F8BD491C4E
:100680000160012001F031FFDFE7000010000020D1
:1006900073656E643A257300726563763A25730D4F
:1006A0000A00000070B51A4E0821304600F0ACFB7D
:1006B000012822D001228021304600F0AAFB4B20E5
:1006C000000101F012FF00228021304600F0A1FB62
:1006D000104D00240821304600F096FB012805D07B
:1006E000642001F002FF6434AC42F3D3AC4205D382
:1006F00009A001F007FD0020C04370BD0BA001F070
:1007000001FD7D20000101F0F0FE002070BD000021
:1007100000040050102700006361743120706F776F
:1007200065726F6E206661696C0D0A0063617431D9
:1007300020706F7765726F6E207375636365737376
:100740000D0A000070B586B0012001900290802053
:10075000184E0025009003956946304600F0AEFA29
:10076000022469463046009400F0A8FAE0010090A7
:1007700005206946000700F0A1FA082000900195C5
:10078000694603950294304600F098FA012202214E
:10079000304600F03EFB01221146304600F039FBA6
:1007A00000228021304600F034FB00F005F806B04E
:1007B00070BD00000004005070B57D252D01FFF7CD
:1007C00071FF002803DA284601F08FFEF7E70024C6
:1007D000FFF7E4FE002820D0641CE4B2032C03D20F
:1007E000284601F082FEF3E701F082F9E124640279
:1007F000204601F037FC204601F0DAF8642001F0D1
:1008000074FE4B20C001FFF7E3FE04A001F07AFC68
:10081000C82001F06AFE00F061FB70BD73657420B2
:1008200063617420626F756420393630300D0A00C0
:1008300010B5084900234B6107494A684C1522430B
:100840004A604A68082422434A60C009C001036024
:1008500010BD0000240000200020024010B5214AF5
:1008600000209169CB05204904D54869022318432B
:100870004861901593699B0505D54B690124234375
:100880004B616302184393695B0505D54B690824E6
:1008900023434B61E301184393691B0505D54B695D
:1008A000042423434B616302184393699B0405D5D9
:1008B0004B69102423434B616302184393699B03E4
:1008C00004D54C6920231C434C6118439369DB0316
:1008D00005D54B69402423434B61A1020843906135
:1008E00010BD0000002002402400002070B5044626
:1008F00000F096FA0546184E0AE0601C08D0002C5D
:1009000004D000F08DFA401BA04201D9032070BD35
:10091000B069C007F1D1B069800701D50220B0618C
:10092000B069C00511D4B06980050ED4B069400526
:100930000BD4B069000508D4B069800405D4B0694F
:10094000800302D4B069C00303D5FFF787FF0120FD
:1009500070BD002070BD0000002002400122C001D7
:10096000D2068218002013780B70401C491C521CC0
:100970008028F8D37047F0B50C460121C001C906A4
:10098000461885B000200090D009029015460196C7
:10099000500602D00298401C029000F061F903A9B1
:1009A000684600F0F7F8002816D1AF08A80700D075
:1009B0007F1C002517E0E178207809064018A1780F
:1009C000627809041202891842183146022000F0A8
:1009D00029F90390002803D00020C04305B0F0BDE2
:1009E000241D6D1C361DBD42E5D300F00DF900201D
:1009F000F4E7000070B5A4B00E4604461546802109
:100A000003A8FFF7CAFB0F480196009403680EA2E3
:100A10001DA103A85B1C01F085FB02A903A800F03F
:100A20009AFF0024E44300280AD11DA10298FFF791
:100A3000BFFB002804D009302860002024B070BD1E
:100A40002046FBE718000020687474703A2F2F636B
:100A500061742E6E6F6E6779656D6574612E636F5C
:100A60006D3A393230302F6170692F76312F6961DC
:100A7000702F6765745F6669726D776172653F7626
:100A8000657273696F6E3D0025732573266164641A
:100A9000723D25642673697A653D25640000000077
:100AA000434F4E4E45435400F3B5A1B00D4680214F
:100AB00001A8FFF772FB1C481C4A03681CA101A88F
:100AC0005B1C01F02FFB694601A800F044FF0026E3
:100AD000F643002825D118A10098FFF769FB0028EC
:100AE0001FD0801D074616A1FFF762FB040018D037
:100AF00014A13846FFF75CFB002606703846FFF766
:100B000072FB219900220860A0188078222804D066
:100B1000A854521CD2B2132AF6D3AE54002023B0EC
:100B2000F0BD3046FBE700001800002068260008F2
:100B3000257325730000000073697A6500000000CA
:100B40003A0000002C00000070B50024014620315E
:100B50004A79022A03D00421C163012418E0026803
:100B600013680E25AB431360026813685B085B00D3
:100B70001360436C1C22134001252A469A40036CE3
:100B80005A604D7100220A71816B002900D088479C
:100B9000204670BDF8B5194F0546387C0E46012831
:100BA00007D0012038741648FFF7A0FE002802D0B5
:100BB00020E00220F8BD0021C94331606C6813E0D9
:100BC0002046FFF735FE0E48FFF790FE0D494A68B4
:100BD00008239A434A604A684B159A434A600028A2
:100BE00001D0346006E08034A9686A68C9018918B8
:100BF000A142E5D800213974F8BD0000240000208E
:100C000050C3000000200240054841680222114301
:100C1000416041680122114341600020704700009B
:100C200000200240F8B50C4C1646207C0F460128E7
:100C300008D0012020740948FFF758FE002500283D
:100C400002D006E00220F8BD65613E600348FFF770
:100C50004DFE2574F8BD00002400002050C30000A4
:100C600011484168C9070BD0EFF3108172B60F4AE3
:100C7000C2600F4AC26081F310884168C9070ED173
:100C8000416889070DD5EFF3108172B6094A0261F8
:100C9000094A026181F310884068800701D501206C
:100CA000704700207047000000200240EFCDAB8964
:100CB00005040302BFAE9D8C16151413F0B5002277
:100CC0008FE0012797403B407ED04C68012C05D037
:100CD000022C03D0112C01D0122C10D185685400A5
:100CE0000326A640B543CE68A6402E4386604468DE
:100CF0000D79BC43ED06ED0F954025434560C66870
:100D000055000324AC408F68A643AF403743A64646
:100D1000C7604C68022C01D0122C0ED1D408A4005C
:100D20002418276AA4465607F40E0F26A640B74398
:100D30000E69A6403E436446266204687646B44384
:100D40000E79B607B60FAE40264306604C68E40045
:100D500046D5274C656B0126354365639508254CC0
:100D6000AD002F19BD689407240F0F26A640B54388
:100D700005263607B04201D100260FE01E4EB042D4
:100D800001D101260AE01D4EB04201D1022605E044
:100D90001B4EB04201D1052600E00626A6402E4398
:100DA000BE60184D2C684E689C43F60300D51C436A
:100DB0002C606C684E689C43B60300D51C436C6085
:100DC000AC684E689C4300E00AE0F60200D51C4384
:100DD000AC60EC684E689C43B60200D51C43EC60E6
:100DE000521C0B681C46D44000D06AE7F0BD0000DE
:100DF00000100240000001400004005000080050B4
:100E0000001C0050000401400069084000D001208F
:100E10007047002A01D081617047816270470000ED
:100E20000148806870470000000000200248816887
:100E300002788918816070470000002010B50848CA
:100E400000240168402211430160204600F00AF8A6
:100E5000002801D0012401E000F026F8204610BD52
:100E60000020024070B504460D4D7D202978C00059
:100E7000FFF746F901460B480068FFF741F900F01B
:100E800013FC002809D1042C07D200222146401E61
:100E900000F020F800206C6070BD012070BD0000E3
:100EA000000000200C0000200448416B0122114387
:100EB0004163816B0204114381637047001002405B
:100EC000C106C90E01208840014908607047000032
:100ED00000E100E010B500F09DFD10BDBFF34F8FA5
:100EE00004490348C860BFF34F8F00BFFDE700000F
:100EF0000400FA0500ED00E0F8B504460078534D13
:100F000080067AD5514800264038806BC00006D450
:100F10004E484038816B02041143816301264C48DE
:100F20000168C90510D40168821511430160FFF7FB
:100F300077FF074604E0FFF773FFC01B64283AD829
:100F400043480068C005F6D5404840380068032192
:100F5000090562680840114081420AD09003800F61
:100F6000032806D1394840380068800301D50120A4
:100F7000F8BD286903210904084021D00A408242B3
:100F80001ED0207880061BD528692A698843012154
:100F9000C9040A432A612A698A432A612861C00573
:100FA0000ED5FFF73DFF074607E0FFF739FFC11BEE
:100FB0002848814201D90320F8BD28698005F4D56D
:100FC00060688103890F032908D1204B403B1968D1
:100FD000032212059143104001431960286903223E
:100FE00061681204114008432861002E05D017489B
:100FF0004038826B01048A4382632078800705D5DC
:10100000E8680C218843A1680843E860207840071D
:1010100006D5E868032189028843E1680843E8604F
:101020002078000706D5E868032109038843216971
:101030000843E8602078000606D5E86803218904A3
:10104000884361690843E8600020F8BD4010024011
:101050000070004088130000F8B50E4604007DD0F3
:1010600053480068C007C00FB0420AD25048016818
:1010700049084900314301600068C007C00FB04211
:1010800071D120784B4F800705D5F868F02188434F
:10109000A1680843F8602078C00752D06068022831
:1010A00017D0032818D03968012818D089050029DD
:1010B00059DAF968890889000143F960FFF7B0FE41
:1010C00005466068022812D003281CD0012826D0CB
:1010D00033E039688903EAE739688901E7E74907B6
:1010E000E5E7FFF79DFE411B3348814223D8F868AE
:1010F0000007800F0228F4D123E0FFF791FE411B87
:101100002D48814217D8F8680007800F0328F4D1D2
:1011100017E0FFF785FE411B274881420BD8F8688E
:101120000007800F0128F4D10BE0FFF779FE411B87
:101130002148814201D90320F8BDF8680007800FDB
:10114000F3D11B480168C907C90FB1420DD9016825
:101150004908490031430160006800E003E0C0072E
:10116000C00FB04201D00120F8BD2078400706D55D
:10117000F868072109028843E1680843F86020788D
:10118000000707D5F8680721C90288432169C9000B
:101190000843F86000F036F8F968084A0906090FB4
:1011A000515CC840064908600020FFF75BFEF8BDAF
:1011B000002002400010024088130000C0250008F3
:1011C0000C000020044805490068C968044A490524
:1011D000490F515CC84070470C00002000100240CD
:1011E000D9250008044805490068C968044A8904EB
:1011F000490F515CC84070470C00002000100240AD
:10120000D925000810B5194AD1680C2308461840A2
:1012100004280BD0082810D00C2810D050680004E7
:10122000410F0120C003491C884010BD1068C00652
:1012300001D50F4810BD0F4810BD0F4810BD8802E2
:101240000E4B000F185C0902D368890F491CDB03A1
:1012500001D5094A05E01268D20601D5044A00E02A
:10126000044A5043FEF74CFF10BD0000001002403E
:1012700000093D000024F40000127A00D025000887
:10128000FEB504007ED0FE4DEE680C20EF680640EF
:101290000120000407402078C00747D0082E05D061
:1012A0000C2E0AD101200004874206D12868800351
:1012B0003CD560680028E5D038E001206168000472
:1012C000814203D129680143296011E005230122ED
:1012D0001B0492049942296802D111432960F1E765
:1012E0008143296029680140009128689043286063
:1012F000606800280DD0FFF793FD009005E0FFF730
:101300008FFD0099401A64287DD828688003F6D59F
:101310000CE0FFF785FD009005E0FFF781FD0099E7
:10132000401A6428F0D828688003F6D42078800713
:101330005CD5E068810604D52A6820210A432A602A
:1013400088430921042E0DD00C2E01D1002F09D085
:1013500000283BD02A688A4302432A60FFF760FDD9
:10136000074627E02A68520701D500288AD06A6814
:101370001F231B029A4323691B021A436A602A68CF
:101380008A4300E08CE102432A60FFF73BFFE968F3
:1013900009060A0FBB49895CC840BB4908600020A8
:1013A000FFF760FD002872D120E0FFF739FDC01B78
:1013B0000228A9D828684007F7D568681F210902C4
:1013C000884321690902084368600FE028684008E3
:1013D00040002860FFF724FD074604E0FFF720FDEA
:1013E000C01B022890D828684007F7D42078C00690
:1013F0005CD5002E0CD0A06900282868A34947D0EE
:101400000843286000E0C1E0FFF70AFD07462CE032
:101410002868800502D5A0690028A7D06868072140
:1014200049038843216A084368606868217F000295
:10143000000A090608436860206A0121400BC903BD
:10144000401C8140E8680006020F8E48805CC14065
:101450008D4801600020FFF705FD002817D125E029
:10146000FFF7DEFCC01B0228A3D828688005F7D54B
:101470006868072149038843216A084368606868EF
:10148000217F0002000A0906084368600EE0DEE0E2
:1014900088432860FFF7C4FC074604E0FFF7C0FC60
:1014A000C01B022872D828688005F7D42078784FAE
:1014B000000724D560690028386910D0012108434D
:1014C0003861FFF7ADFC009005E0FFF7A9FC00993B
:1014D000401A02285AD838698007F6D50FE040082C
:1014E00040003861FFF79CFC009005E0FFF798FC96
:1014F0000099401A022849D838698007F6D4207824
:10150000400765D500200190A86BC00006D4A86BE9
:10151000012109070843A863012001905D48016883
:10152000C90512D402461068911508431060FFF7F0
:1015300077FC009005E0FFF773FC0099401A6428DF
:1015400024D854480068C005F5D55048A2688242A6
:1015500003D139690143396111E001218902002A6F
:1015600007D005231B029A4203D13A690A433A6124
:10157000EFE73A6982433A61386988433861A06885
:1015800000280FD0FFF74CFC009007E05EE0FFF76B
:1015900047FC0099411A4048814257D83869800574
:1015A000F5D50DE0FFF73CFC009006E0FFF738FCB6
:1015B0000099411A3848814248D838698005F5D4E5
:1015C0000198002804D0A96B012000078143A9637A
:1015D000606A002866D00C2E3ED001273F06022804
:1015E000286805D0B8432860FFF71AFC04462FE0AE
:1015F000B8432860FFF714FC064604E0FFF710FC30
:10160000801B022822D828688001F7D4E16AA06AEA
:10161000226B0843E968FD231B0499430A431043E6
:10162000E860286838432860FFF7FAFB044604E0C6
:10163000FFF7F6FB001B022808D828688001F7D5C1
:1016400030E0FFF7EDFB001B022801D90320FEBDAF
:1016500028688001F5D425E00128F8D0E868012148
:101660000904A26A014091421AD10F218904E26A59
:101670000140914214D1032189050840216B0DE0FE
:1016800000100240C02500080C00002000010000EE
:10169000401002400070004088130000884201D0D2
:1016A0000120FEBD0020FEBD094910B5401E884244
:1016B00001D9012010BD074C60610321081F00F013
:1016C000A9F90020A06107202061002010BD0000C2
:1016D000FFFFFF0000E000E070477047F8B50268C8
:1016E0000446D0691168936805072D0F5BD0DD07AC
:1016F000ED0FFF2621360E402E4367D0C60706D0D9
:10170000CE0504D501261662E26F3243E2678607F2
:1017100002220427002E06DADE0704D02668326291
:10172000E66F3E43E667460706D5DB0704D023682D
:101730001F62E36F1343E367020709D520220A40C3
:101740002A4305D0236808221A62E36F1343E36734
:10175000E26F002A2FD0800606D5880604D5216EB8
:10176000002901D020468847E06F21688968490632
:1017700001D4000724D5204600F00AFB20688168C8
:10178000490619D58168402291438160E06E0028A6
:1017900012D020498163E06EFFF7D6F900280AD005
:1017A000E06E816B06E0850610D58D060ED5216EA4
:1017B0001CE020468847F8BD2046FFF78EFFF8BDA5
:1017C0002046FFF78AFF0020E067F8BDC50208D574
:1017D0005B0206D50120000510622046FFF77CFF62
:1017E000F8BD030605D50B0603D5616E0029E0D1CF
:1017F000F8BD4006FCD54806FAD5136820464021BE
:101800008B431360202161670021616600F0A1F81D
:10181000F8BD00007D1D000810B5040003D0606F06
:10182000002802D007E0012010BD002170200155E2
:10183000204600F026F824206067206801684908E7
:1018400049000160204600F0B3FA0128ECD0606A3C
:10185000002802D0204600F0FBF9206841680922E8
:10186000D20291434160206881682A2291438160BD
:1018700020680168012211430160204600F04EFA01
:1018800010BD7047FFB50446406F83B015460E4645
:1018900020285CD1002E0AD0002D08D0A168C001FC
:1018A000814207D12069002804D1F00702D001202D
:1018B00007B0F0BD204660300190007C012846D082
:1018C0000198012101740020E06721206067FFF783
:1018D000A7FA2746403702903D827D820120A16809
:1018E0000003814202D12069002802D0354600263B
:1018F00011E000250FE000228021204600F05CFB73
:10190000002815D1002D15D02168287888626D1C1B
:10191000788A401E7882788A029B00280698009078
:10192000E9D100224021204600F046FB002808D0E3
:101930000320BDE730882168C005C00D8862B61C51
:10194000E6E720206067019900200874B0E70220D4
:10195000AEE77047FEE770B50D46FEF767FD002461
:10196000E443002808D1FEF71DFD002804D12846D5
:10197000FEF738FD002800D0204670BD10B5016884
:10198000094A11400122520791420CD14168074C8B
:1019900021600068FEF7A3FBFEF79DFB002080F3AB
:1019A00014882068804710BD0000FE2F140000201E
:1019B00030B585B0054614216846FEF7EEFB1149A7
:1019C000886B012292041043886304200090022057
:1019D0000190032003900620049000240520029427
:1019E00069460007FFF76AF9084907488C60CC6030
:1019F0000C6121C108200C3111C10448FFF70CFF14
:101A000005B030BD00100240004800403C000020FE
:101A1000704700008307FF22DB0E9A408907090EFA
:101A2000994000280BDA0007000F0838830808489F
:101A30009B001818C36993430B43C3617047830825
:101A400004489B001818036893430B4303607047D6
:101A500000ED00E000E400E07047704710B5FFF7CC
:101A6000E5F910BD10B598B034216846FEF795FB36
:101A700014210DA8FEF791FB182112A8FEF78DFB8B
:101A80001A4801680322D2029143C21489180160E6
:101A900018200090012005900690032000244003A8
:101AA0000890079409946846FFF7EAFB002800D0E5
:101AB000FEE70F200D900E940F94109400211194C6
:101AC0000DA8FFF7C9FA002800D0FEE78620129083
:101AD0000120800417901494159412A8FFF70CFAB3
:101AE000002800D0FEE718B010BD000000700040D4
:101AF00010B598B034216846FEF74FFB14210DA8AD
:101B0000FEF74BFB182112A8FEF747FB1B480168A4
:101B10000322D2029143C214891801600A20009066
:101B200010200490022001210990002005910A90C4
:101B30000B90C8050C9003916846FFF7A1FB0028A5
:101B400000D0FEE70F200D90032080240E90E000CF
:101B5000109011900F9400210DA8FFF77DFA002836
:101B600000D0FEE7012080041294179012A8FFF71E
:101B7000C3F9002800D0FEE718B010BD0070004087
:101B800010480168821511430160C1680E4A114076
:101B9000C16001680D4A114001608168490849002F
:101BA000816001680122920491430160C168FD22B5
:101BB00012049143C160002101610549C00388609E
:101BC00070470000001002400C40FF88F6FFF6FE50
:101BD00000ED00E000B587B014216846FEF7DDFA9D
:101BE0000849CA6A01200243CA62C96A00900140DA
:101BF000019002900591052069460007FFF75EF805
:101C000007B000BD0010024010B586B01421684630
:101C1000FEF7C3FA0C48C26A02210A43C262C06AD4
:101C20000A4C08400590402000900120019002904D
:101C300069462046FFF742F8012240212046FFF77F
:101C4000E8F806B010BD000000100240000400508B
:101C500010B5818CC90707D001684A6801235B046D
:101C60009A43836A1A434A60818C890707D50168C1
:101C70004A6801231B049A43C36A1A434A60818C51
:101C8000490707D501684A6801239B049A43036BFF
:101C90001A434A60818C090707D501684A68012305
:101CA000DB039A43436B1A434A60818CC90607D50C
:101CB00001688A6801231B039A43836B1A438A6075
:101CC000818C890607D501688A6801235B039A43E2
:101CD000C36B1A438A60818C490612D501684B6830
:101CE00001221205046C934323434B60016C914223
:101CF00007D101684A6803235B059A43436C1A4382
:101D00004A60818C090607D501684A680123DB0413
:101D1000806C9A4302434A6010BD0000F8B500256C
:101D20000446C567FFF77CF8074620680068124E36
:101D3000000709D501213B460022490520460096AF
:101D400000F03AF900280DD12068006840070BD553
:101D500001213B46002289052046009600F02CF91F
:101D6000002801D00320F8BD20206067A067603400
:101D700025740020F8BD0000FFFFFF0110B5806A48
:101D80000022014640314A834A82FFF7A6FC10BD7B
:101D900001680A68FF2321339A430A6001688A6850
:101DA000520852008A602021816700210166704735
:101DB000F8B504462669A368E769334366691021CC
:101DC00000203E432268334316680546704F3E406C
:101DD0001E4316602268536803263603B343E66841
:101DE000334353606B4E2368A269B34201D0266A25
:101DF00032439E680B273F02BE4316439E60664AED
:101E00002368664E93420AD1F2680C26324025D0F0
:101E1000042A27D0082A23D00C2A10D10EE05D4ACC
:101E200093420CD1F2680326B602324016D01E153A
:101E3000921B17D0921B13D0B24200D10821554EED
:101E4000564AF713403AB34235D100290CD0022943
:101E50000DD0042912D008291CD113E00021EEE78F
:101E60000221ECE70421EAE7FFF7ACF908E010688B
:101E7000C00601D54A4F05E04A4F03E0FFF7C2F91B
:101E8000070008D0626850001018B84202D810034A
:101E9000B84201D2012576E0390E3E0250080023F7
:101EA00030185941FEF742F9032109023E4A411A0E
:101EB000914266D9EEE7E3693C4EBB4235D10B0057
:101EC00000F044F90906090C251A252525202500CE
:101ED000FFF778F912E0FFF785F90FE01068616805
:101EE000C00602D54808324A01E0324A4808801844
:101EF000FEF706F980B20BE0FFF784F96168400055
:101F00004A08F4E76168012248081204EFE7012556
:101F100001461039B142BDD82449491C014000078F
:101F2000420F20680A43C2602DE00B0000F00EF95A
:101F30000906090C241A242424202400FFF742F95E
:101F400012E0FFF74FF90FE010686168C00602D594
:101F50004A08134801E013484A081018FEF7D0F861
:101F600080B20AE0FFF74EF961684A088018F5E789
:101F700061684808C019F1E7012501461039B142EE
:101F800088D82168C8600020206660662846F8BDB1
:101F9000F369FFEF00480040004400404010024059
:101FA00000093D000024F400FFFC0F00EFFF0000DB
:101FB00000127A000048E801FFB581B01E461746BE
:101FC00004460A9D08E0681C06D0FEF729FF801B26
:101FD000A8420CD8002D0AD02068C1690298884315
:101FE00018D00020B842EED0002005B0F0BD206827
:101FF0000168FF22A132914301602068816849088D
:102000004900816020206067A06700206034207450
:102010000320EAE70120E5E710B50F480068C06932
:10202000C043800613D40D4A002110681123DB0140
:102030000160C11889885C1EA14208D2084C646AFC
:10204000001D0C541068C0188188491C818002480A
:10205000FFF744FB10BD0000BC0000201000002072
:102060000044004070B586B0064614216846FEF76D
:1020700094F81B49886B01225204104388630320A3
:10208000400200900220019003200390042004905D
:1020900001250520029569460007FEF70FFE11484D
:1020A000114C41C4002020606060A06020610C20C1
:1020B000E0600D48083CFFF7AFFB002211461C20F2
:1020C000FEF708FF1C20FEF7FBFE206801682022B7
:1020D00011430160206881682943816006B070BDAA
:1020E0000010024000440040BC0000200A4610B529
:1020F0007D230146DB000248FFF7C4FB10BD000052
:10210000BC0000200FB410B503A9044B044A029888
:1021100000F03EF810BC08BC04B01847FD240008CD
:102120001C0000200FB410B504A9074B02AA0398A5
:1021300000F02EF8044602A9002000F0D1F9204654
:1021400010BC08BC04B01847E124000830B4744641
:10215000641E2578641CAB4200D21D46635D5B00A3
:10216000E31830BC184700000048704720000020EA
:1021700002E008C8121F08C1002AFAD17047704750
:10218000002001E001C1121F002AFBD170470000AE
:10219000FFB58FB00546002606E025280AD0129A22
:1021A000119990476D1C761C28780028F5D130468F
:1021B00013B0F0BD002402940121B54A009400E060
:1021C00004436D1C2B780846203B98401042F7D101
:1021D00028782A280ED00222287801463039092989
:1021E00016D802990A2359433039401814436D1CFC
:1021F0000290F1E7109802C802911090002904DAC9
:1022000001204003044348420290022004436D1C15
:1022100028782E2817D10420044368786D1C2A28BA
:102220000CD110986D1C02C8009110900BE0009921
:102230000A225143303940186D1C0090287801461D
:1022400030390929F3D928786C2810D006DC4C28BD
:102250001AD068280ED06A2817D104E0742813D049
:102260007A2812D110E00120400504430CE001213E
:10227000090501E0032109050C436978814203D176
:102280000120000524186D1C6D1C2878692874D065
:1022900006DC00288BD0632827D0642806D16CE0A8
:1022A0006E2808D073282CD0752878D0129A1199EE
:1022B0009047761C5FE06002400F022809D0032897
:1022C0000DD00428109801680DD00E60001D1090EC
:1022D00051E01098F21701680E604A60F6E7109816
:1022E00001680E80F2E70E70F0E710986A460178F8
:1022F0001173001D10900020507303A8019001205D
:1023000005E0109802C8019110900020C0436107B9
:102310000CD5002700E07F1C00998F420FDA87421E
:10232000F9DB0199C95D0029F5D108E0002700E03B
:102330007F1C8742FCDB0199C95D0029F8D1029816
:102340002146C01B0290129B119A00F0B3F880192D
:10235000C61907E0019801990078491C0191129A69
:10236000119990477F1EF5D22146129B119A02982F
:1023700000F090F886196D1C16E70A20019010995C
:1023800001C910916102490F032900D100B204294B
:1023900000D140B2002803DA40422D2103E00DE0D5
:1023A000210504D52B216A461173012103E0E107C1
:1023B00011D02021F7E70CAF0C9114E00A20019016
:1023C000109901C910916102490F032900D180B20F
:1023D000042900D1C0B20021EDE70199FDF790FE7C
:1023E00030317F1E39700028F7D104A8C01B20307F
:1023F0000190600704D5012000048443009801E0A7
:10240000012000900199884201DD401A00E000207F
:10241000411800900C9809180298401A0290E003A5
:1024200006D42146129B119A029800F043F88619AF
:1024300000200D9008E003A9085C129A11999047BA
:102440000D98401C761C0D900C998842F3DBE0033C
:102450000CD52146129B119A029800F02BF8861990
:1024600004E0129A302011999047761C0099481E7A
:1024700000900029F5DC05E03878129A7F1C11994C
:102480009047761C0199481E01900029F4DC6BE707
:1024900009280100F8B5044600251E4617468804A1
:1024A00004D405E039462020B0476D1C641EF9D5E0
:1024B0002846F8BDFFB50446002581B01E46C80376
:1024C00001D5302700E02027880404D505E03846F0
:1024D0000399B0476D1C641EF9D5284605B0F0BDC0
:1024E0000A68531C0B60107070478C214843002110
:1024F00000E0491C8142FCD3704700000349CA69CF
:102500005206FCD5C2B28A62704700000048004003
:10251000FEF794FCFFF75EFB0521012009078862A6
:10252000FFF7A0FAFF20F530FFF7DFFFE1204002C0
:10253000FFF73EFA4B20C001FFF794FD10A0FFF714
:10254000E1FDFFF761FBFEF7FDF8FDF7D1FF40B2BB
:1025500000280DD0FDF7F0FF40B2401C08D10BA0C1
:10256000FFF7D0FD7D200001FFF7BFFFFEF7B6FCAF
:102570000EA0FFF7C7FD1148FFF700FAFEE70000C5
:10258000656E746572206961700D0A00617070205B
:10259000757064617465206572722C726573746104
:1025A00072742073797374656D0D0A006A756D70AD
:1025B00020746F206170700D0A0000000028000870
:1025C00000000000000000000102030406070809E3
:1025D000030406080C10182030000000000102035C
:1025E0000400404040404040404040414141414162
:1025F00040404040404040404040404040404040DB
:10260000404005020202020202020202020202022B
:10261000020220202020202020202020020202026E
:1026200002020290909090909010101010101010D4
:1026300010101010101010101010101010020202C4
:10264000020202888888888888080808080808081C
:10265000080808080808080808080808080202020C
:1026600002400000E2250008687474703A2F2F635E
:1026700061742E6E6F6E6779656D6574612E636F20
:102680006D3A393230302F6170692F76312F6961A0
:10269000702F6765745F6669726D776172655F69D7
:1026A0006E666F3F76657273696F6E3D0000000065
:1026B000D02600080000002024000000702100083F
:1026C000F426000824000020BC0D00008021000832
:1026D00001000000040000000000000000002000D5
:1026E0003C01002000000000C409002000000000A0
:0426F00000000000E6
:04000005080000C12E
:00000001FF
